{
  "contractName": "AddPool",
  "abi": [
    {
      "constant": true,
      "inputs": [],
      "name": "addressownerStake",
      "outputs": [
        {
          "internalType": "address",
          "name": "",
          "type": "address"
        }
      ],
      "payable": false,
      "stateMutability": "view",
      "type": "function"
    },
    {
      "constant": true,
      "inputs": [
        {
          "internalType": "address",
          "name": "",
          "type": "address"
        }
      ],
      "name": "balance",
      "outputs": [
        {
          "internalType": "uint256",
          "name": "",
          "type": "uint256"
        }
      ],
      "payable": false,
      "stateMutability": "view",
      "type": "function"
    },
    {
      "constant": true,
      "inputs": [
        {
          "internalType": "address",
          "name": "",
          "type": "address"
        }
      ],
      "name": "decimalpool",
      "outputs": [
        {
          "internalType": "uint256",
          "name": "",
          "type": "uint256"
        }
      ],
      "payable": false,
      "stateMutability": "view",
      "type": "function"
    },
    {
      "constant": true,
      "inputs": [
        {
          "internalType": "uint256",
          "name": "",
          "type": "uint256"
        }
      ],
      "name": "detailinfopool",
      "outputs": [
        {
          "internalType": "address",
          "name": "contractaddress",
          "type": "address"
        },
        {
          "internalType": "bool",
          "name": "hasTokeneth",
          "type": "bool"
        },
        {
          "internalType": "bool",
          "name": "hasTokenusdt",
          "type": "bool"
        },
        {
          "internalType": "bool",
          "name": "hasTokendai",
          "type": "bool"
        },
        {
          "internalType": "bool",
          "name": "hasTokentoken",
          "type": "bool"
        },
        {
          "internalType": "uint256",
          "name": "balance",
          "type": "uint256"
        },
        {
          "internalType": "uint256",
          "name": "ratio",
          "type": "uint256"
        },
        {
          "internalType": "uint256",
          "name": "lastime",
          "type": "uint256"
        }
      ],
      "payable": false,
      "stateMutability": "view",
      "type": "function"
    },
    {
      "constant": true,
      "inputs": [],
      "name": "hasContractStake",
      "outputs": [
        {
          "internalType": "bool",
          "name": "",
          "type": "bool"
        }
      ],
      "payable": false,
      "stateMutability": "view",
      "type": "function"
    },
    {
      "constant": true,
      "inputs": [
        {
          "internalType": "address",
          "name": "",
          "type": "address"
        }
      ],
      "name": "hasListed",
      "outputs": [
        {
          "internalType": "bool",
          "name": "",
          "type": "bool"
        }
      ],
      "payable": false,
      "stateMutability": "view",
      "type": "function"
    },
    {
      "constant": true,
      "inputs": [
        {
          "internalType": "address",
          "name": "",
          "type": "address"
        }
      ],
      "name": "hasOwner",
      "outputs": [
        {
          "internalType": "bool",
          "name": "",
          "type": "bool"
        }
      ],
      "payable": false,
      "stateMutability": "view",
      "type": "function"
    },
    {
      "constant": true,
      "inputs": [
        {
          "internalType": "address",
          "name": "",
          "type": "address"
        }
      ],
      "name": "hasTokendai",
      "outputs": [
        {
          "internalType": "bool",
          "name": "",
          "type": "bool"
        }
      ],
      "payable": false,
      "stateMutability": "view",
      "type": "function"
    },
    {
      "constant": true,
      "inputs": [
        {
          "internalType": "address",
          "name": "",
          "type": "address"
        }
      ],
      "name": "hasTokeneth",
      "outputs": [
        {
          "internalType": "bool",
          "name": "",
          "type": "bool"
        }
      ],
      "payable": false,
      "stateMutability": "view",
      "type": "function"
    },
    {
      "constant": true,
      "inputs": [
        {
          "internalType": "address",
          "name": "",
          "type": "address"
        }
      ],
      "name": "hasTokentoken",
      "outputs": [
        {
          "internalType": "bool",
          "name": "",
          "type": "bool"
        }
      ],
      "payable": false,
      "stateMutability": "view",
      "type": "function"
    },
    {
      "constant": true,
      "inputs": [
        {
          "internalType": "address",
          "name": "",
          "type": "address"
        }
      ],
      "name": "hasTokenusdt",
      "outputs": [
        {
          "internalType": "bool",
          "name": "",
          "type": "bool"
        }
      ],
      "payable": false,
      "stateMutability": "view",
      "type": "function"
    },
    {
      "constant": true,
      "inputs": [
        {
          "internalType": "address",
          "name": "",
          "type": "address"
        }
      ],
      "name": "lasttime",
      "outputs": [
        {
          "internalType": "uint256",
          "name": "",
          "type": "uint256"
        }
      ],
      "payable": false,
      "stateMutability": "view",
      "type": "function"
    },
    {
      "constant": true,
      "inputs": [
        {
          "internalType": "uint256",
          "name": "",
          "type": "uint256"
        }
      ],
      "name": "listtoken",
      "outputs": [
        {
          "internalType": "address",
          "name": "contractaddress",
          "type": "address"
        },
        {
          "internalType": "address",
          "name": "ownerCreate",
          "type": "address"
        },
        {
          "internalType": "string",
          "name": "iconPool",
          "type": "string"
        },
        {
          "internalType": "string",
          "name": "symPool",
          "type": "string"
        },
        {
          "internalType": "string",
          "name": "namePool",
          "type": "string"
        },
        {
          "internalType": "uint256",
          "name": "decimal",
          "type": "uint256"
        }
      ],
      "payable": false,
      "stateMutability": "view",
      "type": "function"
    },
    {
      "constant": true,
      "inputs": [
        {
          "internalType": "address",
          "name": "",
          "type": "address"
        }
      ],
      "name": "namepool",
      "outputs": [
        {
          "internalType": "string",
          "name": "",
          "type": "string"
        }
      ],
      "payable": false,
      "stateMutability": "view",
      "type": "function"
    },
    {
      "constant": true,
      "inputs": [
        {
          "internalType": "address",
          "name": "",
          "type": "address"
        }
      ],
      "name": "ownerCreate",
      "outputs": [
        {
          "internalType": "address",
          "name": "",
          "type": "address"
        }
      ],
      "payable": false,
      "stateMutability": "view",
      "type": "function"
    },
    {
      "constant": true,
      "inputs": [
        {
          "internalType": "address",
          "name": "",
          "type": "address"
        }
      ],
      "name": "ratio",
      "outputs": [
        {
          "internalType": "uint256",
          "name": "",
          "type": "uint256"
        }
      ],
      "payable": false,
      "stateMutability": "view",
      "type": "function"
    },
    {
      "constant": true,
      "inputs": [
        {
          "internalType": "address",
          "name": "",
          "type": "address"
        }
      ],
      "name": "symbol",
      "outputs": [
        {
          "internalType": "string",
          "name": "",
          "type": "string"
        }
      ],
      "payable": false,
      "stateMutability": "view",
      "type": "function"
    },
    {
      "constant": true,
      "inputs": [
        {
          "internalType": "address",
          "name": "",
          "type": "address"
        }
      ],
      "name": "totalstaker",
      "outputs": [
        {
          "internalType": "uint256",
          "name": "",
          "type": "uint256"
        }
      ],
      "payable": false,
      "stateMutability": "view",
      "type": "function"
    },
    {
      "constant": true,
      "inputs": [
        {
          "internalType": "address",
          "name": "_address",
          "type": "address"
        }
      ],
      "name": "getHastoken",
      "outputs": [
        {
          "internalType": "bool",
          "name": "",
          "type": "bool"
        }
      ],
      "payable": false,
      "stateMutability": "view",
      "type": "function"
    },
    {
      "constant": true,
      "inputs": [
        {
          "internalType": "address",
          "name": "_address",
          "type": "address"
        }
      ],
      "name": "getHasusdt",
      "outputs": [
        {
          "internalType": "bool",
          "name": "",
          "type": "bool"
        }
      ],
      "payable": false,
      "stateMutability": "view",
      "type": "function"
    },
    {
      "constant": true,
      "inputs": [
        {
          "internalType": "address",
          "name": "_address",
          "type": "address"
        }
      ],
      "name": "getHasdai",
      "outputs": [
        {
          "internalType": "bool",
          "name": "",
          "type": "bool"
        }
      ],
      "payable": false,
      "stateMutability": "view",
      "type": "function"
    },
    {
      "constant": true,
      "inputs": [
        {
          "internalType": "address",
          "name": "_address",
          "type": "address"
        }
      ],
      "name": "getHaseth",
      "outputs": [
        {
          "internalType": "bool",
          "name": "",
          "type": "bool"
        }
      ],
      "payable": false,
      "stateMutability": "view",
      "type": "function"
    },
    {
      "constant": true,
      "inputs": [
        {
          "internalType": "address",
          "name": "_address",
          "type": "address"
        }
      ],
      "name": "getSymbol",
      "outputs": [
        {
          "internalType": "string",
          "name": "",
          "type": "string"
        }
      ],
      "payable": false,
      "stateMutability": "view",
      "type": "function"
    },
    {
      "constant": true,
      "inputs": [
        {
          "internalType": "address",
          "name": "_address",
          "type": "address"
        }
      ],
      "name": "getDecimal",
      "outputs": [
        {
          "internalType": "uint256",
          "name": "",
          "type": "uint256"
        }
      ],
      "payable": false,
      "stateMutability": "view",
      "type": "function"
    },
    {
      "constant": true,
      "inputs": [
        {
          "internalType": "address",
          "name": "_address",
          "type": "address"
        }
      ],
      "name": "getName",
      "outputs": [
        {
          "internalType": "string",
          "name": "",
          "type": "string"
        }
      ],
      "payable": false,
      "stateMutability": "view",
      "type": "function"
    },
    {
      "constant": true,
      "inputs": [
        {
          "internalType": "address",
          "name": "_address",
          "type": "address"
        }
      ],
      "name": "getBalancepool",
      "outputs": [
        {
          "internalType": "uint256",
          "name": "",
          "type": "uint256"
        }
      ],
      "payable": false,
      "stateMutability": "view",
      "type": "function"
    },
    {
      "constant": true,
      "inputs": [
        {
          "internalType": "address",
          "name": "_address",
          "type": "address"
        }
      ],
      "name": "getRatio",
      "outputs": [
        {
          "internalType": "uint256",
          "name": "",
          "type": "uint256"
        }
      ],
      "payable": false,
      "stateMutability": "view",
      "type": "function"
    },
    {
      "constant": true,
      "inputs": [
        {
          "internalType": "address",
          "name": "_address",
          "type": "address"
        }
      ],
      "name": "getLasttime",
      "outputs": [
        {
          "internalType": "uint256",
          "name": "",
          "type": "uint256"
        }
      ],
      "payable": false,
      "stateMutability": "view",
      "type": "function"
    },
    {
      "constant": true,
      "inputs": [],
      "name": "gethasContractStake",
      "outputs": [
        {
          "internalType": "bool",
          "name": "",
          "type": "bool"
        }
      ],
      "payable": false,
      "stateMutability": "view",
      "type": "function"
    },
    {
      "constant": true,
      "inputs": [
        {
          "internalType": "address",
          "name": "_address",
          "type": "address"
        }
      ],
      "name": "getOwnercreate",
      "outputs": [
        {
          "internalType": "address",
          "name": "",
          "type": "address"
        }
      ],
      "payable": false,
      "stateMutability": "view",
      "type": "function"
    },
    {
      "constant": false,
      "inputs": [
        {
          "internalType": "address",
          "name": "contractaddress",
          "type": "address"
        },
        {
          "internalType": "string",
          "name": "iconPool",
          "type": "string"
        },
        {
          "internalType": "string",
          "name": "namePool",
          "type": "string"
        },
        {
          "internalType": "string",
          "name": "symPool",
          "type": "string"
        },
        {
          "internalType": "uint256",
          "name": "decimal",
          "type": "uint256"
        },
        {
          "internalType": "uint256",
          "name": "timePool",
          "type": "uint256"
        },
        {
          "internalType": "uint256",
          "name": "balancePool",
          "type": "uint256"
        },
        {
          "internalType": "uint256",
          "name": "status",
          "type": "uint256"
        }
      ],
      "name": "addpool",
      "outputs": [],
      "payable": false,
      "stateMutability": "nonpayable",
      "type": "function"
    },
    {
      "constant": true,
      "inputs": [],
      "name": "getDetalsinfopool",
      "outputs": [
        {
          "components": [
            {
              "internalType": "address",
              "name": "contractaddress",
              "type": "address"
            },
            {
              "internalType": "bool",
              "name": "hasTokeneth",
              "type": "bool"
            },
            {
              "internalType": "bool",
              "name": "hasTokenusdt",
              "type": "bool"
            },
            {
              "internalType": "bool",
              "name": "hasTokendai",
              "type": "bool"
            },
            {
              "internalType": "bool",
              "name": "hasTokentoken",
              "type": "bool"
            },
            {
              "internalType": "uint256",
              "name": "balance",
              "type": "uint256"
            },
            {
              "internalType": "uint256",
              "name": "ratio",
              "type": "uint256"
            },
            {
              "internalType": "uint256",
              "name": "lastime",
              "type": "uint256"
            }
          ],
          "internalType": "struct AddPool.Detailinfopool[]",
          "name": "",
          "type": "tuple[]"
        }
      ],
      "payable": false,
      "stateMutability": "view",
      "type": "function"
    },
    {
      "constant": true,
      "inputs": [],
      "name": "getListinfopool",
      "outputs": [
        {
          "components": [
            {
              "internalType": "address",
              "name": "contractaddress",
              "type": "address"
            },
            {
              "internalType": "address",
              "name": "ownerCreate",
              "type": "address"
            },
            {
              "internalType": "string",
              "name": "iconPool",
              "type": "string"
            },
            {
              "internalType": "string",
              "name": "symPool",
              "type": "string"
            },
            {
              "internalType": "string",
              "name": "namePool",
              "type": "string"
            },
            {
              "internalType": "uint256",
              "name": "decimal",
              "type": "uint256"
            }
          ],
          "internalType": "struct AddPool.Listtoken[]",
          "name": "",
          "type": "tuple[]"
        }
      ],
      "payable": false,
      "stateMutability": "view",
      "type": "function"
    },
    {
      "constant": false,
      "inputs": [
        {
          "internalType": "address",
          "name": "contractStake",
          "type": "address"
        },
        {
          "internalType": "address",
          "name": "contractaddress",
          "type": "address"
        },
        {
          "internalType": "address",
          "name": "receive",
          "type": "address"
        },
        {
          "internalType": "uint256",
          "name": "amount",
          "type": "uint256"
        }
      ],
      "name": "transfertoStake",
      "outputs": [],
      "payable": false,
      "stateMutability": "nonpayable",
      "type": "function"
    }
  ],
  "bytecode": "0x608060405234801561001057600080fd5b50614057806100206000396000f3fe608060405234801561001057600080fd5b50600436106102065760003560e01c8063754b27071161011a578063c97b2547116100ad578063e08e29a61161007c578063e08e29a614610717578063e3d670d714610747578063e6a1cb2114610777578063efd8d9a8146107a7578063fae6a5c7146107c557610206565b8063c97b254714610650578063c9b2e52214610687578063cbe7a3ae146106b7578063def07fba146106e757610206565b8063a400f5e7116100e9578063a400f5e7146105a2578063a86e3576146105d2578063acb13b8114610602578063b92bb00e1461063257610206565b8063754b2707146104f4578063806c62d614610524578063966da2b814610542578063a16282f91461057257610206565b80632ce4916b1161019d5780633ea9d37d1161016c5780633ea9d37d14610416578063434aae8a1461043457806358fa766f146104645780635fd4b08a1461049457806360aeed0f146104c457610206565b80632ce4916b14610363578063336d0cfb146103935780633790b249146103b15780633abc1341146103e657610206565b80630ffb0983116101d95780630ffb0983146102a35780631a4b5e8b146102d35780631ddf74fc14610303578063230b37901461033357610206565b8063033018aa1461020b578063080fc3d9146102275780630b40495b146102575780630fa6cd5e14610287575b600080fd5b6102256004803603610220919081019061364f565b6107f5565b005b610241600480360361023c91908101906135c3565b612370565b60405161024e9190613d41565b60405180910390f35b610271600480360361026c91908101906135c3565b612390565b60405161027e9190613de0565b60405180910390f35b6102a1600480360361029c91908101906135ec565b6123a8565b005b6102bd60048036036102b891908101906135c3565b6125ce565b6040516102ca9190613d41565b60405180910390f35b6102ed60048036036102e891908101906135c3565b6125ee565b6040516102fa9190613d41565b60405180910390f35b61031d600480360361031891908101906135c3565b612644565b60405161032a9190613d41565b60405180910390f35b61034d600480360361034891908101906135c3565b61269a565b60405161035a9190613d41565b60405180910390f35b61037d600480360361037891908101906135c3565b6126ba565b60405161038a9190613b8e565b60405180910390f35b61039b612723565b6040516103a89190613d41565b60405180910390f35b6103cb60048036036103c69190810190613772565b612739565b6040516103dd96959493929190613be0565b60405180910390f35b61040060048036036103fb91908101906135c3565b61298a565b60405161040d9190613d41565b60405180910390f35b61041e6129aa565b60405161042b9190613d1f565b60405180910390f35b61044e600480360361044991908101906135c3565b612ca5565b60405161045b9190613de0565b60405180910390f35b61047e600480360361047991908101906135c3565b612cbd565b60405161048b9190613de0565b60405180910390f35b6104ae60048036036104a991908101906135c3565b612cd5565b6040516104bb9190613d7e565b60405180910390f35b6104de60048036036104d991908101906135c3565b612db6565b6040516104eb9190613b8e565b60405180910390f35b61050e600480360361050991908101906135c3565b612de9565b60405161051b9190613de0565b60405180910390f35b61052c612e32565b6040516105399190613d41565b60405180910390f35b61055c600480360361055791908101906135c3565b612e44565b6040516105699190613de0565b60405180910390f35b61058c600480360361058791908101906135c3565b612e8d565b6040516105999190613de0565b60405180910390f35b6105bc60048036036105b791908101906135c3565b612ea5565b6040516105c99190613d41565b60405180910390f35b6105ec60048036036105e791908101906135c3565b612efb565b6040516105f99190613d5c565b60405180910390f35b61061c600480360361061791908101906135c3565b612fab565b6040516106299190613de0565b60405180910390f35b61063a612ff4565b6040516106479190613cfd565b60405180910390f35b61066a60048036036106659190810190613772565b613134565b60405161067e989796959493929190613c56565b60405180910390f35b6106a1600480360361069c91908101906135c3565b6131dd565b6040516106ae9190613d7e565b60405180910390f35b6106d160048036036106cc91908101906135c3565b6132be565b6040516106de9190613d41565b60405180910390f35b61070160048036036106fc91908101906135c3565b6132de565b60405161070e9190613de0565b60405180910390f35b610731600480360361072c91908101906135c3565b613327565b60405161073e9190613d5c565b60405180910390f35b610761600480360361075c91908101906135c3565b6133d7565b60405161076e9190613de0565b60405180910390f35b610791600480360361078c91908101906135c3565b6133ef565b60405161079e9190613d41565b60405180910390f35b6107af61340f565b6040516107bc9190613b8e565b60405180910390f35b6107df60048036036107da91908101906135c3565b613435565b6040516107ec9190613d41565b60405180910390f35b6000821161080257600080fd5b42600b60008a73ffffffffffffffffffffffffffffffffffffffff1673ffffffffffffffffffffffffffffffffffffffff1681526020019081526020016000205410610883576040517f08c379a000000000000000000000000000000000000000000000000000000000815260040161087a90613dc0565b60405180910390fd5b600460008973ffffffffffffffffffffffffffffffffffffffff1673ffffffffffffffffffffffffffffffffffffffff16815260200190815260200160002060009054906101000a900460ff16158061091a575042600b60008a73ffffffffffffffffffffffffffffffffffffffff1673ffffffffffffffffffffffffffffffffffffffff16815260200190815260200160002054105b1561230e576000600560008a73ffffffffffffffffffffffffffffffffffffffff1673ffffffffffffffffffffffffffffffffffffffff16815260200190815260200160002060006101000a81548160ff0219169083151502179055506000600760008a73ffffffffffffffffffffffffffffffffffffffff1673ffffffffffffffffffffffffffffffffffffffff16815260200190815260200160002060006101000a81548160ff0219169083151502179055506000600660008a73ffffffffffffffffffffffffffffffffffffffff1673ffffffffffffffffffffffffffffffffffffffff16815260200190815260200160002060006101000a81548160ff0219169083151502179055506000600f60008a73ffffffffffffffffffffffffffffffffffffffff1673ffffffffffffffffffffffffffffffffffffffff1681526020019081526020016000208190555033601060008a73ffffffffffffffffffffffffffffffffffffffff1673ffffffffffffffffffffffffffffffffffffffff16815260200190815260200160002060006101000a81548173ffffffffffffffffffffffffffffffffffffffff021916908373ffffffffffffffffffffffffffffffffffffffff1602179055508773ffffffffffffffffffffffffffffffffffffffff166323b872dd3330856040518463ffffffff1660e01b8152600401610b2793929190613ba9565b602060405180830381600087803b158015610b4157600080fd5b505af1158015610b55573d6000803e3d6000fd5b505050506040513d601f19601f82011682018060405250610b799190810190613749565b50610e1083024201600b60008a73ffffffffffffffffffffffffffffffffffffffff1673ffffffffffffffffffffffffffffffffffffffff168152602001908152602001600020819055506001600860008a73ffffffffffffffffffffffffffffffffffffffff1673ffffffffffffffffffffffffffffffffffffffff16815260200190815260200160002060006101000a81548160ff0219169083151502179055506000811415610dc65781600a60008a73ffffffffffffffffffffffffffffffffffffffff1673ffffffffffffffffffffffffffffffffffffffff16815260200190815260200160002081905550603c83028281610c7557fe5b04600960008a73ffffffffffffffffffffffffffffffffffffffff1673ffffffffffffffffffffffffffffffffffffffff168152602001908152602001600020819055506000600560008a73ffffffffffffffffffffffffffffffffffffffff1673ffffffffffffffffffffffffffffffffffffffff16815260200190815260200160002060006101000a81548160ff0219169083151502179055506000600760008a73ffffffffffffffffffffffffffffffffffffffff1673ffffffffffffffffffffffffffffffffffffffff16815260200190815260200160002060006101000a81548160ff0219169083151502179055506000600660008a73ffffffffffffffffffffffffffffffffffffffff1673ffffffffffffffffffffffffffffffffffffffff16815260200190815260200160002060006101000a81548160ff0219169083151502179055506119ca565b6001811415610f7d5760028281610dd957fe5b04600a60008a73ffffffffffffffffffffffffffffffffffffffff1673ffffffffffffffffffffffffffffffffffffffff16815260200190815260200160002081905550603c83600202028281610e2c57fe5b04600960008a73ffffffffffffffffffffffffffffffffffffffff1673ffffffffffffffffffffffffffffffffffffffff168152602001908152602001600020819055506001600560008a73ffffffffffffffffffffffffffffffffffffffff1673ffffffffffffffffffffffffffffffffffffffff16815260200190815260200160002060006101000a81548160ff0219169083151502179055506000600760008a73ffffffffffffffffffffffffffffffffffffffff1673ffffffffffffffffffffffffffffffffffffffff16815260200190815260200160002060006101000a81548160ff0219169083151502179055506000600660008a73ffffffffffffffffffffffffffffffffffffffff1673ffffffffffffffffffffffffffffffffffffffff16815260200190815260200160002060006101000a81548160ff0219169083151502179055506119c9565b60028114156111345760038281610f9057fe5b04600a60008a73ffffffffffffffffffffffffffffffffffffffff1673ffffffffffffffffffffffffffffffffffffffff16815260200190815260200160002081905550603c83600302028281610fe357fe5b04600960008a73ffffffffffffffffffffffffffffffffffffffff1673ffffffffffffffffffffffffffffffffffffffff168152602001908152602001600020819055506001600560008a73ffffffffffffffffffffffffffffffffffffffff1673ffffffffffffffffffffffffffffffffffffffff16815260200190815260200160002060006101000a81548160ff0219169083151502179055506001600660008a73ffffffffffffffffffffffffffffffffffffffff1673ffffffffffffffffffffffffffffffffffffffff16815260200190815260200160002060006101000a81548160ff0219169083151502179055506000600760008a73ffffffffffffffffffffffffffffffffffffffff1673ffffffffffffffffffffffffffffffffffffffff16815260200190815260200160002060006101000a81548160ff0219169083151502179055506119c8565b60038114156112eb576003828161114757fe5b04600a60008a73ffffffffffffffffffffffffffffffffffffffff1673ffffffffffffffffffffffffffffffffffffffff16815260200190815260200160002081905550603c8360030202828161119a57fe5b04600960008a73ffffffffffffffffffffffffffffffffffffffff1673ffffffffffffffffffffffffffffffffffffffff168152602001908152602001600020819055506001600560008a73ffffffffffffffffffffffffffffffffffffffff1673ffffffffffffffffffffffffffffffffffffffff16815260200190815260200160002060006101000a81548160ff0219169083151502179055506001600760008a73ffffffffffffffffffffffffffffffffffffffff1673ffffffffffffffffffffffffffffffffffffffff16815260200190815260200160002060006101000a81548160ff0219169083151502179055506000600660008a73ffffffffffffffffffffffffffffffffffffffff1673ffffffffffffffffffffffffffffffffffffffff16815260200190815260200160002060006101000a81548160ff0219169083151502179055506119c7565b60048114156114a257600382816112fe57fe5b04600a60008a73ffffffffffffffffffffffffffffffffffffffff1673ffffffffffffffffffffffffffffffffffffffff16815260200190815260200160002081905550603c8360030202828161135157fe5b04600960008a73ffffffffffffffffffffffffffffffffffffffff1673ffffffffffffffffffffffffffffffffffffffff168152602001908152602001600020819055506001600760008a73ffffffffffffffffffffffffffffffffffffffff1673ffffffffffffffffffffffffffffffffffffffff16815260200190815260200160002060006101000a81548160ff0219169083151502179055506001600660008a73ffffffffffffffffffffffffffffffffffffffff1673ffffffffffffffffffffffffffffffffffffffff16815260200190815260200160002060006101000a81548160ff0219169083151502179055506000600560008a73ffffffffffffffffffffffffffffffffffffffff1673ffffffffffffffffffffffffffffffffffffffff16815260200190815260200160002060006101000a81548160ff0219169083151502179055506119c6565b600581141561165957600282816114b557fe5b04600a60008a73ffffffffffffffffffffffffffffffffffffffff1673ffffffffffffffffffffffffffffffffffffffff16815260200190815260200160002081905550603c8360020202828161150857fe5b04600960008a73ffffffffffffffffffffffffffffffffffffffff1673ffffffffffffffffffffffffffffffffffffffff168152602001908152602001600020819055506001600660008a73ffffffffffffffffffffffffffffffffffffffff1673ffffffffffffffffffffffffffffffffffffffff16815260200190815260200160002060006101000a81548160ff0219169083151502179055506000600560008a73ffffffffffffffffffffffffffffffffffffffff1673ffffffffffffffffffffffffffffffffffffffff16815260200190815260200160002060006101000a81548160ff0219169083151502179055506000600760008a73ffffffffffffffffffffffffffffffffffffffff1673ffffffffffffffffffffffffffffffffffffffff16815260200190815260200160002060006101000a81548160ff0219169083151502179055506119c5565b6006811415611810576002828161166c57fe5b04600a60008a73ffffffffffffffffffffffffffffffffffffffff1673ffffffffffffffffffffffffffffffffffffffff16815260200190815260200160002081905550603c836002020282816116bf57fe5b04600960008a73ffffffffffffffffffffffffffffffffffffffff1673ffffffffffffffffffffffffffffffffffffffff168152602001908152602001600020819055506001600760008a73ffffffffffffffffffffffffffffffffffffffff1673ffffffffffffffffffffffffffffffffffffffff16815260200190815260200160002060006101000a81548160ff0219169083151502179055506000600560008a73ffffffffffffffffffffffffffffffffffffffff1673ffffffffffffffffffffffffffffffffffffffff16815260200190815260200160002060006101000a81548160ff0219169083151502179055506000600660008a73ffffffffffffffffffffffffffffffffffffffff1673ffffffffffffffffffffffffffffffffffffffff16815260200190815260200160002060006101000a81548160ff0219169083151502179055506119c4565b60078114156119c3576004828161182357fe5b04600a60008a73ffffffffffffffffffffffffffffffffffffffff1673ffffffffffffffffffffffffffffffffffffffff16815260200190815260200160002081905550603c8360040202828161187657fe5b04600960008a73ffffffffffffffffffffffffffffffffffffffff1673ffffffffffffffffffffffffffffffffffffffff168152602001908152602001600020819055506001600560008a73ffffffffffffffffffffffffffffffffffffffff1673ffffffffffffffffffffffffffffffffffffffff16815260200190815260200160002060006101000a81548160ff0219169083151502179055506001600660008a73ffffffffffffffffffffffffffffffffffffffff1673ffffffffffffffffffffffffffffffffffffffff16815260200190815260200160002060006101000a81548160ff0219169083151502179055506001600760008a73ffffffffffffffffffffffffffffffffffffffff1673ffffffffffffffffffffffffffffffffffffffff16815260200190815260200160002060006101000a81548160ff0219169083151502179055505b5b5b5b5b5b5b5b600460008973ffffffffffffffffffffffffffffffffffffffff1673ffffffffffffffffffffffffffffffffffffffff16815260200190815260200160002060009054906101000a900460ff16611f4a5760016040518060c001604052808a73ffffffffffffffffffffffffffffffffffffffff1681526020013373ffffffffffffffffffffffffffffffffffffffff168152602001898152602001878152602001888152602001868152509080600181540180825580915050906001820390600052602060002090600602016000909192909190915060008201518160000160006101000a81548173ffffffffffffffffffffffffffffffffffffffff021916908373ffffffffffffffffffffffffffffffffffffffff16021790555060208201518160010160006101000a81548173ffffffffffffffffffffffffffffffffffffffff021916908373ffffffffffffffffffffffffffffffffffffffff1602179055506040820151816002019080519060200190611b4b92919061348b565b506060820151816003019080519060200190611b6892919061348b565b506080820151816004019080519060200190611b8592919061348b565b5060a0820151816005015550505060026040518061010001604052808a73ffffffffffffffffffffffffffffffffffffffff168152602001600560008c73ffffffffffffffffffffffffffffffffffffffff1673ffffffffffffffffffffffffffffffffffffffff16815260200190815260200160002060009054906101000a900460ff1615158152602001600660008c73ffffffffffffffffffffffffffffffffffffffff1673ffffffffffffffffffffffffffffffffffffffff16815260200190815260200160002060009054906101000a900460ff1615158152602001600760008c73ffffffffffffffffffffffffffffffffffffffff1673ffffffffffffffffffffffffffffffffffffffff16815260200190815260200160002060009054906101000a900460ff1615158152602001600860008c73ffffffffffffffffffffffffffffffffffffffff1673ffffffffffffffffffffffffffffffffffffffff16815260200190815260200160002060009054906101000a900460ff1615158152602001600a60008c73ffffffffffffffffffffffffffffffffffffffff1673ffffffffffffffffffffffffffffffffffffffff168152602001908152602001600020548152602001600960008c73ffffffffffffffffffffffffffffffffffffffff1673ffffffffffffffffffffffffffffffffffffffff168152602001908152602001600020548152602001600b60008c73ffffffffffffffffffffffffffffffffffffffff1673ffffffffffffffffffffffffffffffffffffffff168152602001908152602001600020548152509080600181540180825580915050906001820390600052602060002090600402016000909192909190915060008201518160000160006101000a81548173ffffffffffffffffffffffffffffffffffffffff021916908373ffffffffffffffffffffffffffffffffffffffff16021790555060208201518160000160146101000a81548160ff02191690831515021790555060408201518160000160156101000a81548160ff02191690831515021790555060608201518160000160166101000a81548160ff02191690831515021790555060808201518160000160176101000a81548160ff02191690831515021790555060a0820151816001015560c0820151816002015560e082015181600301555050506001600460008a73ffffffffffffffffffffffffffffffffffffffff1673ffffffffffffffffffffffffffffffffffffffff16815260200190815260200160002060006101000a81548160ff02191690831515021790555061230d565b60008090505b60028054905081101561230b578873ffffffffffffffffffffffffffffffffffffffff1660028281548110611f8157fe5b906000526020600020906004020160000160009054906101000a900473ffffffffffffffffffffffffffffffffffffffff1673ffffffffffffffffffffffffffffffffffffffff1614156122fe57600560008a73ffffffffffffffffffffffffffffffffffffffff1673ffffffffffffffffffffffffffffffffffffffff16815260200190815260200160002060009054906101000a900460ff166002828154811061202957fe5b906000526020600020906004020160000160146101000a81548160ff021916908315150217905550600660008a73ffffffffffffffffffffffffffffffffffffffff1673ffffffffffffffffffffffffffffffffffffffff16815260200190815260200160002060009054906101000a900460ff16600282815481106120ab57fe5b906000526020600020906004020160000160156101000a81548160ff021916908315150217905550600760008a73ffffffffffffffffffffffffffffffffffffffff1673ffffffffffffffffffffffffffffffffffffffff16815260200190815260200160002060009054906101000a900460ff166002828154811061212d57fe5b906000526020600020906004020160000160166101000a81548160ff021916908315150217905550600860008a73ffffffffffffffffffffffffffffffffffffffff1673ffffffffffffffffffffffffffffffffffffffff16815260200190815260200160002060009054906101000a900460ff16600282815481106121af57fe5b906000526020600020906004020160000160176101000a81548160ff021916908315150217905550600a60008a73ffffffffffffffffffffffffffffffffffffffff1673ffffffffffffffffffffffffffffffffffffffff168152602001908152602001600020546002828154811061222457fe5b906000526020600020906004020160010181905550600960008a73ffffffffffffffffffffffffffffffffffffffff1673ffffffffffffffffffffffffffffffffffffffff168152602001908152602001600020546002828154811061228657fe5b906000526020600020906004020160020181905550600b60008a73ffffffffffffffffffffffffffffffffffffffff1673ffffffffffffffffffffffffffffffffffffffff16815260200190815260200160002054600282815481106122e857fe5b9060005260206000209060040201600301819055505b8080600101915050611f50565b505b5b6001600360003373ffffffffffffffffffffffffffffffffffffffff1673ffffffffffffffffffffffffffffffffffffffff16815260200190815260200160002060006101000a81548160ff0219169083151502179055505050505050505050565b60046020528060005260406000206000915054906101000a900460ff1681565b60096020528060005260406000206000915090505481565b6000809054906101000a900460ff166124a95783600060016101000a81548173ffffffffffffffffffffffffffffffffffffffff021916908373ffffffffffffffffffffffffffffffffffffffff16021790555060016000806101000a81548160ff0219169083151502179055508273ffffffffffffffffffffffffffffffffffffffff1663a9059cbb83836040518363ffffffff1660e01b8152600401612451929190613cd4565b602060405180830381600087803b15801561246b57600080fd5b505af115801561247f573d6000803e3d6000fd5b505050506040513d601f19601f820116820180604052506124a39190810190613749565b506125c8565b8373ffffffffffffffffffffffffffffffffffffffff16600060019054906101000a900473ffffffffffffffffffffffffffffffffffffffff1673ffffffffffffffffffffffffffffffffffffffff1614612539576040517f08c379a000000000000000000000000000000000000000000000000000000000815260040161253090613da0565b60405180910390fd5b8273ffffffffffffffffffffffffffffffffffffffff1663a9059cbb83836040518363ffffffff1660e01b8152600401612574929190613cd4565b602060405180830381600087803b15801561258e57600080fd5b505af11580156125a2573d6000803e3d6000fd5b505050506040513d601f19601f820116820180604052506125c69190810190613749565b505b50505050565b60076020528060005260406000206000915054906101000a900460ff1681565b6000600860008373ffffffffffffffffffffffffffffffffffffffff1673ffffffffffffffffffffffffffffffffffffffff16815260200190815260200160002060009054906101000a900460ff169050919050565b6000600660008373ffffffffffffffffffffffffffffffffffffffff1673ffffffffffffffffffffffffffffffffffffffff16815260200190815260200160002060009054906101000a900460ff169050919050565b60036020528060005260406000206000915054906101000a900460ff1681565b6000601060008373ffffffffffffffffffffffffffffffffffffffff1673ffffffffffffffffffffffffffffffffffffffff16815260200190815260200160002060009054906101000a900473ffffffffffffffffffffffffffffffffffffffff169050919050565b60008060009054906101000a900460ff16905090565b6001818154811061274657fe5b90600052602060002090600602016000915090508060000160009054906101000a900473ffffffffffffffffffffffffffffffffffffffff16908060010160009054906101000a900473ffffffffffffffffffffffffffffffffffffffff1690806002018054600181600116156101000203166002900480601f01602080910402602001604051908101604052809291908181526020018280546001816001161561010002031660029004801561283e5780601f106128135761010080835404028352916020019161283e565b820191906000526020600020905b81548152906001019060200180831161282157829003601f168201915b505050505090806003018054600181600116156101000203166002900480601f0160208091040260200160405190810160405280929190818152602001828054600181600116156101000203166002900480156128dc5780601f106128b1576101008083540402835291602001916128dc565b820191906000526020600020905b8154815290600101906020018083116128bf57829003601f168201915b505050505090806004018054600181600116156101000203166002900480601f01602080910402602001604051908101604052809291908181526020018280546001816001161561010002031660029004801561297a5780601f1061294f5761010080835404028352916020019161297a565b820191906000526020600020905b81548152906001019060200180831161295d57829003601f168201915b5050505050908060050154905086565b60086020528060005260406000206000915054906101000a900460ff1681565b60606001805480602002602001604051908101604052809291908181526020016000905b82821015612c9c57838290600052602060002090600602016040518060c00160405290816000820160009054906101000a900473ffffffffffffffffffffffffffffffffffffffff1673ffffffffffffffffffffffffffffffffffffffff1673ffffffffffffffffffffffffffffffffffffffff1681526020016001820160009054906101000a900473ffffffffffffffffffffffffffffffffffffffff1673ffffffffffffffffffffffffffffffffffffffff1673ffffffffffffffffffffffffffffffffffffffff168152602001600282018054600181600116156101000203166002900480601f016020809104026020016040519081016040528092919081815260200182805460018160011615610100020316600290048015612b365780601f10612b0b57610100808354040283529160200191612b36565b820191906000526020600020905b815481529060010190602001808311612b1957829003601f168201915b50505050508152602001600382018054600181600116156101000203166002900480601f016020809104026020016040519081016040528092919081815260200182805460018160011615610100020316600290048015612bd85780601f10612bad57610100808354040283529160200191612bd8565b820191906000526020600020905b815481529060010190602001808311612bbb57829003601f168201915b50505050508152602001600482018054600181600116156101000203166002900480601f016020809104026020016040519081016040528092919081815260200182805460018160011615610100020316600290048015612c7a5780601f10612c4f57610100808354040283529160200191612c7a565b820191906000526020600020905b815481529060010190602001808311612c5d57829003601f168201915b50505050508152602001600582015481525050815260200190600101906129ce565b50505050905090565b600f6020528060005260406000206000915090505481565b600d6020528060005260406000206000915090505481565b6060600e60008373ffffffffffffffffffffffffffffffffffffffff1673ffffffffffffffffffffffffffffffffffffffff1681526020019081526020016000208054600181600116156101000203166002900480601f016020809104026020016040519081016040528092919081815260200182805460018160011615610100020316600290048015612daa5780601f10612d7f57610100808354040283529160200191612daa565b820191906000526020600020905b815481529060010190602001808311612d8d57829003601f168201915b50505050509050919050565b60106020528060005260406000206000915054906101000a900473ffffffffffffffffffffffffffffffffffffffff1681565b6000600960008373ffffffffffffffffffffffffffffffffffffffff1673ffffffffffffffffffffffffffffffffffffffff168152602001908152602001600020549050919050565b6000809054906101000a900460ff1681565b6000600d60008373ffffffffffffffffffffffffffffffffffffffff1673ffffffffffffffffffffffffffffffffffffffff168152602001908152602001600020549050919050565b600b6020528060005260406000206000915090505481565b6000600760008373ffffffffffffffffffffffffffffffffffffffff1673ffffffffffffffffffffffffffffffffffffffff16815260200190815260200160002060009054906101000a900460ff169050919050565b600c6020528060005260406000206000915090508054600181600116156101000203166002900480601f016020809104026020016040519081016040528092919081815260200182805460018160011615610100020316600290048015612fa35780601f10612f7857610100808354040283529160200191612fa3565b820191906000526020600020905b815481529060010190602001808311612f8657829003601f168201915b505050505081565b6000600a60008373ffffffffffffffffffffffffffffffffffffffff1673ffffffffffffffffffffffffffffffffffffffff168152602001908152602001600020549050919050565b60606002805480602002602001604051908101604052809291908181526020016000905b8282101561312b5783829060005260206000209060040201604051806101000160405290816000820160009054906101000a900473ffffffffffffffffffffffffffffffffffffffff1673ffffffffffffffffffffffffffffffffffffffff1673ffffffffffffffffffffffffffffffffffffffff1681526020016000820160149054906101000a900460ff161515151581526020016000820160159054906101000a900460ff161515151581526020016000820160169054906101000a900460ff161515151581526020016000820160179054906101000a900460ff16151515158152602001600182015481526020016002820154815260200160038201548152505081526020019060010190613018565b50505050905090565b6002818154811061314157fe5b90600052602060002090600402016000915090508060000160009054906101000a900473ffffffffffffffffffffffffffffffffffffffff16908060000160149054906101000a900460ff16908060000160159054906101000a900460ff16908060000160169054906101000a900460ff16908060000160179054906101000a900460ff16908060010154908060020154908060030154905088565b6060600c60008373ffffffffffffffffffffffffffffffffffffffff1673ffffffffffffffffffffffffffffffffffffffff1681526020019081526020016000208054600181600116156101000203166002900480601f0160208091040260200160405190810160405280929190818152602001828054600181600116156101000203166002900480156132b25780601f10613287576101008083540402835291602001916132b2565b820191906000526020600020905b81548152906001019060200180831161329557829003601f168201915b50505050509050919050565b60056020528060005260406000206000915054906101000a900460ff1681565b6000600b60008373ffffffffffffffffffffffffffffffffffffffff1673ffffffffffffffffffffffffffffffffffffffff168152602001908152602001600020549050919050565b600e6020528060005260406000206000915090508054600181600116156101000203166002900480601f0160208091040260200160405190810160405280929190818152602001828054600181600116156101000203166002900480156133cf5780601f106133a4576101008083540402835291602001916133cf565b820191906000526020600020905b8154815290600101906020018083116133b257829003601f168201915b505050505081565b600a6020528060005260406000206000915090505481565b60066020528060005260406000206000915054906101000a900460ff1681565b600060019054906101000a900473ffffffffffffffffffffffffffffffffffffffff1681565b6000600560008373ffffffffffffffffffffffffffffffffffffffff1673ffffffffffffffffffffffffffffffffffffffff16815260200190815260200160002060009054906101000a900460ff169050919050565b828054600181600116156101000203166002900490600052602060002090601f016020900481019282601f106134cc57805160ff19168380011785556134fa565b828001600101855582156134fa579182015b828111156134f95782518255916020019190600101906134de565b5b509050613507919061350b565b5090565b61352d91905b80821115613529576000816000905550600101613511565b5090565b90565b60008135905061353f81613fcf565b92915050565b60008151905061355481613fe6565b92915050565b600082601f83011261356b57600080fd5b813561357e61357982613e28565b613dfb565b9150808252602083016020830185838301111561359a57600080fd5b6135a5838284613f7c565b50505092915050565b6000813590506135bd81613ffd565b92915050565b6000602082840312156135d557600080fd5b60006135e384828501613530565b91505092915050565b6000806000806080858703121561360257600080fd5b600061361087828801613530565b945050602061362187828801613530565b935050604061363287828801613530565b9250506060613643878288016135ae565b91505092959194509250565b600080600080600080600080610100898b03121561366c57600080fd5b600061367a8b828c01613530565b985050602089013567ffffffffffffffff81111561369757600080fd5b6136a38b828c0161355a565b975050604089013567ffffffffffffffff8111156136c057600080fd5b6136cc8b828c0161355a565b965050606089013567ffffffffffffffff8111156136e957600080fd5b6136f58b828c0161355a565b95505060806137068b828c016135ae565b94505060a06137178b828c016135ae565b93505060c06137288b828c016135ae565b92505060e06137398b828c016135ae565b9150509295985092959890939650565b60006020828403121561375b57600080fd5b600061376984828501613545565b91505092915050565b60006020828403121561378457600080fd5b6000613792848285016135ae565b91505092915050565b60006137a78383613a37565b6101008301905092915050565b60006137c08383613ad9565b905092915050565b6137d181613f46565b82525050565b6137e081613efe565b82525050565b6137ef81613efe565b82525050565b600061380082613e74565b61380a8185613eba565b935061381583613e54565b8060005b8381101561384657815161382d888261379b565b975061383883613ea0565b925050600181019050613819565b5085935050505092915050565b600061385e82613e7f565b6138688185613ecb565b93508360208202850161387a85613e64565b8060005b858110156138b6578484038952815161389785826137b4565b94506138a283613ead565b925060208a0199505060018101905061387e565b50829750879550505050505092915050565b6138d181613f10565b82525050565b6138e081613f10565b82525050565b60006138f182613e95565b6138fb8185613eed565b935061390b818560208601613f8b565b61391481613fbe565b840191505092915050565b600061392a82613e8a565b6139348185613edc565b9350613944818560208601613f8b565b61394d81613fbe565b840191505092915050565b600061396382613e8a565b61396d8185613eed565b935061397d818560208601613f8b565b61398681613fbe565b840191505092915050565b600061399e601583613eed565b91507f596f7520617265206e6f7420746865206f776e657200000000000000000000006000830152602082019050919050565b60006139de602483613eed565b91507f41646420706f6f6c2066616c73652e20506f6f6c20616c72656164792065786960008301527f73746564000000000000000000000000000000000000000000000000000000006020830152604082019050919050565b61010082016000820151613a4e60008501826137d7565b506020820151613a6160208501826138c8565b506040820151613a7460408501826138c8565b506060820151613a8760608501826138c8565b506080820151613a9a60808501826138c8565b5060a0820151613aad60a0850182613b70565b5060c0820151613ac060c0850182613b70565b5060e0820151613ad360e0850182613b70565b50505050565b600060c083016000830151613af160008601826137d7565b506020830151613b0460208601826137d7565b5060408301518482036040860152613b1c828261391f565b91505060608301518482036060860152613b36828261391f565b91505060808301518482036080860152613b50828261391f565b91505060a0830151613b6560a0860182613b70565b508091505092915050565b613b7981613f3c565b82525050565b613b8881613f3c565b82525050565b6000602082019050613ba360008301846137e6565b92915050565b6000606082019050613bbe60008301866137c8565b613bcb60208301856137e6565b613bd86040830184613b7f565b949350505050565b600060c082019050613bf560008301896137e6565b613c0260208301886137e6565b8181036040830152613c148187613958565b90508181036060830152613c288186613958565b90508181036080830152613c3c8185613958565b9050613c4b60a0830184613b7f565b979650505050505050565b600061010082019050613c6c600083018b6137e6565b613c79602083018a6138d7565b613c8660408301896138d7565b613c9360608301886138d7565b613ca060808301876138d7565b613cad60a0830186613b7f565b613cba60c0830185613b7f565b613cc760e0830184613b7f565b9998505050505050505050565b6000604082019050613ce960008301856137e6565b613cf66020830184613b7f565b9392505050565b60006020820190508181036000830152613d1781846137f5565b905092915050565b60006020820190508181036000830152613d398184613853565b905092915050565b6000602082019050613d5660008301846138d7565b92915050565b60006020820190508181036000830152613d768184613958565b905092915050565b60006020820190508181036000830152613d9881846138e6565b905092915050565b60006020820190508181036000830152613db981613991565b9050919050565b60006020820190508181036000830152613dd9816139d1565b9050919050565b6000602082019050613df56000830184613b7f565b92915050565b6000604051905081810181811067ffffffffffffffff82111715613e1e57600080fd5b8060405250919050565b600067ffffffffffffffff821115613e3f57600080fd5b601f19601f8301169050602081019050919050565b6000819050602082019050919050565b6000819050602082019050919050565b600081519050919050565b600081519050919050565b600081519050919050565b600081519050919050565b6000602082019050919050565b6000602082019050919050565b600082825260208201905092915050565b600082825260208201905092915050565b600082825260208201905092915050565b600082825260208201905092915050565b6000613f0982613f1c565b9050919050565b60008115159050919050565b600073ffffffffffffffffffffffffffffffffffffffff82169050919050565b6000819050919050565b6000613f5182613f58565b9050919050565b6000613f6382613f6a565b9050919050565b6000613f7582613f1c565b9050919050565b82818337600083830152505050565b60005b83811015613fa9578082015181840152602081019050613f8e565b83811115613fb8576000848401525b50505050565b6000601f19601f8301169050919050565b613fd881613efe565b8114613fe357600080fd5b50565b613fef81613f10565b8114613ffa57600080fd5b50565b61400681613f3c565b811461401157600080fd5b5056fea365627a7a72315820a7597dd2ef2ea6cbf682297e19310dbbb65578af12a0298f7a008890744fa0c36c6578706572696d656e74616cf564736f6c63430005100040",
  "source": "pragma solidity ^0.5.0;\ninterface IERC20 {\n    function totalSupply() external view returns (uint256);\n    function balanceOf(address account) external view returns (uint256);\n    function transfer(address recipient, uint256 amount) external returns (bool);\n    function allowance(address owner, address spender) external view returns (uint256);\n    function approve(address spender, uint256 amount) external returns (bool);\n    function transferFrom(address sender, address recipient, uint256 amount) external returns (bool);\n    event Transfer(address indexed from, address indexed to, uint256 value);\n    event Approval(address indexed owner, address indexed spender, uint256 value);\n}\npragma solidity ^0.5.0;\npragma experimental ABIEncoderV2;\ncontract AddPool {\n\n    bool public hasContractStake;\n    address public addressownerStake;\n    struct Listtoken {\n        address contractaddress;\n        address ownerCreate;\n        string iconPool;\n        string symPool;\n        string namePool;\n        uint decimal;      \n    } \n\n    struct Detailinfopool{\n        address contractaddress;\n        bool hasTokeneth;\n        bool hasTokenusdt;\n        bool hasTokendai;\n        bool hasTokentoken;\n        uint balance;\n        uint ratio;\n        uint lastime;\n    }\n    Listtoken[] public listtoken;\n    Detailinfopool[] public detailinfopool;\n    mapping(address => bool) public hasOwner;\n    mapping(address => bool) public hasListed;\n    mapping(address => bool) public hasTokeneth;\n    mapping(address => bool) public hasTokenusdt;\n    mapping(address => bool) public hasTokendai;\n    mapping(address => bool) public hasTokentoken;\n    mapping(address => uint) public ratio;\n    mapping(address => uint) public balance;\n    mapping(address => uint) public lasttime;\n    mapping(address => string) public symbol;\n    mapping(address => uint) public decimalpool;\n    mapping(address => string) public namepool;\n    mapping(address => uint) public totalstaker;\n    mapping(address => address) public ownerCreate;\n\n    function getHastoken(address _address) external view returns(bool) {return hasTokentoken[_address];}\n    function getHasusdt(address _address) external view returns(bool) {return hasTokenusdt[_address];}\n    function getHasdai(address _address) external view returns(bool) {return hasTokendai[_address];}\n    function getHaseth(address _address) external view returns(bool) {return hasTokeneth[_address];}\n    function getSymbol(address _address) external view returns(string memory) {return symbol[_address];}\n    function getDecimal(address _address) external view returns(uint) {return decimalpool[_address];}\n    function getName(address _address) external view returns(string memory) {return namepool[_address];}\n    function getBalancepool(address _address) external view returns(uint) {return balance[_address];}\n    function getRatio(address _address) external view returns(uint) {return ratio[_address];}\n    function getLasttime(address _address) external view returns(uint) {return lasttime[_address];}\n    function gethasContractStake() external view returns(bool) {return hasContractStake;}\n    function getOwnercreate(address _address) external view returns(address) {return ownerCreate[_address];}\n \n    function addpool(address contractaddress, string memory iconPool, string memory namePool, string memory symPool,uint decimal, uint timePool, uint balancePool, uint status) public {\n        require(balancePool > 0);\n        require(lasttime[contractaddress] < block.timestamp, \"Add pool false. Pool already existed\");\n        if(!hasListed[contractaddress] || (lasttime[contractaddress] < block.timestamp)){\n            hasTokeneth[contractaddress] = false;\n            hasTokendai[contractaddress] = false;\n            hasTokenusdt[contractaddress] = false;\n            totalstaker[contractaddress] = 0;\n            ownerCreate[contractaddress]=msg.sender;\n            IERC20(contractaddress).transferFrom(msg.sender, address(this), balancePool);                \n            lasttime[contractaddress]= block.timestamp + timePool*3600;\n            hasTokentoken[contractaddress] = true;\n            if(status == 0){\n                // TOKEN\n                balance[contractaddress] = balancePool;\n                ratio[contractaddress] = balancePool/(timePool * 60);        \n                hasTokeneth[contractaddress] = false;\n                hasTokendai[contractaddress] = false;\n                hasTokenusdt[contractaddress] = false;\n            }else if(status == 1) {\n                // TOKEN ETH\n                balance[contractaddress] = balancePool / 2;\n                ratio[contractaddress] = balancePool/(2 * timePool * 60);         \n                hasTokeneth[contractaddress] = true;\n                hasTokendai[contractaddress] = false;\n                hasTokenusdt[contractaddress] = false;\n            }else if(status == 2){\n                //TOKEN ETH USDT\n                balance[contractaddress]  = balancePool / 3;\n                ratio[contractaddress]= balancePool/(3 * timePool * 60);\n                hasTokeneth[contractaddress] = true;\n                hasTokenusdt[contractaddress] = true;\n                hasTokendai[contractaddress] = false;\n            }else if(status == 3){\n                //TOKEN ETH DAI\n                balance[contractaddress] = balancePool / 3;\n                ratio[contractaddress]= balancePool/(3 * timePool * 60);\n                hasTokeneth[contractaddress] = true;\n                hasTokendai[contractaddress] = true;\n                hasTokenusdt[contractaddress] = false;\n            }else if(status == 4){\n                //TOKEN USDT DAI\n                balance[contractaddress] = balancePool / 3;\n                ratio[contractaddress]= balancePool/(3 * timePool * 60);\n                hasTokendai[contractaddress] = true;\n                hasTokenusdt[contractaddress] = true;\n                hasTokeneth[contractaddress] = false;\n            }else if(status == 5) {\n                //TOKEN USDT\n                balance[contractaddress] = balancePool / 2;\n                ratio[contractaddress] = balancePool/(2 * timePool * 60);\n                hasTokenusdt[contractaddress] = true;\n                hasTokeneth[contractaddress] = false;\n                hasTokendai[contractaddress] = false;\n            }else if(status == 6) {\n                //TOKEN DAI\n                balance[contractaddress] = balancePool / 2;\n                ratio[contractaddress] = balancePool/(2 * timePool * 60);\n                hasTokendai[contractaddress] = true;\n                hasTokeneth[contractaddress] = false;\n                hasTokenusdt[contractaddress] = false;\n            }else if(status == 7) {\n                //TOKEN ETH USDT DAI\n                balance[contractaddress]  = balancePool / 4;\n                ratio[contractaddress] = balancePool/(4 * timePool * 60);\n                hasTokeneth[contractaddress] = true;\n                hasTokenusdt[contractaddress] = true;\n                hasTokendai[contractaddress] = true;\n            }\n            if(!hasListed[contractaddress]){\n                listtoken.push(Listtoken(contractaddress, msg.sender , iconPool, symPool, namePool,  decimal));\n                detailinfopool.push(Detailinfopool(contractaddress, hasTokeneth[contractaddress], hasTokenusdt[contractaddress], hasTokendai[contractaddress], hasTokentoken[contractaddress], balance[contractaddress], ratio[contractaddress], lasttime[contractaddress]));\n                hasListed[contractaddress] = true;\n            }else {\n                for(uint i =0; i<detailinfopool.length; i++){\n                    if(detailinfopool[i].contractaddress == contractaddress){\n                        detailinfopool[i].hasTokeneth = hasTokeneth[contractaddress];\n                        detailinfopool[i].hasTokenusdt = hasTokenusdt[contractaddress];\n                        detailinfopool[i].hasTokendai = hasTokendai[contractaddress];\n                        detailinfopool[i].hasTokentoken = hasTokentoken[contractaddress];\n                        detailinfopool[i].balance = balance[contractaddress];\n                        detailinfopool[i].ratio = ratio[contractaddress];\n                        detailinfopool[i].lastime = lasttime[contractaddress];\n                    }\n                }\n            }        \n        }\n        hasOwner[msg.sender] = true;\n    }\n    function getDetalsinfopool() public view returns(Detailinfopool[] memory){\n        return detailinfopool;\n    }\n    function getListinfopool() public view returns(Listtoken[] memory){\n        return listtoken;\n    }\n    function transfertoStake(address contractStake, address contractaddress, address receive, uint amount) public {\n        if(!hasContractStake){\n            addressownerStake = contractStake;\n            hasContractStake = true;\n            IERC20(contractaddress).transfer(receive,amount);\n        }else{\n            require(addressownerStake == contractStake, \"You are not the owner\");\n            IERC20(contractaddress).transfer(receive,amount);\n        }\n        \n    }\n}",
  "sourcePath": "/Users/quyphan/Desktop/smartcontract/UniStakes/src/contracts/AddPool.sol",
  "compiler": {
    "name": "solc",
    "version": "0.5.16+commit.9c3226ce.Emscripten.clang"
  },
  "schemaVersion": "3.2.3",
  "updatedAt": "2020-11-17T06:26:44.538Z",
  "devdoc": {
    "methods": {}
  },
  "userdoc": {
    "methods": {}
  }
}