{
  "contractName": "AddPoolNew",
  "abi": [
    {
      "inputs": [],
      "payable": false,
      "stateMutability": "nonpayable",
      "type": "constructor"
    },
    {
      "constant": true,
      "inputs": [],
      "name": "ATOZ",
      "outputs": [
        {
          "internalType": "contract IERC20",
          "name": "",
          "type": "address"
        }
      ],
      "payable": false,
      "stateMutability": "view",
      "type": "function"
    },
    {
      "constant": true,
      "inputs": [],
      "name": "USDT",
      "outputs": [
        {
          "internalType": "contract IERC20",
          "name": "",
          "type": "address"
        }
      ],
      "payable": false,
      "stateMutability": "view",
      "type": "function"
    },
    {
      "constant": true,
      "inputs": [],
      "name": "addressownerStake",
      "outputs": [
        {
          "internalType": "address",
          "name": "",
          "type": "address"
        }
      ],
      "payable": false,
      "stateMutability": "view",
      "type": "function"
    },
    {
      "constant": true,
      "inputs": [
        {
          "internalType": "address",
          "name": "",
          "type": "address"
        }
      ],
      "name": "balance",
      "outputs": [
        {
          "internalType": "uint256",
          "name": "",
          "type": "uint256"
        }
      ],
      "payable": false,
      "stateMutability": "view",
      "type": "function"
    },
    {
      "constant": true,
      "inputs": [],
      "name": "balanceAtoz",
      "outputs": [
        {
          "internalType": "uint256",
          "name": "",
          "type": "uint256"
        }
      ],
      "payable": false,
      "stateMutability": "view",
      "type": "function"
    },
    {
      "constant": true,
      "inputs": [],
      "name": "balanceUSDT",
      "outputs": [
        {
          "internalType": "uint256",
          "name": "",
          "type": "uint256"
        }
      ],
      "payable": false,
      "stateMutability": "view",
      "type": "function"
    },
    {
      "constant": true,
      "inputs": [
        {
          "internalType": "address",
          "name": "",
          "type": "address"
        }
      ],
      "name": "decimalpool",
      "outputs": [
        {
          "internalType": "uint256",
          "name": "",
          "type": "uint256"
        }
      ],
      "payable": false,
      "stateMutability": "view",
      "type": "function"
    },
    {
      "constant": true,
      "inputs": [
        {
          "internalType": "uint256",
          "name": "",
          "type": "uint256"
        }
      ],
      "name": "detailinfopool",
      "outputs": [
        {
          "internalType": "address",
          "name": "contractaddress",
          "type": "address"
        },
        {
          "internalType": "bool",
          "name": "hasTokeneth",
          "type": "bool"
        },
        {
          "internalType": "bool",
          "name": "hasTokenusdt",
          "type": "bool"
        },
        {
          "internalType": "bool",
          "name": "hasTokendai",
          "type": "bool"
        },
        {
          "internalType": "bool",
          "name": "hasTokentoken",
          "type": "bool"
        },
        {
          "internalType": "uint256",
          "name": "balance",
          "type": "uint256"
        },
        {
          "internalType": "uint256",
          "name": "ratio",
          "type": "uint256"
        },
        {
          "internalType": "uint256",
          "name": "lastime",
          "type": "uint256"
        }
      ],
      "payable": false,
      "stateMutability": "view",
      "type": "function"
    },
    {
      "constant": true,
      "inputs": [],
      "name": "hasContractStake",
      "outputs": [
        {
          "internalType": "bool",
          "name": "",
          "type": "bool"
        }
      ],
      "payable": false,
      "stateMutability": "view",
      "type": "function"
    },
    {
      "constant": true,
      "inputs": [
        {
          "internalType": "address",
          "name": "",
          "type": "address"
        }
      ],
      "name": "hasListed",
      "outputs": [
        {
          "internalType": "bool",
          "name": "",
          "type": "bool"
        }
      ],
      "payable": false,
      "stateMutability": "view",
      "type": "function"
    },
    {
      "constant": true,
      "inputs": [
        {
          "internalType": "address",
          "name": "",
          "type": "address"
        }
      ],
      "name": "hasOwner",
      "outputs": [
        {
          "internalType": "bool",
          "name": "",
          "type": "bool"
        }
      ],
      "payable": false,
      "stateMutability": "view",
      "type": "function"
    },
    {
      "constant": true,
      "inputs": [
        {
          "internalType": "address",
          "name": "",
          "type": "address"
        }
      ],
      "name": "hasTokendai",
      "outputs": [
        {
          "internalType": "bool",
          "name": "",
          "type": "bool"
        }
      ],
      "payable": false,
      "stateMutability": "view",
      "type": "function"
    },
    {
      "constant": true,
      "inputs": [
        {
          "internalType": "address",
          "name": "",
          "type": "address"
        }
      ],
      "name": "hasTokeneth",
      "outputs": [
        {
          "internalType": "bool",
          "name": "",
          "type": "bool"
        }
      ],
      "payable": false,
      "stateMutability": "view",
      "type": "function"
    },
    {
      "constant": true,
      "inputs": [
        {
          "internalType": "address",
          "name": "",
          "type": "address"
        }
      ],
      "name": "hasTokentoken",
      "outputs": [
        {
          "internalType": "bool",
          "name": "",
          "type": "bool"
        }
      ],
      "payable": false,
      "stateMutability": "view",
      "type": "function"
    },
    {
      "constant": true,
      "inputs": [
        {
          "internalType": "address",
          "name": "",
          "type": "address"
        }
      ],
      "name": "hasTokenusdt",
      "outputs": [
        {
          "internalType": "bool",
          "name": "",
          "type": "bool"
        }
      ],
      "payable": false,
      "stateMutability": "view",
      "type": "function"
    },
    {
      "constant": true,
      "inputs": [
        {
          "internalType": "address",
          "name": "",
          "type": "address"
        }
      ],
      "name": "lasttime",
      "outputs": [
        {
          "internalType": "uint256",
          "name": "",
          "type": "uint256"
        }
      ],
      "payable": false,
      "stateMutability": "view",
      "type": "function"
    },
    {
      "constant": true,
      "inputs": [
        {
          "internalType": "uint256",
          "name": "",
          "type": "uint256"
        }
      ],
      "name": "listredeem",
      "outputs": [
        {
          "internalType": "string",
          "name": "redeemcode",
          "type": "string"
        },
        {
          "internalType": "uint256",
          "name": "amount",
          "type": "uint256"
        }
      ],
      "payable": false,
      "stateMutability": "view",
      "type": "function"
    },
    {
      "constant": true,
      "inputs": [
        {
          "internalType": "uint256",
          "name": "",
          "type": "uint256"
        }
      ],
      "name": "listtoken",
      "outputs": [
        {
          "internalType": "address",
          "name": "contractaddress",
          "type": "address"
        },
        {
          "internalType": "address",
          "name": "ownerCreate",
          "type": "address"
        },
        {
          "internalType": "string",
          "name": "iconPool",
          "type": "string"
        },
        {
          "internalType": "string",
          "name": "symPool",
          "type": "string"
        },
        {
          "internalType": "string",
          "name": "namePool",
          "type": "string"
        },
        {
          "internalType": "uint256",
          "name": "decimal",
          "type": "uint256"
        }
      ],
      "payable": false,
      "stateMutability": "view",
      "type": "function"
    },
    {
      "constant": true,
      "inputs": [
        {
          "internalType": "address",
          "name": "",
          "type": "address"
        }
      ],
      "name": "namepool",
      "outputs": [
        {
          "internalType": "string",
          "name": "",
          "type": "string"
        }
      ],
      "payable": false,
      "stateMutability": "view",
      "type": "function"
    },
    {
      "constant": true,
      "inputs": [],
      "name": "owner",
      "outputs": [
        {
          "internalType": "address",
          "name": "",
          "type": "address"
        }
      ],
      "payable": false,
      "stateMutability": "view",
      "type": "function"
    },
    {
      "constant": true,
      "inputs": [
        {
          "internalType": "address",
          "name": "",
          "type": "address"
        }
      ],
      "name": "ownerCreate",
      "outputs": [
        {
          "internalType": "address",
          "name": "",
          "type": "address"
        }
      ],
      "payable": false,
      "stateMutability": "view",
      "type": "function"
    },
    {
      "constant": true,
      "inputs": [
        {
          "internalType": "address",
          "name": "",
          "type": "address"
        }
      ],
      "name": "ratio",
      "outputs": [
        {
          "internalType": "uint256",
          "name": "",
          "type": "uint256"
        }
      ],
      "payable": false,
      "stateMutability": "view",
      "type": "function"
    },
    {
      "constant": true,
      "inputs": [
        {
          "internalType": "address",
          "name": "",
          "type": "address"
        }
      ],
      "name": "symbol",
      "outputs": [
        {
          "internalType": "string",
          "name": "",
          "type": "string"
        }
      ],
      "payable": false,
      "stateMutability": "view",
      "type": "function"
    },
    {
      "constant": true,
      "inputs": [
        {
          "internalType": "address",
          "name": "",
          "type": "address"
        }
      ],
      "name": "totalstaker",
      "outputs": [
        {
          "internalType": "uint256",
          "name": "",
          "type": "uint256"
        }
      ],
      "payable": false,
      "stateMutability": "view",
      "type": "function"
    },
    {
      "constant": false,
      "inputs": [
        {
          "internalType": "address",
          "name": "contractuse",
          "type": "address"
        }
      ],
      "name": "setcontract",
      "outputs": [],
      "payable": false,
      "stateMutability": "nonpayable",
      "type": "function"
    },
    {
      "constant": true,
      "inputs": [
        {
          "internalType": "address",
          "name": "_address",
          "type": "address"
        }
      ],
      "name": "getHastoken",
      "outputs": [
        {
          "internalType": "bool",
          "name": "",
          "type": "bool"
        }
      ],
      "payable": false,
      "stateMutability": "view",
      "type": "function"
    },
    {
      "constant": true,
      "inputs": [
        {
          "internalType": "address",
          "name": "_address",
          "type": "address"
        }
      ],
      "name": "getHasusdt",
      "outputs": [
        {
          "internalType": "bool",
          "name": "",
          "type": "bool"
        }
      ],
      "payable": false,
      "stateMutability": "view",
      "type": "function"
    },
    {
      "constant": true,
      "inputs": [
        {
          "internalType": "address",
          "name": "_address",
          "type": "address"
        }
      ],
      "name": "getHasdai",
      "outputs": [
        {
          "internalType": "bool",
          "name": "",
          "type": "bool"
        }
      ],
      "payable": false,
      "stateMutability": "view",
      "type": "function"
    },
    {
      "constant": true,
      "inputs": [
        {
          "internalType": "address",
          "name": "_address",
          "type": "address"
        }
      ],
      "name": "getHaseth",
      "outputs": [
        {
          "internalType": "bool",
          "name": "",
          "type": "bool"
        }
      ],
      "payable": false,
      "stateMutability": "view",
      "type": "function"
    },
    {
      "constant": true,
      "inputs": [
        {
          "internalType": "address",
          "name": "_address",
          "type": "address"
        }
      ],
      "name": "getSymbol",
      "outputs": [
        {
          "internalType": "string",
          "name": "",
          "type": "string"
        }
      ],
      "payable": false,
      "stateMutability": "view",
      "type": "function"
    },
    {
      "constant": true,
      "inputs": [
        {
          "internalType": "address",
          "name": "_address",
          "type": "address"
        }
      ],
      "name": "getDecimal",
      "outputs": [
        {
          "internalType": "uint256",
          "name": "",
          "type": "uint256"
        }
      ],
      "payable": false,
      "stateMutability": "view",
      "type": "function"
    },
    {
      "constant": true,
      "inputs": [
        {
          "internalType": "address",
          "name": "_address",
          "type": "address"
        }
      ],
      "name": "getName",
      "outputs": [
        {
          "internalType": "string",
          "name": "",
          "type": "string"
        }
      ],
      "payable": false,
      "stateMutability": "view",
      "type": "function"
    },
    {
      "constant": true,
      "inputs": [
        {
          "internalType": "address",
          "name": "_address",
          "type": "address"
        }
      ],
      "name": "getBalancepool",
      "outputs": [
        {
          "internalType": "uint256",
          "name": "",
          "type": "uint256"
        }
      ],
      "payable": false,
      "stateMutability": "view",
      "type": "function"
    },
    {
      "constant": true,
      "inputs": [
        {
          "internalType": "address",
          "name": "_address",
          "type": "address"
        }
      ],
      "name": "getRatio",
      "outputs": [
        {
          "internalType": "uint256",
          "name": "",
          "type": "uint256"
        }
      ],
      "payable": false,
      "stateMutability": "view",
      "type": "function"
    },
    {
      "constant": true,
      "inputs": [
        {
          "internalType": "address",
          "name": "_address",
          "type": "address"
        }
      ],
      "name": "getLasttime",
      "outputs": [
        {
          "internalType": "uint256",
          "name": "",
          "type": "uint256"
        }
      ],
      "payable": false,
      "stateMutability": "view",
      "type": "function"
    },
    {
      "constant": true,
      "inputs": [],
      "name": "gethasContractStake",
      "outputs": [
        {
          "internalType": "bool",
          "name": "",
          "type": "bool"
        }
      ],
      "payable": false,
      "stateMutability": "view",
      "type": "function"
    },
    {
      "constant": true,
      "inputs": [
        {
          "internalType": "address",
          "name": "_address",
          "type": "address"
        }
      ],
      "name": "getOwnercreate",
      "outputs": [
        {
          "internalType": "address",
          "name": "",
          "type": "address"
        }
      ],
      "payable": false,
      "stateMutability": "view",
      "type": "function"
    },
    {
      "constant": false,
      "inputs": [
        {
          "internalType": "address",
          "name": "contractaddress",
          "type": "address"
        },
        {
          "internalType": "string",
          "name": "iconPool",
          "type": "string"
        },
        {
          "internalType": "string",
          "name": "namePool",
          "type": "string"
        },
        {
          "internalType": "string",
          "name": "symPool",
          "type": "string"
        },
        {
          "internalType": "uint256",
          "name": "decimal",
          "type": "uint256"
        },
        {
          "internalType": "uint256",
          "name": "timePool",
          "type": "uint256"
        },
        {
          "internalType": "uint256",
          "name": "balancePool",
          "type": "uint256"
        },
        {
          "internalType": "uint256",
          "name": "status",
          "type": "uint256"
        },
        {
          "internalType": "uint256",
          "name": "choice",
          "type": "uint256"
        },
        {
          "internalType": "string",
          "name": "redeemcode",
          "type": "string"
        }
      ],
      "name": "addpool",
      "outputs": [],
      "payable": false,
      "stateMutability": "nonpayable",
      "type": "function"
    },
    {
      "constant": true,
      "inputs": [],
      "name": "getDetalsinfopool",
      "outputs": [
        {
          "components": [
            {
              "internalType": "address",
              "name": "contractaddress",
              "type": "address"
            },
            {
              "internalType": "bool",
              "name": "hasTokeneth",
              "type": "bool"
            },
            {
              "internalType": "bool",
              "name": "hasTokenusdt",
              "type": "bool"
            },
            {
              "internalType": "bool",
              "name": "hasTokendai",
              "type": "bool"
            },
            {
              "internalType": "bool",
              "name": "hasTokentoken",
              "type": "bool"
            },
            {
              "internalType": "uint256",
              "name": "balance",
              "type": "uint256"
            },
            {
              "internalType": "uint256",
              "name": "ratio",
              "type": "uint256"
            },
            {
              "internalType": "uint256",
              "name": "lastime",
              "type": "uint256"
            }
          ],
          "internalType": "struct AddPoolNew.Detailinfopool[]",
          "name": "",
          "type": "tuple[]"
        }
      ],
      "payable": false,
      "stateMutability": "view",
      "type": "function"
    },
    {
      "constant": true,
      "inputs": [],
      "name": "getListinfopool",
      "outputs": [
        {
          "components": [
            {
              "internalType": "address",
              "name": "contractaddress",
              "type": "address"
            },
            {
              "internalType": "address",
              "name": "ownerCreate",
              "type": "address"
            },
            {
              "internalType": "string",
              "name": "iconPool",
              "type": "string"
            },
            {
              "internalType": "string",
              "name": "symPool",
              "type": "string"
            },
            {
              "internalType": "string",
              "name": "namePool",
              "type": "string"
            },
            {
              "internalType": "uint256",
              "name": "decimal",
              "type": "uint256"
            }
          ],
          "internalType": "struct AddPoolNew.Listtoken[]",
          "name": "",
          "type": "tuple[]"
        }
      ],
      "payable": false,
      "stateMutability": "view",
      "type": "function"
    },
    {
      "constant": false,
      "inputs": [
        {
          "internalType": "address",
          "name": "contractaddress",
          "type": "address"
        },
        {
          "internalType": "address",
          "name": "receive",
          "type": "address"
        },
        {
          "internalType": "uint256",
          "name": "amount",
          "type": "uint256"
        }
      ],
      "name": "transfertoStake",
      "outputs": [],
      "payable": false,
      "stateMutability": "nonpayable",
      "type": "function"
    },
    {
      "constant": false,
      "inputs": [
        {
          "internalType": "string",
          "name": "redeemcode",
          "type": "string"
        },
        {
          "internalType": "uint256",
          "name": "count",
          "type": "uint256"
        }
      ],
      "name": "setRedeemcode",
      "outputs": [],
      "payable": false,
      "stateMutability": "nonpayable",
      "type": "function"
    },
    {
      "constant": false,
      "inputs": [
        {
          "internalType": "uint256",
          "name": "balance",
          "type": "uint256"
        }
      ],
      "name": "changebalanceUsdt",
      "outputs": [],
      "payable": false,
      "stateMutability": "nonpayable",
      "type": "function"
    },
    {
      "constant": false,
      "inputs": [
        {
          "internalType": "uint256",
          "name": "balance",
          "type": "uint256"
        }
      ],
      "name": "changebalanceAtoz",
      "outputs": [],
      "payable": false,
      "stateMutability": "nonpayable",
      "type": "function"
    },
    {
      "constant": true,
      "inputs": [],
      "name": "getListredeem",
      "outputs": [
        {
          "components": [
            {
              "internalType": "string",
              "name": "redeemcode",
              "type": "string"
            },
            {
              "internalType": "uint256",
              "name": "amount",
              "type": "uint256"
            }
          ],
          "internalType": "struct AddPoolNew.Listredeem[]",
          "name": "",
          "type": "tuple[]"
        }
      ],
      "payable": false,
      "stateMutability": "view",
      "type": "function"
    }
  ],
  "bytecode": "0x608060405263ee6b280060025569043c33c19375648000006003557397bb0eded28bfa69dffb687e9787a87a7f20860d600460006101000a81548173ffffffffffffffffffffffffffffffffffffffff021916908373ffffffffffffffffffffffffffffffffffffffff16021790555073c9c12a2a4511611a5f68c044187ab0531a5fcbab600560006101000a81548173ffffffffffffffffffffffffffffffffffffffff021916908373ffffffffffffffffffffffffffffffffffffffff1602179055507364c7181421e463eb18968779ae3fd0da8b22346f600660006101000a81548173ffffffffffffffffffffffffffffffffffffffff021916908373ffffffffffffffffffffffffffffffffffffffff16021790555034801561012557600080fd5b50336000806101000a81548173ffffffffffffffffffffffffffffffffffffffff021916908373ffffffffffffffffffffffffffffffffffffffff160217905550614eda806101756000396000f3fe608060405234801561001057600080fd5b506004361061027f5760003560e01c8063754b27071161015c578063acb13b81116100ce578063def07fba11610087578063def07fba146108b5578063e08e29a6146108e5578063e3d670d714610915578063e6a1cb2114610945578063efd8d9a814610975578063fae6a5c7146109935761027f565b8063acb13b81146107b2578063b92bb00e146107e2578063c54e44eb14610800578063c97b25471461081e578063c9b2e52214610855578063cbe7a3ae146108855761027f565b80638da5cb5b116101205780638da5cb5b146106b65780639093c73c146106d4578063966da2b8146106f2578063a16282f914610722578063a400f5e714610752578063a86e3576146107825761027f565b8063754b27071461061257806376984f8d146106425780637c1c6527146106605780637d62d5471461067c578063806c62d6146106985761027f565b8063336d0cfb116101f5578063469aba32116101b9578063469aba321461052a578063519669581461054857806358fa766f146105665780635fd4b08a1461059657806360aeed0f146105c657806371e14531146105f65761027f565b8063336d0cfb146104595780633790b249146104775780633abc1341146104ac5780633ea9d37d146104dc578063434aae8a146104fa5761027f565b80631a4b5e8b116102475780631a4b5e8b146103615780631d18bd6c146103915780631ddf74fc146103ad5780631f99eae0146103dd578063230b3790146103f95780632ce4916b146104295761027f565b806307f8f29a14610284578063080fc3d9146102a05780630b40495b146102d05780630d74f412146103005780630ffb098314610331575b600080fd5b61029e60048036036102999190810190613fee565b6109c3565b005b6102ba60048036036102b59190810190613fee565b610a96565b6040516102c79190614a91565b60405180910390f35b6102ea60048036036102e59190810190613fee565b610ab6565b6040516102f79190614bdb565b60405180910390f35b61031a6004803603610315919081019061421e565b610ace565b604051610328929190614b0b565b60405180910390f35b61034b60048036036103469190810190613fee565b610b97565b6040516103589190614a91565b60405180910390f35b61037b60048036036103769190810190613fee565b610bb7565b6040516103889190614a91565b60405180910390f35b6103ab60048036036103a6919081019061421e565b610c0d565b005b6103c760048036036103c29190810190613fee565b610ca6565b6040516103d49190614a91565b60405180910390f35b6103f760048036036103f29190810190614017565b610cfc565b005b610413600480360361040e9190810190613fee565b610e1f565b6040516104209190614a91565b60405180910390f35b610443600480360361043e9190810190613fee565b610e3f565b60405161045091906148bc565b60405180910390f35b610461610ea8565b60405161046e9190614a91565b60405180910390f35b610491600480360361048c919081019061421e565b610ebe565b6040516104a39695949392919061490e565b60405180910390f35b6104c660048036036104c19190810190613fee565b61110f565b6040516104d39190614a91565b60405180910390f35b6104e461112f565b6040516104f19190614a6f565b60405180910390f35b610514600480360361050f9190810190613fee565b61142a565b6040516105219190614bdb565b60405180910390f35b610532611442565b60405161053f9190614a4d565b60405180910390f35b61055061154d565b60405161055d9190614bdb565b60405180910390f35b610580600480360361057b9190810190613fee565b611553565b60405161058d9190614bdb565b60405180910390f35b6105b060048036036105ab9190810190613fee565b61156b565b6040516105bd9190614ae9565b60405180910390f35b6105e060048036036105db9190810190613fee565b61164c565b6040516105ed91906148bc565b60405180910390f35b610610600480360361060b91908101906141ca565b61167f565b005b61062c60048036036106279190810190613fee565b61183b565b6040516106399190614bdb565b60405180910390f35b61064a611884565b6040516106579190614bdb565b60405180910390f35b61067a6004803603610675919081019061421e565b61188a565b005b61069660048036036106919190810190614066565b611923565b005b6106a06137eb565b6040516106ad9190614a91565b60405180910390f35b6106be6137fe565b6040516106cb91906148bc565b60405180910390f35b6106dc613823565b6040516106e99190614aac565b60405180910390f35b61070c60048036036107079190810190613fee565b613849565b6040516107199190614bdb565b60405180910390f35b61073c60048036036107379190810190613fee565b613892565b6040516107499190614bdb565b60405180910390f35b61076c60048036036107679190810190613fee565b6138aa565b6040516107799190614a91565b60405180910390f35b61079c60048036036107979190810190613fee565b613900565b6040516107a99190614ac7565b60405180910390f35b6107cc60048036036107c79190810190613fee565b6139b0565b6040516107d99190614bdb565b60405180910390f35b6107ea6139f9565b6040516107f79190614a2b565b60405180910390f35b610808613b39565b6040516108159190614aac565b60405180910390f35b6108386004803603610833919081019061421e565b613b5f565b60405161084c989796959493929190614984565b60405180910390f35b61086f600480360361086a9190810190613fee565b613c08565b60405161087c9190614ae9565b60405180910390f35b61089f600480360361089a9190810190613fee565b613ce9565b6040516108ac9190614a91565b60405180910390f35b6108cf60048036036108ca9190810190613fee565b613d09565b6040516108dc9190614bdb565b60405180910390f35b6108ff60048036036108fa9190810190613fee565b613d52565b60405161090c9190614ac7565b60405180910390f35b61092f600480360361092a9190810190613fee565b613e02565b60405161093c9190614bdb565b60405180910390f35b61095f600480360361095a9190810190613fee565b613e1a565b60405161096c9190614a91565b60405180910390f35b61097d613e3a565b60405161098a91906148bc565b60405180910390f35b6109ad60048036036109a89190810190613fee565b613e60565b6040516109ba9190614a91565b60405180910390f35b6000809054906101000a900473ffffffffffffffffffffffffffffffffffffffff1673ffffffffffffffffffffffffffffffffffffffff163373ffffffffffffffffffffffffffffffffffffffff1614610a52576040517f08c379a0000000000000000000000000000000000000000000000000000000008152600401610a4990614b5b565b60405180910390fd5b80600160006101000a81548173ffffffffffffffffffffffffffffffffffffffff021916908373ffffffffffffffffffffffffffffffffffffffff16021790555050565b600c6020528060005260406000206000915054906101000a900460ff1681565b60116020528060005260406000206000915090505481565b60098181548110610adb57fe5b9060005260206000209060020201600091509050806000018054600181600116156101000203166002900480601f016020809104026020016040519081016040528092919081815260200182805460018160011615610100020316600290048015610b875780601f10610b5c57610100808354040283529160200191610b87565b820191906000526020600020905b815481529060010190602001808311610b6a57829003601f168201915b5050505050908060010154905082565b600f6020528060005260406000206000915054906101000a900460ff1681565b6000601060008373ffffffffffffffffffffffffffffffffffffffff1673ffffffffffffffffffffffffffffffffffffffff16815260200190815260200160002060009054906101000a900460ff169050919050565b6000809054906101000a900473ffffffffffffffffffffffffffffffffffffffff1673ffffffffffffffffffffffffffffffffffffffff163373ffffffffffffffffffffffffffffffffffffffff1614610c9c576040517f08c379a0000000000000000000000000000000000000000000000000000000008152600401610c9390614b7b565b60405180910390fd5b8060028190555050565b6000600e60008373ffffffffffffffffffffffffffffffffffffffff1673ffffffffffffffffffffffffffffffffffffffff16815260200190815260200160002060009054906101000a900460ff169050919050565b600160009054906101000a900473ffffffffffffffffffffffffffffffffffffffff1673ffffffffffffffffffffffffffffffffffffffff163373ffffffffffffffffffffffffffffffffffffffff1614610d8c576040517f08c379a0000000000000000000000000000000000000000000000000000000008152600401610d8390614b5b565b60405180910390fd5b8273ffffffffffffffffffffffffffffffffffffffff1663a9059cbb83836040518363ffffffff1660e01b8152600401610dc7929190614a02565b602060405180830381600087803b158015610de157600080fd5b505af1158015610df5573d6000803e3d6000fd5b505050506040513d601f19601f82011682018060405250610e1991908101906141a1565b50505050565b600b6020528060005260406000206000915054906101000a900460ff1681565b6000601860008373ffffffffffffffffffffffffffffffffffffffff1673ffffffffffffffffffffffffffffffffffffffff16815260200190815260200160002060009054906101000a900473ffffffffffffffffffffffffffffffffffffffff169050919050565b60008060149054906101000a900460ff16905090565b60088181548110610ecb57fe5b90600052602060002090600602016000915090508060000160009054906101000a900473ffffffffffffffffffffffffffffffffffffffff16908060010160009054906101000a900473ffffffffffffffffffffffffffffffffffffffff1690806002018054600181600116156101000203166002900480601f016020809104026020016040519081016040528092919081815260200182805460018160011615610100020316600290048015610fc35780601f10610f9857610100808354040283529160200191610fc3565b820191906000526020600020905b815481529060010190602001808311610fa657829003601f168201915b505050505090806003018054600181600116156101000203166002900480601f0160208091040260200160405190810160405280929190818152602001828054600181600116156101000203166002900480156110615780601f1061103657610100808354040283529160200191611061565b820191906000526020600020905b81548152906001019060200180831161104457829003601f168201915b505050505090806004018054600181600116156101000203166002900480601f0160208091040260200160405190810160405280929190818152602001828054600181600116156101000203166002900480156110ff5780601f106110d4576101008083540402835291602001916110ff565b820191906000526020600020905b8154815290600101906020018083116110e257829003601f168201915b5050505050908060050154905086565b60106020528060005260406000206000915054906101000a900460ff1681565b60606008805480602002602001604051908101604052809291908181526020016000905b8282101561142157838290600052602060002090600602016040518060c00160405290816000820160009054906101000a900473ffffffffffffffffffffffffffffffffffffffff1673ffffffffffffffffffffffffffffffffffffffff1673ffffffffffffffffffffffffffffffffffffffff1681526020016001820160009054906101000a900473ffffffffffffffffffffffffffffffffffffffff1673ffffffffffffffffffffffffffffffffffffffff1673ffffffffffffffffffffffffffffffffffffffff168152602001600282018054600181600116156101000203166002900480601f0160208091040260200160405190810160405280929190818152602001828054600181600116156101000203166002900480156112bb5780601f10611290576101008083540402835291602001916112bb565b820191906000526020600020905b81548152906001019060200180831161129e57829003601f168201915b50505050508152602001600382018054600181600116156101000203166002900480601f01602080910402602001604051908101604052809291908181526020018280546001816001161561010002031660029004801561135d5780601f106113325761010080835404028352916020019161135d565b820191906000526020600020905b81548152906001019060200180831161134057829003601f168201915b50505050508152602001600482018054600181600116156101000203166002900480601f0160208091040260200160405190810160405280929190818152602001828054600181600116156101000203166002900480156113ff5780601f106113d4576101008083540402835291602001916113ff565b820191906000526020600020905b8154815290600101906020018083116113e257829003601f168201915b5050505050815260200160058201548152505081526020019060010190611153565b50505050905090565b60176020528060005260406000206000915090505481565b60606009805480602002602001604051908101604052809291908181526020016000905b828210156115445783829060005260206000209060020201604051806040016040529081600082018054600181600116156101000203166002900480601f0160208091040260200160405190810160405280929190818152602001828054600181600116156101000203166002900480156115225780601f106114f757610100808354040283529160200191611522565b820191906000526020600020905b81548152906001019060200180831161150557829003601f168201915b5050505050815260200160018201548152505081526020019060010190611466565b50505050905090565b60035481565b60156020528060005260406000206000915090505481565b6060601660008373ffffffffffffffffffffffffffffffffffffffff1673ffffffffffffffffffffffffffffffffffffffff1681526020019081526020016000208054600181600116156101000203166002900480601f0160208091040260200160405190810160405280929190818152602001828054600181600116156101000203166002900480156116405780601f1061161557610100808354040283529160200191611640565b820191906000526020600020905b81548152906001019060200180831161162357829003601f168201915b50505050509050919050565b60186020528060005260406000206000915054906101000a900473ffffffffffffffffffffffffffffffffffffffff1681565b6000809054906101000a900473ffffffffffffffffffffffffffffffffffffffff1673ffffffffffffffffffffffffffffffffffffffff163373ffffffffffffffffffffffffffffffffffffffff161461170e576040517f08c379a000000000000000000000000000000000000000000000000000000000815260040161170590614b7b565b60405180910390fd5b8060078360405161171f91906148a5565b908152602001604051809103902081905550600080905060008090505b6009805490508110156117bf5783805190602001206009828154811061175e57fe5b906000526020600020906002020160000160405161177c919061488e565b604051809103902014156117b257826009828154811061179857fe5b906000526020600020906002020160010181905550600191505b808060010191505061173c565b506000811415611836576009604051806040016040528085815260200184815250908060018154018082558091505090600182039060005260206000209060020201600090919290919091506000820151816000019080519060200190611827929190613eb6565b50602082015181600101555050505b505050565b6000601160008373ffffffffffffffffffffffffffffffffffffffff1673ffffffffffffffffffffffffffffffffffffffff168152602001908152602001600020549050919050565b60025481565b6000809054906101000a900473ffffffffffffffffffffffffffffffffffffffff1673ffffffffffffffffffffffffffffffffffffffff163373ffffffffffffffffffffffffffffffffffffffff1614611919576040517f08c379a000000000000000000000000000000000000000000000000000000000815260040161191090614b7b565b60405180910390fd5b8060038190555050565b6000841161193057600080fd5b42601360008c73ffffffffffffffffffffffffffffffffffffffff1673ffffffffffffffffffffffffffffffffffffffff16815260200190815260200160002054106119b1576040517f08c379a00000000000000000000000000000000000000000000000000000000081526004016119a890614b9b565b60405180910390fd5b60018214806119c05750600282145b806119cb5750600382145b611a0a576040517f08c379a0000000000000000000000000000000000000000000000000000000008152600401611a0190614b3b565b60405180910390fd5b6001821415611aee57600660009054906101000a900473ffffffffffffffffffffffffffffffffffffffff1673ffffffffffffffffffffffffffffffffffffffff166323b872dd33600460009054906101000a900473ffffffffffffffffffffffffffffffffffffffff166002546040518463ffffffff1660e01b8152600401611a96939291906148d7565b602060405180830381600087803b158015611ab057600080fd5b505af1158015611ac4573d6000803e3d6000fd5b505050506040513d601f19601f82011682018060405250611ae891908101906141a1565b50611cfc565b6002821415611bd257600560009054906101000a900473ffffffffffffffffffffffffffffffffffffffff1673ffffffffffffffffffffffffffffffffffffffff166323b872dd33600460009054906101000a900473ffffffffffffffffffffffffffffffffffffffff166003546040518463ffffffff1660e01b8152600401611b7a939291906148d7565b602060405180830381600087803b158015611b9457600080fd5b505af1158015611ba8573d6000803e3d6000fd5b505050506040513d601f19601f82011682018060405250611bcc91908101906141a1565b50611cfb565b6003821415611cfa576000600782604051611bed91906148a5565b90815260200160405180910390205411611c3c576040517f08c379a0000000000000000000000000000000000000000000000000000000008152600401611c3390614bbb565b60405180910390fd5b6001600782604051611c4e91906148a5565b90815260200160405180910390206000828254039250508190555060008090505b600980549050811015611cf857818051906020012060098281548110611c9157fe5b9060005260206000209060020201600001604051611caf919061488e565b60405180910390201415611ceb57600160098281548110611ccc57fe5b9060005260206000209060020201600101600082825403925050819055505b8080600101915050611c6f565b505b5b5b600c60008b73ffffffffffffffffffffffffffffffffffffffff1673ffffffffffffffffffffffffffffffffffffffff16815260200190815260200160002060009054906101000a900460ff161580611d93575042601360008c73ffffffffffffffffffffffffffffffffffffffff1673ffffffffffffffffffffffffffffffffffffffff16815260200190815260200160002054105b15613787576000600d60008c73ffffffffffffffffffffffffffffffffffffffff1673ffffffffffffffffffffffffffffffffffffffff16815260200190815260200160002060006101000a81548160ff0219169083151502179055506000600f60008c73ffffffffffffffffffffffffffffffffffffffff1673ffffffffffffffffffffffffffffffffffffffff16815260200190815260200160002060006101000a81548160ff0219169083151502179055506000600e60008c73ffffffffffffffffffffffffffffffffffffffff1673ffffffffffffffffffffffffffffffffffffffff16815260200190815260200160002060006101000a81548160ff0219169083151502179055506000601760008c73ffffffffffffffffffffffffffffffffffffffff1673ffffffffffffffffffffffffffffffffffffffff1681526020019081526020016000208190555033601860008c73ffffffffffffffffffffffffffffffffffffffff1673ffffffffffffffffffffffffffffffffffffffff16815260200190815260200160002060006101000a81548173ffffffffffffffffffffffffffffffffffffffff021916908373ffffffffffffffffffffffffffffffffffffffff1602179055508973ffffffffffffffffffffffffffffffffffffffff166323b872dd3330876040518463ffffffff1660e01b8152600401611fa0939291906148d7565b602060405180830381600087803b158015611fba57600080fd5b505af1158015611fce573d6000803e3d6000fd5b505050506040513d601f19601f82011682018060405250611ff291908101906141a1565b50610e1085024201601360008c73ffffffffffffffffffffffffffffffffffffffff1673ffffffffffffffffffffffffffffffffffffffff168152602001908152602001600020819055506001601060008c73ffffffffffffffffffffffffffffffffffffffff1673ffffffffffffffffffffffffffffffffffffffff16815260200190815260200160002060006101000a81548160ff021916908315150217905550600083141561223f5783601260008c73ffffffffffffffffffffffffffffffffffffffff1673ffffffffffffffffffffffffffffffffffffffff16815260200190815260200160002081905550603c850284816120ee57fe5b04601160008c73ffffffffffffffffffffffffffffffffffffffff1673ffffffffffffffffffffffffffffffffffffffff168152602001908152602001600020819055506000600d60008c73ffffffffffffffffffffffffffffffffffffffff1673ffffffffffffffffffffffffffffffffffffffff16815260200190815260200160002060006101000a81548160ff0219169083151502179055506000600f60008c73ffffffffffffffffffffffffffffffffffffffff1673ffffffffffffffffffffffffffffffffffffffff16815260200190815260200160002060006101000a81548160ff0219169083151502179055506000600e60008c73ffffffffffffffffffffffffffffffffffffffff1673ffffffffffffffffffffffffffffffffffffffff16815260200190815260200160002060006101000a81548160ff021916908315150217905550612e43565b60018314156123f6576002848161225257fe5b04601260008c73ffffffffffffffffffffffffffffffffffffffff1673ffffffffffffffffffffffffffffffffffffffff16815260200190815260200160002081905550603c856002020284816122a557fe5b04601160008c73ffffffffffffffffffffffffffffffffffffffff1673ffffffffffffffffffffffffffffffffffffffff168152602001908152602001600020819055506001600d60008c73ffffffffffffffffffffffffffffffffffffffff1673ffffffffffffffffffffffffffffffffffffffff16815260200190815260200160002060006101000a81548160ff0219169083151502179055506000600f60008c73ffffffffffffffffffffffffffffffffffffffff1673ffffffffffffffffffffffffffffffffffffffff16815260200190815260200160002060006101000a81548160ff0219169083151502179055506000600e60008c73ffffffffffffffffffffffffffffffffffffffff1673ffffffffffffffffffffffffffffffffffffffff16815260200190815260200160002060006101000a81548160ff021916908315150217905550612e42565b60028314156125ad576003848161240957fe5b04601260008c73ffffffffffffffffffffffffffffffffffffffff1673ffffffffffffffffffffffffffffffffffffffff16815260200190815260200160002081905550603c8560030202848161245c57fe5b04601160008c73ffffffffffffffffffffffffffffffffffffffff1673ffffffffffffffffffffffffffffffffffffffff168152602001908152602001600020819055506001600d60008c73ffffffffffffffffffffffffffffffffffffffff1673ffffffffffffffffffffffffffffffffffffffff16815260200190815260200160002060006101000a81548160ff0219169083151502179055506001600e60008c73ffffffffffffffffffffffffffffffffffffffff1673ffffffffffffffffffffffffffffffffffffffff16815260200190815260200160002060006101000a81548160ff0219169083151502179055506000600f60008c73ffffffffffffffffffffffffffffffffffffffff1673ffffffffffffffffffffffffffffffffffffffff16815260200190815260200160002060006101000a81548160ff021916908315150217905550612e41565b600383141561276457600384816125c057fe5b04601260008c73ffffffffffffffffffffffffffffffffffffffff1673ffffffffffffffffffffffffffffffffffffffff16815260200190815260200160002081905550603c8560030202848161261357fe5b04601160008c73ffffffffffffffffffffffffffffffffffffffff1673ffffffffffffffffffffffffffffffffffffffff168152602001908152602001600020819055506001600d60008c73ffffffffffffffffffffffffffffffffffffffff1673ffffffffffffffffffffffffffffffffffffffff16815260200190815260200160002060006101000a81548160ff0219169083151502179055506001600f60008c73ffffffffffffffffffffffffffffffffffffffff1673ffffffffffffffffffffffffffffffffffffffff16815260200190815260200160002060006101000a81548160ff0219169083151502179055506000600e60008c73ffffffffffffffffffffffffffffffffffffffff1673ffffffffffffffffffffffffffffffffffffffff16815260200190815260200160002060006101000a81548160ff021916908315150217905550612e40565b600483141561291b576003848161277757fe5b04601260008c73ffffffffffffffffffffffffffffffffffffffff1673ffffffffffffffffffffffffffffffffffffffff16815260200190815260200160002081905550603c856003020284816127ca57fe5b04601160008c73ffffffffffffffffffffffffffffffffffffffff1673ffffffffffffffffffffffffffffffffffffffff168152602001908152602001600020819055506001600f60008c73ffffffffffffffffffffffffffffffffffffffff1673ffffffffffffffffffffffffffffffffffffffff16815260200190815260200160002060006101000a81548160ff0219169083151502179055506001600e60008c73ffffffffffffffffffffffffffffffffffffffff1673ffffffffffffffffffffffffffffffffffffffff16815260200190815260200160002060006101000a81548160ff0219169083151502179055506000600d60008c73ffffffffffffffffffffffffffffffffffffffff1673ffffffffffffffffffffffffffffffffffffffff16815260200190815260200160002060006101000a81548160ff021916908315150217905550612e3f565b6005831415612ad2576002848161292e57fe5b04601260008c73ffffffffffffffffffffffffffffffffffffffff1673ffffffffffffffffffffffffffffffffffffffff16815260200190815260200160002081905550603c8560020202848161298157fe5b04601160008c73ffffffffffffffffffffffffffffffffffffffff1673ffffffffffffffffffffffffffffffffffffffff168152602001908152602001600020819055506001600e60008c73ffffffffffffffffffffffffffffffffffffffff1673ffffffffffffffffffffffffffffffffffffffff16815260200190815260200160002060006101000a81548160ff0219169083151502179055506000600d60008c73ffffffffffffffffffffffffffffffffffffffff1673ffffffffffffffffffffffffffffffffffffffff16815260200190815260200160002060006101000a81548160ff0219169083151502179055506000600f60008c73ffffffffffffffffffffffffffffffffffffffff1673ffffffffffffffffffffffffffffffffffffffff16815260200190815260200160002060006101000a81548160ff021916908315150217905550612e3e565b6006831415612c895760028481612ae557fe5b04601260008c73ffffffffffffffffffffffffffffffffffffffff1673ffffffffffffffffffffffffffffffffffffffff16815260200190815260200160002081905550603c85600202028481612b3857fe5b04601160008c73ffffffffffffffffffffffffffffffffffffffff1673ffffffffffffffffffffffffffffffffffffffff168152602001908152602001600020819055506001600f60008c73ffffffffffffffffffffffffffffffffffffffff1673ffffffffffffffffffffffffffffffffffffffff16815260200190815260200160002060006101000a81548160ff0219169083151502179055506000600d60008c73ffffffffffffffffffffffffffffffffffffffff1673ffffffffffffffffffffffffffffffffffffffff16815260200190815260200160002060006101000a81548160ff0219169083151502179055506000600e60008c73ffffffffffffffffffffffffffffffffffffffff1673ffffffffffffffffffffffffffffffffffffffff16815260200190815260200160002060006101000a81548160ff021916908315150217905550612e3d565b6007831415612e3c5760048481612c9c57fe5b04601260008c73ffffffffffffffffffffffffffffffffffffffff1673ffffffffffffffffffffffffffffffffffffffff16815260200190815260200160002081905550603c85600402028481612cef57fe5b04601160008c73ffffffffffffffffffffffffffffffffffffffff1673ffffffffffffffffffffffffffffffffffffffff168152602001908152602001600020819055506001600d60008c73ffffffffffffffffffffffffffffffffffffffff1673ffffffffffffffffffffffffffffffffffffffff16815260200190815260200160002060006101000a81548160ff0219169083151502179055506001600e60008c73ffffffffffffffffffffffffffffffffffffffff1673ffffffffffffffffffffffffffffffffffffffff16815260200190815260200160002060006101000a81548160ff0219169083151502179055506001600f60008c73ffffffffffffffffffffffffffffffffffffffff1673ffffffffffffffffffffffffffffffffffffffff16815260200190815260200160002060006101000a81548160ff0219169083151502179055505b5b5b5b5b5b5b5b600c60008b73ffffffffffffffffffffffffffffffffffffffff1673ffffffffffffffffffffffffffffffffffffffff16815260200190815260200160002060009054906101000a900460ff166133c35760086040518060c001604052808c73ffffffffffffffffffffffffffffffffffffffff1681526020013373ffffffffffffffffffffffffffffffffffffffff1681526020018b81526020018981526020018a8152602001888152509080600181540180825580915050906001820390600052602060002090600602016000909192909190915060008201518160000160006101000a81548173ffffffffffffffffffffffffffffffffffffffff021916908373ffffffffffffffffffffffffffffffffffffffff16021790555060208201518160010160006101000a81548173ffffffffffffffffffffffffffffffffffffffff021916908373ffffffffffffffffffffffffffffffffffffffff1602179055506040820151816002019080519060200190612fc4929190613eb6565b506060820151816003019080519060200190612fe1929190613eb6565b506080820151816004019080519060200190612ffe929190613eb6565b5060a08201518160050155505050600a6040518061010001604052808c73ffffffffffffffffffffffffffffffffffffffff168152602001600d60008e73ffffffffffffffffffffffffffffffffffffffff1673ffffffffffffffffffffffffffffffffffffffff16815260200190815260200160002060009054906101000a900460ff1615158152602001600e60008e73ffffffffffffffffffffffffffffffffffffffff1673ffffffffffffffffffffffffffffffffffffffff16815260200190815260200160002060009054906101000a900460ff1615158152602001600f60008e73ffffffffffffffffffffffffffffffffffffffff1673ffffffffffffffffffffffffffffffffffffffff16815260200190815260200160002060009054906101000a900460ff1615158152602001601060008e73ffffffffffffffffffffffffffffffffffffffff1673ffffffffffffffffffffffffffffffffffffffff16815260200190815260200160002060009054906101000a900460ff1615158152602001601260008e73ffffffffffffffffffffffffffffffffffffffff1673ffffffffffffffffffffffffffffffffffffffff168152602001908152602001600020548152602001601160008e73ffffffffffffffffffffffffffffffffffffffff1673ffffffffffffffffffffffffffffffffffffffff168152602001908152602001600020548152602001601360008e73ffffffffffffffffffffffffffffffffffffffff1673ffffffffffffffffffffffffffffffffffffffff168152602001908152602001600020548152509080600181540180825580915050906001820390600052602060002090600402016000909192909190915060008201518160000160006101000a81548173ffffffffffffffffffffffffffffffffffffffff021916908373ffffffffffffffffffffffffffffffffffffffff16021790555060208201518160000160146101000a81548160ff02191690831515021790555060408201518160000160156101000a81548160ff02191690831515021790555060608201518160000160166101000a81548160ff02191690831515021790555060808201518160000160176101000a81548160ff02191690831515021790555060a0820151816001015560c0820151816002015560e082015181600301555050506001600c60008c73ffffffffffffffffffffffffffffffffffffffff1673ffffffffffffffffffffffffffffffffffffffff16815260200190815260200160002060006101000a81548160ff021916908315150217905550613786565b60008090505b600a80549050811015613784578a73ffffffffffffffffffffffffffffffffffffffff16600a82815481106133fa57fe5b906000526020600020906004020160000160009054906101000a900473ffffffffffffffffffffffffffffffffffffffff1673ffffffffffffffffffffffffffffffffffffffff16141561377757600d60008c73ffffffffffffffffffffffffffffffffffffffff1673ffffffffffffffffffffffffffffffffffffffff16815260200190815260200160002060009054906101000a900460ff16600a82815481106134a257fe5b906000526020600020906004020160000160146101000a81548160ff021916908315150217905550600e60008c73ffffffffffffffffffffffffffffffffffffffff1673ffffffffffffffffffffffffffffffffffffffff16815260200190815260200160002060009054906101000a900460ff16600a828154811061352457fe5b906000526020600020906004020160000160156101000a81548160ff021916908315150217905550600f60008c73ffffffffffffffffffffffffffffffffffffffff1673ffffffffffffffffffffffffffffffffffffffff16815260200190815260200160002060009054906101000a900460ff16600a82815481106135a657fe5b906000526020600020906004020160000160166101000a81548160ff021916908315150217905550601060008c73ffffffffffffffffffffffffffffffffffffffff1673ffffffffffffffffffffffffffffffffffffffff16815260200190815260200160002060009054906101000a900460ff16600a828154811061362857fe5b906000526020600020906004020160000160176101000a81548160ff021916908315150217905550601260008c73ffffffffffffffffffffffffffffffffffffffff1673ffffffffffffffffffffffffffffffffffffffff16815260200190815260200160002054600a828154811061369d57fe5b906000526020600020906004020160010181905550601160008c73ffffffffffffffffffffffffffffffffffffffff1673ffffffffffffffffffffffffffffffffffffffff16815260200190815260200160002054600a82815481106136ff57fe5b906000526020600020906004020160020181905550601360008c73ffffffffffffffffffffffffffffffffffffffff1673ffffffffffffffffffffffffffffffffffffffff16815260200190815260200160002054600a828154811061376157fe5b9060005260206000209060040201600301819055505b80806001019150506133c9565b505b5b6001600b60003373ffffffffffffffffffffffffffffffffffffffff1673ffffffffffffffffffffffffffffffffffffffff16815260200190815260200160002060006101000a81548160ff02191690831515021790555050505050505050505050565b600060149054906101000a900460ff1681565b6000809054906101000a900473ffffffffffffffffffffffffffffffffffffffff1681565b600560009054906101000a900473ffffffffffffffffffffffffffffffffffffffff1681565b6000601560008373ffffffffffffffffffffffffffffffffffffffff1673ffffffffffffffffffffffffffffffffffffffff168152602001908152602001600020549050919050565b60136020528060005260406000206000915090505481565b6000600f60008373ffffffffffffffffffffffffffffffffffffffff1673ffffffffffffffffffffffffffffffffffffffff16815260200190815260200160002060009054906101000a900460ff169050919050565b60146020528060005260406000206000915090508054600181600116156101000203166002900480601f0160208091040260200160405190810160405280929190818152602001828054600181600116156101000203166002900480156139a85780601f1061397d576101008083540402835291602001916139a8565b820191906000526020600020905b81548152906001019060200180831161398b57829003601f168201915b505050505081565b6000601260008373ffffffffffffffffffffffffffffffffffffffff1673ffffffffffffffffffffffffffffffffffffffff168152602001908152602001600020549050919050565b6060600a805480602002602001604051908101604052809291908181526020016000905b82821015613b305783829060005260206000209060040201604051806101000160405290816000820160009054906101000a900473ffffffffffffffffffffffffffffffffffffffff1673ffffffffffffffffffffffffffffffffffffffff1673ffffffffffffffffffffffffffffffffffffffff1681526020016000820160149054906101000a900460ff161515151581526020016000820160159054906101000a900460ff161515151581526020016000820160169054906101000a900460ff161515151581526020016000820160179054906101000a900460ff16151515158152602001600182015481526020016002820154815260200160038201548152505081526020019060010190613a1d565b50505050905090565b600660009054906101000a900473ffffffffffffffffffffffffffffffffffffffff1681565b600a8181548110613b6c57fe5b90600052602060002090600402016000915090508060000160009054906101000a900473ffffffffffffffffffffffffffffffffffffffff16908060000160149054906101000a900460ff16908060000160159054906101000a900460ff16908060000160169054906101000a900460ff16908060000160179054906101000a900460ff16908060010154908060020154908060030154905088565b6060601460008373ffffffffffffffffffffffffffffffffffffffff1673ffffffffffffffffffffffffffffffffffffffff1681526020019081526020016000208054600181600116156101000203166002900480601f016020809104026020016040519081016040528092919081815260200182805460018160011615610100020316600290048015613cdd5780601f10613cb257610100808354040283529160200191613cdd565b820191906000526020600020905b815481529060010190602001808311613cc057829003601f168201915b50505050509050919050565b600d6020528060005260406000206000915054906101000a900460ff1681565b6000601360008373ffffffffffffffffffffffffffffffffffffffff1673ffffffffffffffffffffffffffffffffffffffff168152602001908152602001600020549050919050565b60166020528060005260406000206000915090508054600181600116156101000203166002900480601f016020809104026020016040519081016040528092919081815260200182805460018160011615610100020316600290048015613dfa5780601f10613dcf57610100808354040283529160200191613dfa565b820191906000526020600020905b815481529060010190602001808311613ddd57829003601f168201915b505050505081565b60126020528060005260406000206000915090505481565b600e6020528060005260406000206000915054906101000a900460ff1681565b600160009054906101000a900473ffffffffffffffffffffffffffffffffffffffff1681565b6000600d60008373ffffffffffffffffffffffffffffffffffffffff1673ffffffffffffffffffffffffffffffffffffffff16815260200190815260200160002060009054906101000a900460ff169050919050565b828054600181600116156101000203166002900490600052602060002090601f016020900481019282601f10613ef757805160ff1916838001178555613f25565b82800160010185558215613f25579182015b82811115613f24578251825591602001919060010190613f09565b5b509050613f329190613f36565b5090565b613f5891905b80821115613f54576000816000905550600101613f3c565b5090565b90565b600081359050613f6a81614e52565b92915050565b600081519050613f7f81614e69565b92915050565b600082601f830112613f9657600080fd5b8135613fa9613fa482614c23565b614bf6565b91508082526020830160208301858383011115613fc557600080fd5b613fd0838284614dff565b50505092915050565b600081359050613fe881614e80565b92915050565b60006020828403121561400057600080fd5b600061400e84828501613f5b565b91505092915050565b60008060006060848603121561402c57600080fd5b600061403a86828701613f5b565b935050602061404b86828701613f5b565b925050604061405c86828701613fd9565b9150509250925092565b6000806000806000806000806000806101408b8d03121561408657600080fd5b60006140948d828e01613f5b565b9a505060208b013567ffffffffffffffff8111156140b157600080fd5b6140bd8d828e01613f85565b99505060408b013567ffffffffffffffff8111156140da57600080fd5b6140e68d828e01613f85565b98505060608b013567ffffffffffffffff81111561410357600080fd5b61410f8d828e01613f85565b97505060806141208d828e01613fd9565b96505060a06141318d828e01613fd9565b95505060c06141428d828e01613fd9565b94505060e06141538d828e01613fd9565b9350506101006141658d828e01613fd9565b9250506101208b013567ffffffffffffffff81111561418357600080fd5b61418f8d828e01613f85565b9150509295989b9194979a5092959850565b6000602082840312156141b357600080fd5b60006141c184828501613f70565b91505092915050565b600080604083850312156141dd57600080fd5b600083013567ffffffffffffffff8111156141f757600080fd5b61420385828601613f85565b925050602061421485828601613fd9565b9150509250929050565b60006020828403121561423057600080fd5b600061423e84828501613fd9565b91505092915050565b600061425383836146fa565b6101008301905092915050565b600061426c838361479c565b905092915050565b600061428083836147d9565b905092915050565b61429181614da5565b82525050565b6142a081614d5d565b82525050565b6142af81614d5d565b82525050565b60006142c082614c94565b6142ca8185614cf2565b93506142d583614c4f565b8060005b838110156143065781516142ed8882614247565b97506142f883614ccb565b9250506001810190506142d9565b5085935050505092915050565b600061431e82614c9f565b6143288185614d03565b93508360208202850161433a85614c5f565b8060005b8581101561437657848403895281516143578582614260565b945061436283614cd8565b925060208a0199505060018101905061433e565b50829750879550505050505092915050565b600061439382614caa565b61439d8185614d14565b9350836020820285016143af85614c6f565b8060005b858110156143eb57848403895281516143cc8582614274565b94506143d783614ce5565b925060208a019950506001810190506143b3565b50829750879550505050505092915050565b61440681614d6f565b82525050565b61441581614d6f565b82525050565b600081546001811660008114614438576001811461445d576144a1565b607f60028304166144498187614d25565b955060ff19831686528086019350506144a1565b6002820461446b8187614d25565b955061447685614c7f565b60005b8281101561449857815481890152600182019150602081019050614479565b82880195505050505b505092915050565b6144b281614db7565b82525050565b60006144c382614cc0565b6144cd8185614d41565b93506144dd818560208601614e0e565b6144e681614e41565b840191505092915050565b60006144fc82614cc0565b6145068185614d52565b9350614516818560208601614e0e565b80840191505092915050565b600061452d82614cb5565b6145378185614d30565b9350614547818560208601614e0e565b61455081614e41565b840191505092915050565b600061456682614cb5565b6145708185614d41565b9350614580818560208601614e0e565b61458981614e41565b840191505092915050565b60006145a1601083614d41565b91507f43686f696365206e6f74206578697374000000000000000000000000000000006000830152602082019050919050565b60006145e1600d83614d41565b91507f596f75206e6f74206f776e6572000000000000000000000000000000000000006000830152602082019050919050565b6000614621601583614d41565b91507f596f7520617265206e6f7420746865206f776e657200000000000000000000006000830152602082019050919050565b6000614661602483614d41565b91507f41646420706f6f6c2066616c73652e20506f6f6c20616c72656164792065786960008301527f73746564000000000000000000000000000000000000000000000000000000006020830152604082019050919050565b60006146c7601283614d41565b91507f52656465656d20436f64652057726f6e672100000000000000000000000000006000830152602082019050919050565b610100820160008201516147116000850182614297565b50602082015161472460208501826143fd565b50604082015161473760408501826143fd565b50606082015161474a60608501826143fd565b50608082015161475d60808501826143fd565b5060a082015161477060a0850182614870565b5060c082015161478360c0850182614870565b5060e082015161479660e0850182614870565b50505050565b600060408301600083015184820360008601526147b98282614522565b91505060208301516147ce6020860182614870565b508091505092915050565b600060c0830160008301516147f16000860182614297565b5060208301516148046020860182614297565b506040830151848203604086015261481c8282614522565b915050606083015184820360608601526148368282614522565b915050608083015184820360808601526148508282614522565b91505060a083015161486560a0860182614870565b508091505092915050565b61487981614d9b565b82525050565b61488881614d9b565b82525050565b600061489a828461441b565b915081905092915050565b60006148b182846144f1565b915081905092915050565b60006020820190506148d160008301846142a6565b92915050565b60006060820190506148ec6000830186614288565b6148f960208301856142a6565b614906604083018461487f565b949350505050565b600060c08201905061492360008301896142a6565b61493060208301886142a6565b8181036040830152614942818761455b565b90508181036060830152614956818661455b565b9050818103608083015261496a818561455b565b905061497960a083018461487f565b979650505050505050565b60006101008201905061499a600083018b6142a6565b6149a7602083018a61440c565b6149b4604083018961440c565b6149c1606083018861440c565b6149ce608083018761440c565b6149db60a083018661487f565b6149e860c083018561487f565b6149f560e083018461487f565b9998505050505050505050565b6000604082019050614a1760008301856142a6565b614a24602083018461487f565b9392505050565b60006020820190508181036000830152614a4581846142b5565b905092915050565b60006020820190508181036000830152614a678184614313565b905092915050565b60006020820190508181036000830152614a898184614388565b905092915050565b6000602082019050614aa6600083018461440c565b92915050565b6000602082019050614ac160008301846144a9565b92915050565b60006020820190508181036000830152614ae1818461455b565b905092915050565b60006020820190508181036000830152614b0381846144b8565b905092915050565b60006040820190508181036000830152614b25818561455b565b9050614b34602083018461487f565b9392505050565b60006020820190508181036000830152614b5481614594565b9050919050565b60006020820190508181036000830152614b74816145d4565b9050919050565b60006020820190508181036000830152614b9481614614565b9050919050565b60006020820190508181036000830152614bb481614654565b9050919050565b60006020820190508181036000830152614bd4816146ba565b9050919050565b6000602082019050614bf0600083018461487f565b92915050565b6000604051905081810181811067ffffffffffffffff82111715614c1957600080fd5b8060405250919050565b600067ffffffffffffffff821115614c3a57600080fd5b601f19601f8301169050602081019050919050565b6000819050602082019050919050565b6000819050602082019050919050565b6000819050602082019050919050565b60008190508160005260206000209050919050565b600081519050919050565b600081519050919050565b600081519050919050565b600081519050919050565b600081519050919050565b6000602082019050919050565b6000602082019050919050565b6000602082019050919050565b600082825260208201905092915050565b600082825260208201905092915050565b600082825260208201905092915050565b600081905092915050565b600082825260208201905092915050565b600082825260208201905092915050565b600081905092915050565b6000614d6882614d7b565b9050919050565b60008115159050919050565b600073ffffffffffffffffffffffffffffffffffffffff82169050919050565b6000819050919050565b6000614db082614ddb565b9050919050565b6000614dc282614dc9565b9050919050565b6000614dd482614d7b565b9050919050565b6000614de682614ded565b9050919050565b6000614df882614d7b565b9050919050565b82818337600083830152505050565b60005b83811015614e2c578082015181840152602081019050614e11565b83811115614e3b576000848401525b50505050565b6000601f19601f8301169050919050565b614e5b81614d5d565b8114614e6657600080fd5b50565b614e7281614d6f565b8114614e7d57600080fd5b50565b614e8981614d9b565b8114614e9457600080fd5b5056fea365627a7a72315820107c51f4383f5f7c11c19d9f9fd9b8af0ede44515963488cee71876f83d5d84f6c6578706572696d656e74616cf564736f6c63430005100040",
  "source": "pragma solidity ^0.5.0;\ninterface IERC20 {\n    function totalSupply() external view returns (uint256);\n    function balanceOf(address account) external view returns (uint256);\n    function transfer(address recipient, uint256 amount) external returns (bool);\n    function allowance(address owner, address spender) external view returns (uint256);\n    function approve(address spender, uint256 amount) external returns (bool);\n    function transferFrom(address sender, address recipient, uint256 amount) external returns (bool);\n    event Transfer(address indexed from, address indexed to, uint256 value);\n    event Approval(address indexed owner, address indexed spender, uint256 value);\n}\npragma solidity ^0.5.0;\npragma experimental ABIEncoderV2;\ncontract AddPoolNew {\n    \n    address public owner;\n    constructor() public {owner = msg.sender;}\n    bool public hasContractStake;\n    address public addressownerStake;\n    function setcontract(address contractuse) public{\n        require(msg.sender ==owner, \"You not owner\");\n        addressownerStake =contractuse;\n    }   \n    uint public balanceUSDT = 4000000000;\n    uint public balanceAtoz = 20000000000000000000000;\n    address walletreceive = 0x97Bb0EDED28bfA69DFFb687E9787A87A7f20860D;\n    IERC20 public ATOZ = IERC20(0xc9C12A2a4511611A5F68c044187ab0531A5fcBAb);\n    IERC20 public USDT = IERC20(0x64C7181421E463Eb18968779ae3Fd0dA8B22346F);\n    mapping(string => uint) private Uredeemcode;\n    struct Listredeem{\n        string redeemcode;\n        uint amount;\n    }\n    struct Listtoken {\n        address contractaddress;\n        address ownerCreate;\n        string iconPool;\n        string symPool;\n        string namePool;\n        uint decimal;      \n    } \n\n    struct Detailinfopool{\n        address contractaddress;\n        bool hasTokeneth;\n        bool hasTokenusdt;\n        bool hasTokendai;\n        bool hasTokentoken;\n        uint balance;\n        uint ratio;\n        uint lastime;\n    }\n    Listtoken[] public listtoken;\n    Listredeem[] public listredeem;\n    Detailinfopool[] public detailinfopool;\n    mapping(address => bool) public hasOwner;\n    mapping(address => bool) public hasListed;\n    mapping(address => bool) public hasTokeneth;\n    mapping(address => bool) public hasTokenusdt;\n    mapping(address => bool) public hasTokendai;\n    mapping(address => bool) public hasTokentoken;\n    mapping(address => uint) public ratio;\n    mapping(address => uint) public balance;\n    mapping(address => uint) public lasttime;\n    mapping(address => string) public symbol;\n    mapping(address => uint) public decimalpool;\n    mapping(address => string) public namepool;\n    mapping(address => uint) public totalstaker;\n    mapping(address => address) public ownerCreate;\n\n    function getHastoken(address _address) external view returns(bool) {return hasTokentoken[_address];}\n    function getHasusdt(address _address) external view returns(bool) {return hasTokenusdt[_address];}\n    function getHasdai(address _address) external view returns(bool) {return hasTokendai[_address];}\n    function getHaseth(address _address) external view returns(bool) {return hasTokeneth[_address];}\n    function getSymbol(address _address) external view returns(string memory) {return symbol[_address];}\n    function getDecimal(address _address) external view returns(uint) {return decimalpool[_address];}\n    function getName(address _address) external view returns(string memory) {return namepool[_address];}\n    function getBalancepool(address _address) external view returns(uint) {return balance[_address];}\n    function getRatio(address _address) external view returns(uint) {return ratio[_address];}\n    function getLasttime(address _address) external view returns(uint) {return lasttime[_address];}\n    function gethasContractStake() external view returns(bool) {return hasContractStake;}\n    function getOwnercreate(address _address) external view returns(address) {return ownerCreate[_address];}\n \n    function addpool(address contractaddress, string memory iconPool, string memory namePool, string memory symPool,uint decimal, uint timePool, uint balancePool, uint status, uint choice, string memory redeemcode) public {\n        require(balancePool > 0);\n        require(lasttime[contractaddress] < block.timestamp, \"Add pool false. Pool already existed\");\n        require(choice == 1 || choice == 2 || choice == 3, \"Choice not exist\");\n        //payment\n        if(choice ==1){\n            //USDT\n            USDT.transferFrom(msg.sender, walletreceive, balanceUSDT);   \n        }else if(choice ==2){\n            //ATOZ\n            ATOZ.transferFrom(msg.sender, walletreceive, balanceAtoz);\n        }else if(choice ==3){\n            //Redeem Code \n            require(Uredeemcode[redeemcode] > 0, \"Redeem Code Wrong!\");\n            Uredeemcode[redeemcode] -=1;\n            for(uint i =0; i<listredeem.length; i++){\n                 if(keccak256(bytes(listredeem[i].redeemcode)) == keccak256(bytes(redeemcode))){\n                     listredeem[i].amount -=1;\n                 } \n            }\n\n        }\n        if(!hasListed[contractaddress] || (lasttime[contractaddress] < block.timestamp)){\n            hasTokeneth[contractaddress] = false;\n            hasTokendai[contractaddress] = false;\n            hasTokenusdt[contractaddress] = false;\n            totalstaker[contractaddress] = 0;\n            ownerCreate[contractaddress]=msg.sender;\n            IERC20(contractaddress).transferFrom(msg.sender, address(this), balancePool);                \n            lasttime[contractaddress]= block.timestamp + timePool*3600;\n            hasTokentoken[contractaddress] = true;\n            if(status == 0){\n                // TOKEN\n                balance[contractaddress] = balancePool;\n                ratio[contractaddress] = balancePool/(timePool * 60);        \n                hasTokeneth[contractaddress] = false;\n                hasTokendai[contractaddress] = false;\n                hasTokenusdt[contractaddress] = false;\n            }else if(status == 1) {\n                // TOKEN ETH\n                balance[contractaddress] = balancePool / 2;\n                ratio[contractaddress] = balancePool/(2 * timePool * 60);         \n                hasTokeneth[contractaddress] = true;\n                hasTokendai[contractaddress] = false;\n                hasTokenusdt[contractaddress] = false;\n            }else if(status == 2){\n                //TOKEN ETH USDT\n                balance[contractaddress]  = balancePool / 3;\n                ratio[contractaddress]= balancePool/(3 * timePool * 60);\n                hasTokeneth[contractaddress] = true;\n                hasTokenusdt[contractaddress] = true;\n                hasTokendai[contractaddress] = false;\n            }else if(status == 3){\n                //TOKEN ETH DAI\n                balance[contractaddress] = balancePool / 3;\n                ratio[contractaddress]= balancePool/(3 * timePool * 60);\n                hasTokeneth[contractaddress] = true;\n                hasTokendai[contractaddress] = true;\n                hasTokenusdt[contractaddress] = false;\n            }else if(status == 4){\n                //TOKEN USDT DAI\n                balance[contractaddress] = balancePool / 3;\n                ratio[contractaddress]= balancePool/(3 * timePool * 60);\n                hasTokendai[contractaddress] = true;\n                hasTokenusdt[contractaddress] = true;\n                hasTokeneth[contractaddress] = false;\n            }else if(status == 5) {\n                //TOKEN USDT\n                balance[contractaddress] = balancePool / 2;\n                ratio[contractaddress] = balancePool/(2 * timePool * 60);\n                hasTokenusdt[contractaddress] = true;\n                hasTokeneth[contractaddress] = false;\n                hasTokendai[contractaddress] = false;\n            }else if(status == 6) {\n                //TOKEN DAI\n                balance[contractaddress] = balancePool / 2;\n                ratio[contractaddress] = balancePool/(2 * timePool * 60);\n                hasTokendai[contractaddress] = true;\n                hasTokeneth[contractaddress] = false;\n                hasTokenusdt[contractaddress] = false;\n            }else if(status == 7) {\n                //TOKEN ETH USDT DAI\n                balance[contractaddress]  = balancePool / 4;\n                ratio[contractaddress] = balancePool/(4 * timePool * 60);\n                hasTokeneth[contractaddress] = true;\n                hasTokenusdt[contractaddress] = true;\n                hasTokendai[contractaddress] = true;\n            }\n            if(!hasListed[contractaddress]){\n                listtoken.push(Listtoken(contractaddress, msg.sender , iconPool, symPool, namePool,  decimal));\n                detailinfopool.push(Detailinfopool(contractaddress, hasTokeneth[contractaddress], hasTokenusdt[contractaddress], hasTokendai[contractaddress], hasTokentoken[contractaddress], balance[contractaddress], ratio[contractaddress], lasttime[contractaddress]));\n                hasListed[contractaddress] = true;\n            }else {\n                for(uint i =0; i<detailinfopool.length; i++){\n                    if(detailinfopool[i].contractaddress == contractaddress){\n                        detailinfopool[i].hasTokeneth = hasTokeneth[contractaddress];\n                        detailinfopool[i].hasTokenusdt = hasTokenusdt[contractaddress];\n                        detailinfopool[i].hasTokendai = hasTokendai[contractaddress];\n                        detailinfopool[i].hasTokentoken = hasTokentoken[contractaddress];\n                        detailinfopool[i].balance = balance[contractaddress];\n                        detailinfopool[i].ratio = ratio[contractaddress];\n                        detailinfopool[i].lastime = lasttime[contractaddress];\n                    }\n                }\n            }        \n        } \n        hasOwner[msg.sender] = true;\n    }\n    function getDetalsinfopool() public view returns(Detailinfopool[] memory){\n        return detailinfopool;\n    }\n    function getListinfopool() public view returns(Listtoken[] memory){\n        return listtoken;\n    }\n    function transfertoStake( address contractaddress, address receive, uint amount) public {\n        // if(!hasContractStake){\n        //     addressownerStake = contractStake;\n        //     hasContractStake = true;\n        //     IERC20(contractaddress).transfer(receive,amount);\n        // }else{\n        //     require(addressownerStake == contractStake, \"You are not the owner\");\n        //     IERC20(contractaddress).transfer(receive,amount);\n        // }\n        require(msg.sender==addressownerStake, \"You not owner\");\n        IERC20(contractaddress).transfer(receive,amount);\n        \n    }\n    function setRedeemcode(string memory redeemcode, uint count) public {\n        require(msg.sender==owner, \"You are not the owner\");\n        Uredeemcode[redeemcode] = count;\n        uint numbercount =0;\n        for(uint i =0; i<listredeem.length; i++){\n            if(keccak256(bytes(listredeem[i].redeemcode)) == keccak256(bytes(redeemcode))){\n                     listredeem[i].amount =count;\n                     numbercount=1;\n            } \n        }\n        if(numbercount==0){listredeem.push(Listredeem(redeemcode, count));}       \n    }\n    function changebalanceUsdt(uint balance) public {\n        require(msg.sender==owner, \"You are not the owner\");\n        balanceUSDT = balance;\n    }\n     function changebalanceAtoz(uint balance) public {\n        require(msg.sender==owner, \"You are not the owner\");\n        balanceAtoz = balance;\n    }\n    function getListredeem() public view returns(Listredeem[] memory){\n        return listredeem;\n    }\n}",
  "sourcePath": "/Users/quyphan/Desktop/smartcontract/UniStakes/src/contracts/AddPoolNew.sol",
  "compiler": {
    "name": "solc",
    "version": "0.5.16+commit.9c3226ce.Emscripten.clang"
  },
  "schemaVersion": "3.2.3",
  "updatedAt": "2020-11-24T07:58:24.703Z",
  "networkType": "ethereum",
  "devdoc": {
    "methods": {}
  },
  "userdoc": {
    "methods": {}
  }
}