{
  "contractName": "Admin",
  "abi": [
    {
      "inputs": [],
      "payable": false,
      "stateMutability": "nonpayable",
      "type": "constructor"
    },
    {
      "constant": true,
      "inputs": [],
      "name": "owner",
      "outputs": [
        {
          "internalType": "address",
          "name": "",
          "type": "address"
        }
      ],
      "payable": false,
      "stateMutability": "view",
      "type": "function"
    },
    {
      "constant": false,
      "inputs": [
        {
          "internalType": "string",
          "name": "redeemcode",
          "type": "string"
        },
        {
          "internalType": "uint256",
          "name": "count",
          "type": "uint256"
        }
      ],
      "name": "setRedeemcode",
      "outputs": [],
      "payable": false,
      "stateMutability": "nonpayable",
      "type": "function"
    },
    {
      "constant": false,
      "inputs": [
        {
          "internalType": "uint256",
          "name": "balance",
          "type": "uint256"
        }
      ],
      "name": "changebalanceUsdt",
      "outputs": [],
      "payable": false,
      "stateMutability": "nonpayable",
      "type": "function"
    },
    {
      "constant": false,
      "inputs": [
        {
          "internalType": "uint256",
          "name": "balance",
          "type": "uint256"
        }
      ],
      "name": "changebalanceAtoz",
      "outputs": [],
      "payable": false,
      "stateMutability": "nonpayable",
      "type": "function"
    }
  ],
  "bytecode": "0x608060405263ee6b280060015569043c33c193756480000060025534801561002657600080fd5b50336000806101000a81548173ffffffffffffffffffffffffffffffffffffffff021916908373ffffffffffffffffffffffffffffffffffffffff1602179055506104e2806100766000396000f3fe608060405234801561001057600080fd5b506004361061004c5760003560e01c80631d18bd6c1461005157806371e145311461007f5780637c1c6527146101445780638da5cb5b14610172575b600080fd5b61007d6004803603602081101561006757600080fd5b81019080803590602001909291905050506101bc565b005b6101426004803603604081101561009557600080fd5b81019080803590602001906401000000008111156100b257600080fd5b8201836020820111156100c457600080fd5b803590602001918460018302840111640100000000831117156100e657600080fd5b91908080601f016020809104026020016040519081016040528093929190818152602001838380828437600081840152601f19601f82011690508083019250505050505050919291929080359060200190929190505050610288565b005b6101706004803603602081101561015a57600080fd5b81019080803590602001909291905050506103bc565b005b61017a610488565b604051808273ffffffffffffffffffffffffffffffffffffffff1673ffffffffffffffffffffffffffffffffffffffff16815260200191505060405180910390f35b6000809054906101000a900473ffffffffffffffffffffffffffffffffffffffff1673ffffffffffffffffffffffffffffffffffffffff163373ffffffffffffffffffffffffffffffffffffffff161461027e576040517f08c379a00000000000000000000000000000000000000000000000000000000081526004018080602001828103825260158152602001807f596f7520617265206e6f7420746865206f776e6572000000000000000000000081525060200191505060405180910390fd5b8060018190555050565b6000809054906101000a900473ffffffffffffffffffffffffffffffffffffffff1673ffffffffffffffffffffffffffffffffffffffff163373ffffffffffffffffffffffffffffffffffffffff161461034a576040517f08c379a00000000000000000000000000000000000000000000000000000000081526004018080602001828103825260158152602001807f596f7520617265206e6f7420746865206f776e6572000000000000000000000081525060200191505060405180910390fd5b806003836040518082805190602001908083835b60208310610381578051825260208201915060208101905060208303925061035e565b6001836020036101000a0380198251168184511680821785525050505050509050019150509081526020016040518091039020819055505050565b6000809054906101000a900473ffffffffffffffffffffffffffffffffffffffff1673ffffffffffffffffffffffffffffffffffffffff163373ffffffffffffffffffffffffffffffffffffffff161461047e576040517f08c379a00000000000000000000000000000000000000000000000000000000081526004018080602001828103825260158152602001807f596f7520617265206e6f7420746865206f776e6572000000000000000000000081525060200191505060405180910390fd5b8060028190555050565b6000809054906101000a900473ffffffffffffffffffffffffffffffffffffffff168156fea265627a7a723158201f781556ce0b9cf332a3e1a128182cb9a4b4df4c0fea0013ab42068589890b9164736f6c63430005100032",
  "source": "pragma solidity ^0.5.0;\ncontract Admin {\n    address public owner;\n    constructor() public {owner = msg.sender;}\n    uint balanceUSDT = 4000000000;\n    uint balanceAtoz = 20000000000000000000000;\n    mapping(string => uint) private Uredeemcode;\n     \n    function setRedeemcode(string memory redeemcode, uint count) public {\n        require(msg.sender==owner, \"You are not the owner\");\n        Uredeemcode[redeemcode] = count;\n    }\n\n    function changebalanceUsdt(uint balance) public {\n        require(msg.sender==owner, \"You are not the owner\");\n        balanceUSDT = balance;\n    }\n    \n     function changebalanceAtoz(uint balance) public {\n        require(msg.sender==owner, \"You are not the owner\");\n        balanceAtoz = balance;\n    }\n}",
  "sourcePath": "/Users/quyphan/Desktop/smartcontract/UniStakes/src/contracts/Admin.sol",
  "compiler": {
    "name": "solc",
    "version": "0.5.16+commit.9c3226ce.Emscripten.clang"
  },
  "schemaVersion": "3.2.3",
  "updatedAt": "2020-11-18T02:32:31.929Z",
  "devdoc": {
    "methods": {}
  },
  "userdoc": {
    "methods": {}
  }
}