{
  "contractName": "AtozPool",
  "abi": [
    {
      "constant": true,
      "inputs": [],
      "name": "ATOZ",
      "outputs": [
        {
          "internalType": "contract IERC20",
          "name": "",
          "type": "address"
        }
      ],
      "payable": false,
      "stateMutability": "view",
      "type": "function"
    },
    {
      "constant": true,
      "inputs": [],
      "name": "balancepool",
      "outputs": [
        {
          "internalType": "uint256",
          "name": "",
          "type": "uint256"
        }
      ],
      "payable": false,
      "stateMutability": "view",
      "type": "function"
    },
    {
      "constant": true,
      "inputs": [],
      "name": "hasContract",
      "outputs": [
        {
          "internalType": "bool",
          "name": "",
          "type": "bool"
        }
      ],
      "payable": false,
      "stateMutability": "view",
      "type": "function"
    },
    {
      "constant": true,
      "inputs": [
        {
          "internalType": "address",
          "name": "",
          "type": "address"
        }
      ],
      "name": "hasUser",
      "outputs": [
        {
          "internalType": "bool",
          "name": "",
          "type": "bool"
        }
      ],
      "payable": false,
      "stateMutability": "view",
      "type": "function"
    },
    {
      "constant": true,
      "inputs": [],
      "name": "lastimeadd",
      "outputs": [
        {
          "internalType": "uint256",
          "name": "",
          "type": "uint256"
        }
      ],
      "payable": false,
      "stateMutability": "view",
      "type": "function"
    },
    {
      "constant": true,
      "inputs": [],
      "name": "ratioadd",
      "outputs": [
        {
          "internalType": "uint256",
          "name": "",
          "type": "uint256"
        }
      ],
      "payable": false,
      "stateMutability": "view",
      "type": "function"
    },
    {
      "constant": true,
      "inputs": [
        {
          "internalType": "uint256",
          "name": "",
          "type": "uint256"
        }
      ],
      "name": "stakeuser",
      "outputs": [
        {
          "internalType": "address",
          "name": "stakers",
          "type": "address"
        },
        {
          "internalType": "uint256",
          "name": "amount",
          "type": "uint256"
        },
        {
          "internalType": "uint256",
          "name": "timeCreate",
          "type": "uint256"
        },
        {
          "internalType": "string",
          "name": "status",
          "type": "string"
        }
      ],
      "payable": false,
      "stateMutability": "view",
      "type": "function"
    },
    {
      "constant": true,
      "inputs": [],
      "name": "totalpoolAtoz",
      "outputs": [
        {
          "internalType": "uint256",
          "name": "",
          "type": "uint256"
        }
      ],
      "payable": false,
      "stateMutability": "view",
      "type": "function"
    },
    {
      "constant": true,
      "inputs": [
        {
          "internalType": "uint256",
          "name": "",
          "type": "uint256"
        }
      ],
      "name": "userstaking",
      "outputs": [
        {
          "internalType": "address",
          "name": "stakers",
          "type": "address"
        },
        {
          "internalType": "uint256",
          "name": "ratiotoken",
          "type": "uint256"
        },
        {
          "internalType": "uint256",
          "name": "totalstakeUser",
          "type": "uint256"
        },
        {
          "internalType": "uint256",
          "name": "totalpool",
          "type": "uint256"
        },
        {
          "internalType": "uint256",
          "name": "timestake",
          "type": "uint256"
        },
        {
          "internalType": "uint256",
          "name": "totalreward",
          "type": "uint256"
        }
      ],
      "payable": false,
      "stateMutability": "view",
      "type": "function"
    },
    {
      "constant": false,
      "inputs": [
        {
          "internalType": "uint256",
          "name": "amount",
          "type": "uint256"
        }
      ],
      "name": "stake",
      "outputs": [],
      "payable": true,
      "stateMutability": "payable",
      "type": "function"
    },
    {
      "constant": false,
      "inputs": [],
      "name": "unstake",
      "outputs": [],
      "payable": false,
      "stateMutability": "nonpayable",
      "type": "function"
    },
    {
      "constant": true,
      "inputs": [],
      "name": "getStakeuser",
      "outputs": [
        {
          "components": [
            {
              "internalType": "address",
              "name": "stakers",
              "type": "address"
            },
            {
              "internalType": "uint256",
              "name": "amount",
              "type": "uint256"
            },
            {
              "internalType": "uint256",
              "name": "timeCreate",
              "type": "uint256"
            },
            {
              "internalType": "string",
              "name": "status",
              "type": "string"
            }
          ],
          "internalType": "struct AtozPool.Stakeuser[]",
          "name": "",
          "type": "tuple[]"
        }
      ],
      "payable": false,
      "stateMutability": "view",
      "type": "function"
    },
    {
      "constant": true,
      "inputs": [],
      "name": "getUserstaking",
      "outputs": [
        {
          "components": [
            {
              "internalType": "address",
              "name": "stakers",
              "type": "address"
            },
            {
              "internalType": "uint256",
              "name": "ratiotoken",
              "type": "uint256"
            },
            {
              "internalType": "uint256",
              "name": "totalstakeUser",
              "type": "uint256"
            },
            {
              "internalType": "uint256",
              "name": "totalpool",
              "type": "uint256"
            },
            {
              "internalType": "uint256",
              "name": "timestake",
              "type": "uint256"
            },
            {
              "internalType": "uint256",
              "name": "totalreward",
              "type": "uint256"
            }
          ],
          "internalType": "struct AtozPool.Userstaking[]",
          "name": "",
          "type": "tuple[]"
        }
      ],
      "payable": false,
      "stateMutability": "view",
      "type": "function"
    }
  ],
  "bytecode": "0x608060405269d3c21bcecceda10000006000556360015d8960015573c9c12a2a4511611a5f68c044187ab0531a5fcbab600260006101000a81548173ffffffffffffffffffffffffffffffffffffffff021916908373ffffffffffffffffffffffffffffffffffffffff160217905550603c42600154038161007d57fe5b046000548161008857fe5b04600355600060075534801561009d57600080fd5b50611f72806100ad6000396000f3fe6080604052600436106100c25760003560e01c80639093c73c1161007f578063a694fc3a11610059578063a694fc3a1461024b578063a6c4ec0e14610267578063ccea2065146102a4578063e8003031146102cf576100c2565b80639093c73c146101ca5780639aab350a146101f5578063a1507db714610220576100c2565b80632def6620146100c757806330292b69146100de578063434b4f8c1461010957806346a11d01146101495780635f527bf61461017457806380b080a71461019f575b600080fd5b3480156100d357600080fd5b506100dc610311565b005b3480156100ea57600080fd5b506100f3610bbd565b6040516101009190611d4a565b60405180910390f35b34801561011557600080fd5b50610130600480360361012b9190810190611822565b610bc3565b6040516101409493929190611be3565b60405180910390f35b34801561015557600080fd5b5061015e610cb8565b60405161016b9190611c90565b60405180910390f35b34801561018057600080fd5b50610189610e23565b6040516101969190611d4a565b60405180910390f35b3480156101ab57600080fd5b506101b4610e29565b6040516101c19190611cd4565b60405180910390f35b3480156101d657600080fd5b506101df610e3c565b6040516101ec9190611cef565b60405180910390f35b34801561020157600080fd5b5061020a610e62565b6040516102179190611d4a565b60405180910390f35b34801561022c57600080fd5b50610235610e68565b6040516102429190611d4a565b60405180910390f35b61026560048036036102609190810190611822565b610e6e565b005b34801561027357600080fd5b5061028e600480360361028991908101906117d0565b61157c565b60405161029b9190611cd4565b60405180910390f35b3480156102b057600080fd5b506102b961159c565b6040516102c69190611cb2565b60405180910390f35b3480156102db57600080fd5b506102f660048036036102f19190810190611822565b611683565b60405161030896959493929190611c2f565b60405180910390f35b600080905060008090506000809050600080905060008090506000809050600080600090505b60058054905081101561044c573373ffffffffffffffffffffffffffffffffffffffff166005828154811061036857fe5b906000526020600020906006020160000160009054906101000a900473ffffffffffffffffffffffffffffffffffffffff1673ffffffffffffffffffffffffffffffffffffffff16141561043f57600581815481106103c357fe5b9060005260206000209060060201600201549550600581815481106103e457fe5b90600052602060002090600602016005015494506005818154811061040557fe5b90600052602060002090600602016004015493506005818154811061042657fe5b9060005260206000209060060201600101549250600196505b8080600101915050610337565b506000851161045a57600080fd5b42600154111561071f57603c83420383028161047257fe5b048401965060008090505b60058054905081101561071957603c6005828154811061049957fe5b9060005260206000209060060201600401544203600583815481106104ba57fe5b90600052602060002090600602016001015402816104d457fe5b04600582815481106104e257fe5b906000526020600020906006020160050160008282540192505081905550426005828154811061050e57fe5b906000526020600020906006020160040181905550856005828154811061053157fe5b9060005260206000209060060201600301600082825403925050819055506005818154811061055c57fe5b906000526020600020906006020160030154915060006005828154811061057f57fe5b90600052602060002090600602016003015414156105c0576000600582815481106105a657fe5b90600052602060002090600602016001018190555061062d565b600581815481106105cd57fe5b906000526020600020906006020160030154600582815481106105ec57fe5b906000526020600020906006020160020154600354028161060957fe5b046005828154811061061757fe5b9060005260206000209060060201600101819055505b3373ffffffffffffffffffffffffffffffffffffffff166005828154811061065157fe5b906000526020600020906006020160000160009054906101000a900473ffffffffffffffffffffffffffffffffffffffff1673ffffffffffffffffffffffffffffffffffffffff16141561070c576000600582815481106106ae57fe5b9060005260206000209060060201600501819055506000600582815481106106d257fe5b9060005260206000209060060201600201819055506000600582815481106106f657fe5b9060005260206000209060060201600101819055505b808060010191505061047d565b506109dc565b603c836001540383028161072f57fe5b048401965060008090505b6005805490508110156109da57603c6005828154811061075657fe5b906000526020600020906006020160040154600154036005838154811061077957fe5b906000526020600020906006020160010154028161079357fe5b04600582815481106107a157fe5b906000526020600020906006020160050160008282540192505081905550600154600582815481106107cf57fe5b90600052602060002090600602016004018190555085600582815481106107f257fe5b9060005260206000209060060201600301600082825403925050819055506005818154811061081d57fe5b906000526020600020906006020160030154915060006005828154811061084057fe5b90600052602060002090600602016003015414156108815760006005828154811061086757fe5b9060005260206000209060060201600101819055506108ee565b6005818154811061088e57fe5b906000526020600020906006020160030154600582815481106108ad57fe5b90600052602060002090600602016002015460035402816108ca57fe5b04600582815481106108d857fe5b9060005260206000209060060201600101819055505b3373ffffffffffffffffffffffffffffffffffffffff166005828154811061091257fe5b906000526020600020906006020160000160009054906101000a900473ffffffffffffffffffffffffffffffffffffffff1673ffffffffffffffffffffffffffffffffffffffff1614156109cd5760006005828154811061096f57fe5b90600052602060002090600602016005018190555060006005828154811061099357fe5b9060005260206000209060060201600201819055506000600582815481106109b757fe5b9060005260206000209060060201600101819055505b808060010191505061073a565b505b600260009054906101000a900473ffffffffffffffffffffffffffffffffffffffff1673ffffffffffffffffffffffffffffffffffffffff1663a9059cbb33878a016040518363ffffffff1660e01b8152600401610a3b929190611bba565b602060405180830381600087803b158015610a5557600080fd5b505af1158015610a69573d6000803e3d6000fd5b505050506040513d601f19601f82011682018060405250610a8d91908101906117f9565b50600460405180608001604052803373ffffffffffffffffffffffffffffffffffffffff168152602001878a0181526020014281526020016040518060400160405280600881526020017f57697468647261770000000000000000000000000000000000000000000000008152508152509080600181540180825580915050906001820390600052602060002090600402016000909192909190915060008201518160000160006101000a81548173ffffffffffffffffffffffffffffffffffffffff021916908373ffffffffffffffffffffffffffffffffffffffff16021790555060208201518160010155604082015181600201556060820151816003019080519060200190610ba09291906116ec565b505050508460076000828254039250508190555050505050505050565b60015481565b60048181548110610bd057fe5b90600052602060002090600402016000915090508060000160009054906101000a900473ffffffffffffffffffffffffffffffffffffffff1690806001015490806002015490806003018054600181600116156101000203166002900480601f016020809104026020016040519081016040528092919081815260200182805460018160011615610100020316600290048015610cae5780601f10610c8357610100808354040283529160200191610cae565b820191906000526020600020905b815481529060010190602001808311610c9157829003601f168201915b5050505050905084565b60606004805480602002602001604051908101604052809291908181526020016000905b82821015610e1a57838290600052602060002090600402016040518060800160405290816000820160009054906101000a900473ffffffffffffffffffffffffffffffffffffffff1673ffffffffffffffffffffffffffffffffffffffff1673ffffffffffffffffffffffffffffffffffffffff1681526020016001820154815260200160028201548152602001600382018054600181600116156101000203166002900480601f016020809104026020016040519081016040528092919081815260200182805460018160011615610100020316600290048015610e025780601f10610dd757610100808354040283529160200191610e02565b820191906000526020600020905b815481529060010190602001808311610de557829003601f168201915b50505050508152505081526020019060010190610cdc565b50505050905090565b60035481565b600660009054906101000a900460ff1681565b600260009054906101000a900473ffffffffffffffffffffffffffffffffffffffff1681565b60075481565b60005481565b6001544210610eb2576040517f08c379a0000000000000000000000000000000000000000000000000000000008152600401610ea990611d0a565b60405180910390fd5b60008111610ef5576040517f08c379a0000000000000000000000000000000000000000000000000000000008152600401610eec90611d2a565b60405180910390fd5b6000600260009054906101000a900473ffffffffffffffffffffffffffffffffffffffff1673ffffffffffffffffffffffffffffffffffffffff166323b872dd3330856040518463ffffffff1660e01b8152600401610f5693929190611b83565b602060405180830381600087803b158015610f7057600080fd5b505af1158015610f84573d6000803e3d6000fd5b505050506040513d601f19601f82011682018060405250610fa891908101906117f9565b5060008090506000809050600660009054906101000a900460ff166110d65760056040518060c001604052803373ffffffffffffffffffffffffffffffffffffffff168152602001600354815260200186815260200186815260200142815260200160008152509080600181540180825580915050906001820390600052602060002090600602016000909192909190915060008201518160000160006101000a81548173ffffffffffffffffffffffffffffffffffffffff021916908373ffffffffffffffffffffffffffffffffffffffff1602179055506020820151816001015560408201518160020155606082015181600301556080820151816004015560a082015181600501555050506001600660006101000a81548160ff0219169083151502179055506113fa565b60008090505b6005805490508110156112f1576000603c600583815481106110fa57fe5b90600052602060002090600602016004015442038161111557fe5b049050426005838154811061112657fe5b9060005260206000209060060201600401819055506005828154811061114857fe5b90600052602060002090600602016001015481026005838154811061116957fe5b906000526020600020906006020160050160008282540192505081905550856005838154811061119557fe5b906000526020600020906006020160030160008282540192505081905550600582815481106111c057fe5b90600052602060002090600602016003015494503373ffffffffffffffffffffffffffffffffffffffff16600583815481106111f857fe5b906000526020600020906006020160000160009054906101000a900473ffffffffffffffffffffffffffffffffffffffff1673ffffffffffffffffffffffffffffffffffffffff16141561127757856005838154811061125457fe5b906000526020600020906006020160020160008282540192505081905550600193505b6005828154811061128457fe5b906000526020600020906006020160030154600583815481106112a357fe5b90600052602060002090600602016002015460035402816112c057fe5b04600583815481106112ce57fe5b9060005260206000209060060201600101819055505080806001019150506110dc565b5060008214156113f9578284600354028161130857fe5b04905060056040518060c001604052803373ffffffffffffffffffffffffffffffffffffffff16815260200183815260200186815260200185815260200142815260200160008152509080600181540180825580915050906001820390600052602060002090600602016000909192909190915060008201518160000160006101000a81548173ffffffffffffffffffffffffffffffffffffffff021916908373ffffffffffffffffffffffffffffffffffffffff1602179055506020820151816001015560408201518160020155606082015181600301556080820151816004015560a082015181600501555050505b5b600460405180608001604052803373ffffffffffffffffffffffffffffffffffffffff1681526020018681526020014281526020016040518060400160405280600581526020017f5374616b650000000000000000000000000000000000000000000000000000008152508152509080600181540180825580915050906001820390600052602060002090600402016000909192909190915060008201518160000160006101000a81548173ffffffffffffffffffffffffffffffffffffffff021916908373ffffffffffffffffffffffffffffffffffffffff1602179055506020820151816001015560408201518160020155606082015181600301908051906020019061150a9291906116ec565b50505050836007600082825401925050819055506001600860003373ffffffffffffffffffffffffffffffffffffffff1673ffffffffffffffffffffffffffffffffffffffff16815260200190815260200160002060006101000a81548160ff02191690831515021790555050505050565b60086020528060005260406000206000915054906101000a900460ff1681565b60606005805480602002602001604051908101604052809291908181526020016000905b8282101561167a57838290600052602060002090600602016040518060c00160405290816000820160009054906101000a900473ffffffffffffffffffffffffffffffffffffffff1673ffffffffffffffffffffffffffffffffffffffff1673ffffffffffffffffffffffffffffffffffffffff16815260200160018201548152602001600282015481526020016003820154815260200160048201548152602001600582015481525050815260200190600101906115c0565b50505050905090565b6005818154811061169057fe5b90600052602060002090600602016000915090508060000160009054906101000a900473ffffffffffffffffffffffffffffffffffffffff16908060010154908060020154908060030154908060040154908060050154905086565b828054600181600116156101000203166002900490600052602060002090601f016020900481019282601f1061172d57805160ff191683800117855561175b565b8280016001018555821561175b579182015b8281111561175a57825182559160200191906001019061173f565b5b509050611768919061176c565b5090565b61178e91905b8082111561178a576000816000905550600101611772565b5090565b90565b6000813590506117a081611eea565b92915050565b6000815190506117b581611f01565b92915050565b6000813590506117ca81611f18565b92915050565b6000602082840312156117e257600080fd5b60006117f084828501611791565b91505092915050565b60006020828403121561180b57600080fd5b6000611819848285016117a6565b91505092915050565b60006020828403121561183457600080fd5b6000611842848285016117bb565b91505092915050565b60006118578383611a87565b905092915050565b600061186b8383611aea565b60c08301905092915050565b61188081611e4c565b82525050565b61188f81611e04565b82525050565b61189e81611e04565b82525050565b60006118af82611d85565b6118b98185611dc0565b9350836020820285016118cb85611d65565b8060005b8581101561190757848403895281516118e8858261184b565b94506118f383611da6565b925060208a019950506001810190506118cf565b50829750879550505050505092915050565b600061192482611d90565b61192e8185611dd1565b935061193983611d75565b8060005b8381101561196a578151611951888261185f565b975061195c83611db3565b92505060018101905061193d565b5085935050505092915050565b61198081611e16565b82525050565b61198f81611e5e565b82525050565b60006119a082611d9b565b6119aa8185611de2565b93506119ba818560208601611ea6565b6119c381611ed9565b840191505092915050565b60006119d982611d9b565b6119e38185611df3565b93506119f3818560208601611ea6565b6119fc81611ed9565b840191505092915050565b6000611a14600a83611df3565b91507f506f6f6c20436c6f7365000000000000000000000000000000000000000000006000830152602082019050919050565b6000611a54601283611df3565b91507f616d6f756e742063616e6e6f74206265203000000000000000000000000000006000830152602082019050919050565b6000608083016000830151611a9f6000860182611886565b506020830151611ab26020860182611b65565b506040830151611ac56040860182611b65565b5060608301518482036060860152611add8282611995565b9150508091505092915050565b60c082016000820151611b006000850182611886565b506020820151611b136020850182611b65565b506040820151611b266040850182611b65565b506060820151611b396060850182611b65565b506080820151611b4c6080850182611b65565b5060a0820151611b5f60a0850182611b65565b50505050565b611b6e81611e42565b82525050565b611b7d81611e42565b82525050565b6000606082019050611b986000830186611877565b611ba56020830185611895565b611bb26040830184611b74565b949350505050565b6000604082019050611bcf6000830185611877565b611bdc6020830184611b74565b9392505050565b6000608082019050611bf86000830187611895565b611c056020830186611b74565b611c126040830185611b74565b8181036060830152611c2481846119ce565b905095945050505050565b600060c082019050611c446000830189611895565b611c516020830188611b74565b611c5e6040830187611b74565b611c6b6060830186611b74565b611c786080830185611b74565b611c8560a0830184611b74565b979650505050505050565b60006020820190508181036000830152611caa81846118a4565b905092915050565b60006020820190508181036000830152611ccc8184611919565b905092915050565b6000602082019050611ce96000830184611977565b92915050565b6000602082019050611d046000830184611986565b92915050565b60006020820190508181036000830152611d2381611a07565b9050919050565b60006020820190508181036000830152611d4381611a47565b9050919050565b6000602082019050611d5f6000830184611b74565b92915050565b6000819050602082019050919050565b6000819050602082019050919050565b600081519050919050565b600081519050919050565b600081519050919050565b6000602082019050919050565b6000602082019050919050565b600082825260208201905092915050565b600082825260208201905092915050565b600082825260208201905092915050565b600082825260208201905092915050565b6000611e0f82611e22565b9050919050565b60008115159050919050565b600073ffffffffffffffffffffffffffffffffffffffff82169050919050565b6000819050919050565b6000611e5782611e82565b9050919050565b6000611e6982611e70565b9050919050565b6000611e7b82611e22565b9050919050565b6000611e8d82611e94565b9050919050565b6000611e9f82611e22565b9050919050565b60005b83811015611ec4578082015181840152602081019050611ea9565b83811115611ed3576000848401525b50505050565b6000601f19601f8301169050919050565b611ef381611e04565b8114611efe57600080fd5b50565b611f0a81611e16565b8114611f1557600080fd5b50565b611f2181611e42565b8114611f2c57600080fd5b5056fea365627a7a72315820328b093f352dfe2292490c4dff5310219853337fb1d28503415fef8cdd70444e6c6578706572696d656e74616cf564736f6c63430005100040",
  "source": "pragma solidity ^0.5.0;\ninterface IERC20 {\n    function totalSupply() external view returns (uint256);\n    function balanceOf(address account) external view returns (uint256);\n    function transfer(address recipient, uint256 amount) external returns (bool);\n    function allowance(address owner, address spender) external view returns (uint256);\n    function approve(address spender, uint256 amount) external returns (bool);\n    function transferFrom(address sender, address recipient, uint256 amount) external returns (bool);\n    event Transfer(address indexed from, address indexed to, uint256 value);\n    event Approval(address indexed owner, address indexed spender, uint256 value);\n}\npragma solidity ^0.5.0; \npragma experimental ABIEncoderV2;\ncontract AtozPool {\n    uint public balancepool = 1000000000000000000000000;\n    uint public lastimeadd = 1610702217;\n    // Ropsten\n    IERC20 public ATOZ = IERC20(0xc9C12A2a4511611A5F68c044187ab0531A5fcBAb);\n    // Ganache\n    // IERC20 public ATOZ = IERC20(0x21bA376cBDDc1a79EBF4ba7Ba74b6f13BF6983e2);\n    // Day 15-11-2020: 1605431817\n    // Day 15-1-2021: 1610702217\n    uint public ratioadd = balancepool / ((lastimeadd - block.timestamp) /60);\n    struct Stakeuser {\n        address stakers;\n        uint amount;\n        uint timeCreate;\n        string status;\n    } \n     // Struc user staking + total stake and total pool\n    struct Userstaking {\n        address stakers;\n        uint ratiotoken;\n        uint totalstakeUser;\n        uint totalpool;\n        uint timestake;\n        uint totalreward;\n    }\n    Stakeuser[] public stakeuser;\n    Userstaking[] public userstaking;\n    bool public hasContract;\n    uint public totalpoolAtoz = 0;\n    mapping(address => bool) public hasUser;\n    function stake(uint amount) public payable{\n        require(block.timestamp < lastimeadd, \"Pool Close\");\n        require(amount > 0, \"amount cannot be 0\");\n        uint balancepoolstake;\n        ATOZ.transferFrom(msg.sender, address(this), amount);\n        uint checkStaker = 0;\n        uint ratioFirst = 0;\n        if(!hasContract){\n           userstaking.push(Userstaking(msg.sender, ratioadd, amount, amount, block.timestamp, 0)) ;\n           hasContract = true;\n        }else{\n            for(uint i =0; i<userstaking.length; i++){            \n                    uint timestakeold = (block.timestamp - userstaking[i].timestake) / 60;\n                    userstaking[i].timestake = block.timestamp;\n                    userstaking[i].totalreward += timestakeold * userstaking[i].ratiotoken;\n                    userstaking[i].totalpool += amount;  \n                    balancepoolstake = userstaking[i].totalpool;\n                    if(userstaking[i].stakers == msg.sender) {\n                        userstaking[i].totalstakeUser += amount;\n                        checkStaker = 1;\n                    }\n                    userstaking[i].ratiotoken = ratioadd * userstaking[i].totalstakeUser / userstaking[i].totalpool;            \n            }\n\n            if(checkStaker == 0){\n                ratioFirst = ratioadd * amount / balancepoolstake;\n                userstaking.push(Userstaking(msg.sender, ratioFirst, amount, balancepoolstake, block.timestamp, 0));\n                \n            }\n        }\n        stakeuser.push(Stakeuser( msg.sender, amount, block.timestamp, \"Stake\"));\n        totalpoolAtoz += amount;\n        hasUser[msg.sender]=true;\n    }\n           \n    function unstake() public {\n        uint totalwithdraw = 0;\n        uint checkwithdraw =0;\n        uint totalamount = 0;\n        uint totalrewardunstake = 0;\n        uint timeunstake =0;\n        uint ratiounstake=0;\n        uint balancepoolunstake;\n        for(uint i =0; i<userstaking.length; i++) {\n            if(userstaking[i].stakers == msg.sender) {\n                totalamount = userstaking[i].totalstakeUser;\n                totalrewardunstake = userstaking[i].totalreward;\n                timeunstake =  userstaking[i].timestake;\n                ratiounstake = userstaking[i].ratiotoken;\n                checkwithdraw=1;\n            }\n        }\n        require(totalamount > 0);\n         if(lastimeadd > block.timestamp) {\n             totalwithdraw = totalrewardunstake + ratiounstake*(block.timestamp - timeunstake)/60;            \n            for(uint j =0; j<userstaking.length; j++) {\n                    userstaking[j].totalreward += userstaking[j].ratiotoken * (block.timestamp - userstaking[j].timestake) / 60;\n                    userstaking[j].timestake = block.timestamp;\n                    userstaking[j].totalpool -= totalamount;\n                    balancepoolunstake = userstaking[j].totalpool;\n                    // balancestakeeth[contractAddress] = userstaking[j].totalpool;\n                    if(userstaking[j].totalpool ==0) {\n                        userstaking[j].ratiotoken =0;\n                    }else {\n                        userstaking[j].ratiotoken = ratioadd * userstaking[j].totalstakeUser / userstaking[j].totalpool;\n                    }\n                    \n                    if(userstaking[j].stakers == msg.sender) {\n                        userstaking[j].totalreward = 0;\n                        userstaking[j].totalstakeUser = 0;\n                        userstaking[j].ratiotoken =0;\n                    }               \n            }\n\n         }else{\n            totalwithdraw = totalrewardunstake + ratiounstake*(lastimeadd - timeunstake)/60;\n            for (uint j =0; j<userstaking.length; j++) {\n                   \n                        userstaking[j].totalreward += userstaking[j].ratiotoken * (lastimeadd - userstaking[j].timestake) / 60;\n                        userstaking[j].timestake = lastimeadd;\n                        userstaking[j].totalpool -= totalamount;\n                        // balancestakeeth[contractAddress] = userstaking[j].totalpool;\n                        balancepoolunstake = userstaking[j].totalpool;\n                        if(userstaking[j].totalpool ==0) {\n                            userstaking[j].ratiotoken =0;\n                        }else {\n                            userstaking[j].ratiotoken = ratioadd * userstaking[j].totalstakeUser / userstaking[j].totalpool;\n                        }\n                        if(userstaking[j].stakers == msg.sender) {\n                        userstaking[j].totalreward = 0;\n                        userstaking[j].totalstakeUser = 0;\n                        userstaking[j].ratiotoken =0;\n                        }\n            }\n         }\n        // msg.sender.transfer(totalamount);\n        ATOZ.transfer(msg.sender, (totalwithdraw + totalamount));  \n        stakeuser.push(Stakeuser( msg.sender, (totalwithdraw + totalamount), block.timestamp, \"Withdraw\"));\n        totalpoolAtoz -=totalamount;\n    } \n\n     function getStakeuser() public view returns(Stakeuser[] memory){\n        return stakeuser;\n    }\n\n    function getUserstaking() public view returns(Userstaking[] memory){\n        return userstaking;\n    }\n    \n}",
  "sourcePath": "/Users/quyphan/Desktop/smartcontract/UniStakes/src/contracts/AtozPool.sol",
  "compiler": {
    "name": "solc",
    "version": "0.5.16+commit.9c3226ce.Emscripten.clang"
  },
  "schemaVersion": "3.2.3",
  "updatedAt": "2020-11-04T07:35:46.823Z",
  "networkType": "ethereum",
  "devdoc": {
    "methods": {}
  },
  "userdoc": {
    "methods": {}
  }
}