{
  "contractName": "BuyToken",
  "abi": [
    {
      "constant": true,
      "inputs": [],
      "name": "USDT",
      "outputs": [
        {
          "internalType": "contract IERC20",
          "name": "",
          "type": "address"
        }
      ],
      "payable": false,
      "stateMutability": "view",
      "type": "function"
    },
    {
      "constant": true,
      "inputs": [
        {
          "internalType": "address",
          "name": "",
          "type": "address"
        }
      ],
      "name": "balancetoken",
      "outputs": [
        {
          "internalType": "uint256",
          "name": "",
          "type": "uint256"
        }
      ],
      "payable": false,
      "stateMutability": "view",
      "type": "function"
    },
    {
      "constant": true,
      "inputs": [
        {
          "internalType": "address",
          "name": "",
          "type": "address"
        }
      ],
      "name": "decimaltoken",
      "outputs": [
        {
          "internalType": "uint256",
          "name": "",
          "type": "uint256"
        }
      ],
      "payable": false,
      "stateMutability": "view",
      "type": "function"
    },
    {
      "constant": true,
      "inputs": [
        {
          "internalType": "address",
          "name": "",
          "type": "address"
        }
      ],
      "name": "hasOwner",
      "outputs": [
        {
          "internalType": "bool",
          "name": "",
          "type": "bool"
        }
      ],
      "payable": false,
      "stateMutability": "view",
      "type": "function"
    },
    {
      "constant": true,
      "inputs": [
        {
          "internalType": "address",
          "name": "",
          "type": "address"
        }
      ],
      "name": "hasUser",
      "outputs": [
        {
          "internalType": "bool",
          "name": "",
          "type": "bool"
        }
      ],
      "payable": false,
      "stateMutability": "view",
      "type": "function"
    },
    {
      "constant": true,
      "inputs": [
        {
          "internalType": "address",
          "name": "",
          "type": "address"
        }
      ],
      "name": "hasbuyListed",
      "outputs": [
        {
          "internalType": "bool",
          "name": "",
          "type": "bool"
        }
      ],
      "payable": false,
      "stateMutability": "view",
      "type": "function"
    },
    {
      "constant": true,
      "inputs": [
        {
          "internalType": "uint256",
          "name": "",
          "type": "uint256"
        }
      ],
      "name": "listpoolbuytoken",
      "outputs": [
        {
          "internalType": "address",
          "name": "contractaddress",
          "type": "address"
        },
        {
          "internalType": "address",
          "name": "owner",
          "type": "address"
        },
        {
          "internalType": "string",
          "name": "icon",
          "type": "string"
        },
        {
          "internalType": "string",
          "name": "symbol",
          "type": "string"
        },
        {
          "internalType": "string",
          "name": "namepool",
          "type": "string"
        },
        {
          "internalType": "uint256",
          "name": "decimal",
          "type": "uint256"
        }
      ],
      "payable": false,
      "stateMutability": "view",
      "type": "function"
    },
    {
      "constant": true,
      "inputs": [],
      "name": "name",
      "outputs": [
        {
          "internalType": "string",
          "name": "",
          "type": "string"
        }
      ],
      "payable": false,
      "stateMutability": "view",
      "type": "function"
    },
    {
      "constant": true,
      "inputs": [
        {
          "internalType": "address",
          "name": "",
          "type": "address"
        }
      ],
      "name": "nametoken",
      "outputs": [
        {
          "internalType": "string",
          "name": "",
          "type": "string"
        }
      ],
      "payable": false,
      "stateMutability": "view",
      "type": "function"
    },
    {
      "constant": true,
      "inputs": [],
      "name": "owner",
      "outputs": [
        {
          "internalType": "address",
          "name": "",
          "type": "address"
        }
      ],
      "payable": false,
      "stateMutability": "view",
      "type": "function"
    },
    {
      "constant": true,
      "inputs": [
        {
          "internalType": "address",
          "name": "",
          "type": "address"
        }
      ],
      "name": "ownerContract",
      "outputs": [
        {
          "internalType": "address",
          "name": "",
          "type": "address"
        }
      ],
      "payable": false,
      "stateMutability": "view",
      "type": "function"
    },
    {
      "constant": true,
      "inputs": [
        {
          "internalType": "address",
          "name": "",
          "type": "address"
        }
      ],
      "name": "ratiotoken",
      "outputs": [
        {
          "internalType": "uint256",
          "name": "",
          "type": "uint256"
        }
      ],
      "payable": false,
      "stateMutability": "view",
      "type": "function"
    },
    {
      "constant": true,
      "inputs": [
        {
          "internalType": "address",
          "name": "",
          "type": "address"
        }
      ],
      "name": "symboltoken",
      "outputs": [
        {
          "internalType": "string",
          "name": "",
          "type": "string"
        }
      ],
      "payable": false,
      "stateMutability": "view",
      "type": "function"
    },
    {
      "constant": true,
      "inputs": [
        {
          "internalType": "address",
          "name": "",
          "type": "address"
        }
      ],
      "name": "timecreate",
      "outputs": [
        {
          "internalType": "uint256",
          "name": "",
          "type": "uint256"
        }
      ],
      "payable": false,
      "stateMutability": "view",
      "type": "function"
    },
    {
      "constant": false,
      "inputs": [
        {
          "internalType": "address",
          "name": "contractAddress",
          "type": "address"
        },
        {
          "internalType": "string",
          "name": "iconPool",
          "type": "string"
        },
        {
          "internalType": "string",
          "name": "symPool",
          "type": "string"
        },
        {
          "internalType": "string",
          "name": "namePool",
          "type": "string"
        },
        {
          "internalType": "uint256",
          "name": "decimal",
          "type": "uint256"
        },
        {
          "internalType": "uint256",
          "name": "balancePool",
          "type": "uint256"
        },
        {
          "internalType": "uint256",
          "name": "ratio",
          "type": "uint256"
        }
      ],
      "name": "addbuytoken",
      "outputs": [],
      "payable": false,
      "stateMutability": "nonpayable",
      "type": "function"
    },
    {
      "constant": false,
      "inputs": [
        {
          "internalType": "address",
          "name": "contractAddress",
          "type": "address"
        },
        {
          "internalType": "uint256",
          "name": "amount",
          "type": "uint256"
        }
      ],
      "name": "buytoken",
      "outputs": [],
      "payable": false,
      "stateMutability": "nonpayable",
      "type": "function"
    },
    {
      "constant": true,
      "inputs": [],
      "name": "getListpollbuytoken",
      "outputs": [
        {
          "components": [
            {
              "internalType": "address",
              "name": "contractaddress",
              "type": "address"
            },
            {
              "internalType": "address",
              "name": "owner",
              "type": "address"
            },
            {
              "internalType": "string",
              "name": "icon",
              "type": "string"
            },
            {
              "internalType": "string",
              "name": "symbol",
              "type": "string"
            },
            {
              "internalType": "string",
              "name": "namepool",
              "type": "string"
            },
            {
              "internalType": "uint256",
              "name": "decimal",
              "type": "uint256"
            }
          ],
          "internalType": "struct BuyToken.Listpoolbuytoken[]",
          "name": "",
          "type": "tuple[]"
        }
      ],
      "payable": false,
      "stateMutability": "view",
      "type": "function"
    }
  ],
  "bytecode": "0x60806040527364c7181421e463eb18968779ae3fd0da8b22346f6000806101000a81548173ffffffffffffffffffffffffffffffffffffffff021916908373ffffffffffffffffffffffffffffffffffffffff1602179055506040518060400160405280600981526020017f42757920546f6b656e000000000000000000000000000000000000000000000081525060019080519060200190620000a5929190620000ba565b50348015620000b357600080fd5b5062000169565b828054600181600116156101000203166002900490600052602060002090601f016020900481019282601f10620000fd57805160ff19168380011785556200012e565b828001600101855582156200012e579182015b828111156200012d57825182559160200191906001019062000110565b5b5090506200013d919062000141565b5090565b6200016691905b808211156200016257600081600090555060010162000148565b5090565b90565b611dfc80620001796000396000f3fe608060405234801561001057600080fd5b506004361061010b5760003560e01c80638da5cb5b116100a2578063a6c4ec0e11610071578063a6c4ec0e146102f7578063c54e44eb14610327578063d86ede3f14610345578063f332abc714610375578063f546f3fe146103a55761010b565b80638da5cb5b14610244578063934c6265146102625780639d4c028814610292578063a66b1c92146102c75761010b565b80634a768eaa116100de5780634a768eaa146101985780635336bffa146101b45780635fffb376146101e457806363f3b4a3146102145761010b565b806306fdde03146101105780630a5af5e71461012e578063230b37901461014a57806329f720b81461017a575b600080fd5b6101186103d5565b6040516101259190611b83565b60405180910390f35b610148600480360361014391908101906116cb565b610473565b005b610164600480360361015f91908101906116a2565b610a20565b6040516101719190611b4d565b60405180910390f35b610182610a40565b60405161018f9190611b2b565b60405180910390f35b6101b260048036036101ad91908101906117b1565b610d3b565b005b6101ce60048036036101c991908101906116a2565b61101b565b6040516101db9190611a3a565b60405180910390f35b6101fe60048036036101f991908101906116a2565b61104e565b60405161020b9190611ba5565b60405180910390f35b61022e600480360361022991908101906116a2565b611066565b60405161023b9190611ba5565b60405180910390f35b61024c61107e565b6040516102599190611a3a565b60405180910390f35b61027c600480360361027791908101906116a2565b6110a4565b6040516102899190611b83565b60405180910390f35b6102ac60048036036102a79190810190611816565b611154565b6040516102be96959493929190611ab5565b60405180910390f35b6102e160048036036102dc91908101906116a2565b6113a5565b6040516102ee9190611b83565b60405180910390f35b610311600480360361030c91908101906116a2565b611455565b60405161031e9190611b4d565b60405180910390f35b61032f611475565b60405161033c9190611b68565b60405180910390f35b61035f600480360361035a91908101906116a2565b61149a565b60405161036c9190611ba5565b60405180910390f35b61038f600480360361038a91908101906116a2565b6114b2565b60405161039c9190611b4d565b60405180910390f35b6103bf60048036036103ba91908101906116a2565b6114d2565b6040516103cc9190611ba5565b60405180910390f35b60018054600181600116156101000203166002900480601f01602080910402602001604051908101604052809291908181526020018280546001816001161561010002031660029004801561046b5780601f106104405761010080835404028352916020019161046b565b820191906000526020600020905b81548152906001019060200180831161044e57829003601f168201915b505050505081565b6000821161048057600080fd5b600660008873ffffffffffffffffffffffffffffffffffffffff1673ffffffffffffffffffffffffffffffffffffffff16815260200190815260200160002060009054906101000a900460ff16156104d757600080fd5b600660008873ffffffffffffffffffffffffffffffffffffffff1673ffffffffffffffffffffffffffffffffffffffff16815260200190815260200160002060009054906101000a900460ff16610a17578673ffffffffffffffffffffffffffffffffffffffff166323b872dd3330856040518463ffffffff1660e01b815260040161056593929190611a55565b602060405180830381600087803b15801561057f57600080fd5b505af1158015610593573d6000803e3d6000fd5b505050506040513d601f19601f820116820180604052506105b791908101906117ed565b5060036040518060c001604052808973ffffffffffffffffffffffffffffffffffffffff1681526020013373ffffffffffffffffffffffffffffffffffffffff168152602001888152602001878152602001868152602001858152509080600181540180825580915050906001820390600052602060002090600602016000909192909190915060008201518160000160006101000a81548173ffffffffffffffffffffffffffffffffffffffff021916908373ffffffffffffffffffffffffffffffffffffffff16021790555060208201518160010160006101000a81548173ffffffffffffffffffffffffffffffffffffffff021916908373ffffffffffffffffffffffffffffffffffffffff16021790555060408201518160020190805190602001906106e89291906114ea565b5060608201518160030190805190602001906107059291906114ea565b5060808201518160040190805190602001906107229291906114ea565b5060a0820151816005015550505080600760008973ffffffffffffffffffffffffffffffffffffffff1673ffffffffffffffffffffffffffffffffffffffff1681526020019081526020016000208190555081600860008973ffffffffffffffffffffffffffffffffffffffff1673ffffffffffffffffffffffffffffffffffffffff1681526020019081526020016000208190555042600960008973ffffffffffffffffffffffffffffffffffffffff1673ffffffffffffffffffffffffffffffffffffffff1681526020019081526020016000208190555082600a60008973ffffffffffffffffffffffffffffffffffffffff1673ffffffffffffffffffffffffffffffffffffffff1681526020019081526020016000208190555083600b60008973ffffffffffffffffffffffffffffffffffffffff1673ffffffffffffffffffffffffffffffffffffffff168152602001908152602001600020908051906020019061089392919061156a565b5084600c60008973ffffffffffffffffffffffffffffffffffffffff1673ffffffffffffffffffffffffffffffffffffffff16815260200190815260200160002090805190602001906108e792919061156a565b506001600660008973ffffffffffffffffffffffffffffffffffffffff1673ffffffffffffffffffffffffffffffffffffffff16815260200190815260200160002060006101000a81548160ff02191690831515021790555033600d60008973ffffffffffffffffffffffffffffffffffffffff1673ffffffffffffffffffffffffffffffffffffffff16815260200190815260200160002060006101000a81548173ffffffffffffffffffffffffffffffffffffffff021916908373ffffffffffffffffffffffffffffffffffffffff1602179055506001600560003373ffffffffffffffffffffffffffffffffffffffff1673ffffffffffffffffffffffffffffffffffffffff16815260200190815260200160002060006101000a81548160ff0219169083151502179055505b50505050505050565b60056020528060005260406000206000915054906101000a900460ff1681565b60606003805480602002602001604051908101604052809291908181526020016000905b82821015610d3257838290600052602060002090600602016040518060c00160405290816000820160009054906101000a900473ffffffffffffffffffffffffffffffffffffffff1673ffffffffffffffffffffffffffffffffffffffff1673ffffffffffffffffffffffffffffffffffffffff1681526020016001820160009054906101000a900473ffffffffffffffffffffffffffffffffffffffff1673ffffffffffffffffffffffffffffffffffffffff1673ffffffffffffffffffffffffffffffffffffffff168152602001600282018054600181600116156101000203166002900480601f016020809104026020016040519081016040528092919081815260200182805460018160011615610100020316600290048015610bcc5780601f10610ba157610100808354040283529160200191610bcc565b820191906000526020600020905b815481529060010190602001808311610baf57829003601f168201915b50505050508152602001600382018054600181600116156101000203166002900480601f016020809104026020016040519081016040528092919081815260200182805460018160011615610100020316600290048015610c6e5780601f10610c4357610100808354040283529160200191610c6e565b820191906000526020600020905b815481529060010190602001808311610c5157829003601f168201915b50505050508152602001600482018054600181600116156101000203166002900480601f016020809104026020016040519081016040528092919081815260200182805460018160011615610100020316600290048015610d105780601f10610ce557610100808354040283529160200191610d10565b820191906000526020600020905b815481529060010190602001808311610cf357829003601f168201915b5050505050815260200160058201548152505081526020019060010190610a64565b50505050905090565b80600860008473ffffffffffffffffffffffffffffffffffffffff1673ffffffffffffffffffffffffffffffffffffffff168152602001908152602001600020541015610d8757600080fd5b80600860008473ffffffffffffffffffffffffffffffffffffffff1673ffffffffffffffffffffffffffffffffffffffff168152602001908152602001600020600082825403925050819055508173ffffffffffffffffffffffffffffffffffffffff1663a9059cbb33836040518363ffffffff1660e01b8152600401610e0f929190611a8c565b602060405180830381600087803b158015610e2957600080fd5b505af1158015610e3d573d6000803e3d6000fd5b505050506040513d601f19601f82011682018060405250610e6191908101906117ed565b506000809054906101000a900473ffffffffffffffffffffffffffffffffffffffff1673ffffffffffffffffffffffffffffffffffffffff166323b872dd33600d60008673ffffffffffffffffffffffffffffffffffffffff1673ffffffffffffffffffffffffffffffffffffffff16815260200190815260200160002060009054906101000a900473ffffffffffffffffffffffffffffffffffffffff16600760008773ffffffffffffffffffffffffffffffffffffffff1673ffffffffffffffffffffffffffffffffffffffff16815260200190815260200160002054620f4240860281610f4d57fe5b046040518463ffffffff1660e01b8152600401610f6c93929190611a55565b602060405180830381600087803b158015610f8657600080fd5b505af1158015610f9a573d6000803e3d6000fd5b505050506040513d601f19601f82011682018060405250610fbe91908101906117ed565b506001600460003373ffffffffffffffffffffffffffffffffffffffff1673ffffffffffffffffffffffffffffffffffffffff16815260200190815260200160002060006101000a81548160ff0219169083151502179055505050565b600d6020528060005260406000206000915054906101000a900473ffffffffffffffffffffffffffffffffffffffff1681565b600a6020528060005260406000206000915090505481565b60086020528060005260406000206000915090505481565b600260009054906101000a900473ffffffffffffffffffffffffffffffffffffffff1681565b600c6020528060005260406000206000915090508054600181600116156101000203166002900480601f01602080910402602001604051908101604052809291908181526020018280546001816001161561010002031660029004801561114c5780601f106111215761010080835404028352916020019161114c565b820191906000526020600020905b81548152906001019060200180831161112f57829003601f168201915b505050505081565b6003818154811061116157fe5b90600052602060002090600602016000915090508060000160009054906101000a900473ffffffffffffffffffffffffffffffffffffffff16908060010160009054906101000a900473ffffffffffffffffffffffffffffffffffffffff1690806002018054600181600116156101000203166002900480601f0160208091040260200160405190810160405280929190818152602001828054600181600116156101000203166002900480156112595780601f1061122e57610100808354040283529160200191611259565b820191906000526020600020905b81548152906001019060200180831161123c57829003601f168201915b505050505090806003018054600181600116156101000203166002900480601f0160208091040260200160405190810160405280929190818152602001828054600181600116156101000203166002900480156112f75780601f106112cc576101008083540402835291602001916112f7565b820191906000526020600020905b8154815290600101906020018083116112da57829003601f168201915b505050505090806004018054600181600116156101000203166002900480601f0160208091040260200160405190810160405280929190818152602001828054600181600116156101000203166002900480156113955780601f1061136a57610100808354040283529160200191611395565b820191906000526020600020905b81548152906001019060200180831161137857829003601f168201915b5050505050908060050154905086565b600b6020528060005260406000206000915090508054600181600116156101000203166002900480601f01602080910402602001604051908101604052809291908181526020018280546001816001161561010002031660029004801561144d5780601f106114225761010080835404028352916020019161144d565b820191906000526020600020905b81548152906001019060200180831161143057829003601f168201915b505050505081565b60046020528060005260406000206000915054906101000a900460ff1681565b6000809054906101000a900473ffffffffffffffffffffffffffffffffffffffff1681565b60076020528060005260406000206000915090505481565b60066020528060005260406000206000915054906101000a900460ff1681565b60096020528060005260406000206000915090505481565b828054600181600116156101000203166002900490600052602060002090601f016020900481019282601f1061152b57805160ff1916838001178555611559565b82800160010185558215611559579182015b8281111561155857825182559160200191906001019061153d565b5b50905061156691906115ea565b5090565b828054600181600116156101000203166002900490600052602060002090601f016020900481019282601f106115ab57805160ff19168380011785556115d9565b828001600101855582156115d9579182015b828111156115d85782518255916020019190600101906115bd565b5b5090506115e691906115ea565b5090565b61160c91905b808211156116085760008160009055506001016115f0565b5090565b90565b60008135905061161e81611d74565b92915050565b60008151905061163381611d8b565b92915050565b600082601f83011261164a57600080fd5b813561165d61165882611bed565b611bc0565b9150808252602083016020830185838301111561167957600080fd5b611684838284611d21565b50505092915050565b60008135905061169c81611da2565b92915050565b6000602082840312156116b457600080fd5b60006116c28482850161160f565b91505092915050565b600080600080600080600060e0888a0312156116e657600080fd5b60006116f48a828b0161160f565b975050602088013567ffffffffffffffff81111561171157600080fd5b61171d8a828b01611639565b965050604088013567ffffffffffffffff81111561173a57600080fd5b6117468a828b01611639565b955050606088013567ffffffffffffffff81111561176357600080fd5b61176f8a828b01611639565b94505060806117808a828b0161168d565b93505060a06117918a828b0161168d565b92505060c06117a28a828b0161168d565b91505092959891949750929550565b600080604083850312156117c457600080fd5b60006117d28582860161160f565b92505060206117e38582860161168d565b9150509250929050565b6000602082840312156117ff57600080fd5b600061180d84828501611624565b91505092915050565b60006020828403121561182857600080fd5b60006118368482850161168d565b91505092915050565b600061184b8383611985565b905092915050565b61185c81611cc7565b82525050565b61186b81611c7f565b82525050565b61187a81611c7f565b82525050565b600061188b82611c29565b6118958185611c4c565b9350836020820285016118a785611c19565b8060005b858110156118e357848403895281516118c4858261183f565b94506118cf83611c3f565b925060208a019950506001810190506118ab565b50829750879550505050505092915050565b6118fe81611c91565b82525050565b61190d81611cd9565b82525050565b600061191e82611c34565b6119288185611c5d565b9350611938818560208601611d30565b61194181611d63565b840191505092915050565b600061195782611c34565b6119618185611c6e565b9350611971818560208601611d30565b61197a81611d63565b840191505092915050565b600060c08301600083015161199d6000860182611862565b5060208301516119b06020860182611862565b50604083015184820360408601526119c88282611913565b915050606083015184820360608601526119e28282611913565b915050608083015184820360808601526119fc8282611913565b91505060a0830151611a1160a0860182611a1c565b508091505092915050565b611a2581611cbd565b82525050565b611a3481611cbd565b82525050565b6000602082019050611a4f6000830184611871565b92915050565b6000606082019050611a6a6000830186611853565b611a776020830185611871565b611a846040830184611a2b565b949350505050565b6000604082019050611aa16000830185611853565b611aae6020830184611a2b565b9392505050565b600060c082019050611aca6000830189611871565b611ad76020830188611871565b8181036040830152611ae9818761194c565b90508181036060830152611afd818661194c565b90508181036080830152611b11818561194c565b9050611b2060a0830184611a2b565b979650505050505050565b60006020820190508181036000830152611b458184611880565b905092915050565b6000602082019050611b6260008301846118f5565b92915050565b6000602082019050611b7d6000830184611904565b92915050565b60006020820190508181036000830152611b9d818461194c565b905092915050565b6000602082019050611bba6000830184611a2b565b92915050565b6000604051905081810181811067ffffffffffffffff82111715611be357600080fd5b8060405250919050565b600067ffffffffffffffff821115611c0457600080fd5b601f19601f8301169050602081019050919050565b6000819050602082019050919050565b600081519050919050565b600081519050919050565b6000602082019050919050565b600082825260208201905092915050565b600082825260208201905092915050565b600082825260208201905092915050565b6000611c8a82611c9d565b9050919050565b60008115159050919050565b600073ffffffffffffffffffffffffffffffffffffffff82169050919050565b6000819050919050565b6000611cd282611cfd565b9050919050565b6000611ce482611ceb565b9050919050565b6000611cf682611c9d565b9050919050565b6000611d0882611d0f565b9050919050565b6000611d1a82611c9d565b9050919050565b82818337600083830152505050565b60005b83811015611d4e578082015181840152602081019050611d33565b83811115611d5d576000848401525b50505050565b6000601f19601f8301169050919050565b611d7d81611c7f565b8114611d8857600080fd5b50565b611d9481611c91565b8114611d9f57600080fd5b50565b611dab81611cbd565b8114611db657600080fd5b5056fea365627a7a723158203a790c268acabf261f659f30dba009e83b1c4bfc157758692f4f9b8f2f781c396c6578706572696d656e74616cf564736f6c63430005100040",
  "source": "pragma solidity ^0.5.0;\n\ninterface IERC20 {\n    function totalSupply() external view returns (uint256);\n    function balanceOf(address account) external view returns (uint256);\n    function transfer(address recipient, uint256 amount) external returns (bool);\n    function allowance(address owner, address spender) external view returns (uint256);\n    function approve(address spender, uint256 amount) external returns (bool);\n    function transferFrom(address sender, address recipient, uint256 amount) external returns (bool);\n    event Transfer(address indexed from, address indexed to, uint256 value);\n    event Approval(address indexed owner, address indexed spender, uint256 value);\n}\n\npragma solidity ^0.5.0;\npragma experimental ABIEncoderV2;\ncontract BuyToken {\n\n    // Ganache\n    // IERC20 public USDT = IERC20(0x081ED2f1275858B157c979eb841E346d535f267E);\n    // Ropsten\n    IERC20 public USDT = IERC20(0x64C7181421E463Eb18968779ae3Fd0dA8B22346F);\n    string public name = \"Buy Token\";\n    address public owner;\n    struct Listpoolbuytoken {\n        address contractaddress;\n        address owner;\n        string icon;\n        string symbol;\n        string namepool;\n        uint decimal;\n    }\n    Listpoolbuytoken[] public listpoolbuytoken;\n    mapping(address => bool) public hasUser;\n    mapping(address => bool) public hasOwner;\n    mapping(address => bool) public hasbuyListed; \n    mapping(address => uint) public ratiotoken;\n    mapping(address => uint) public balancetoken;\n    mapping(address => uint) public timecreate;\n    mapping(address => uint) public decimaltoken;\n    mapping(address => string) public nametoken;\n    mapping(address => string) public symboltoken;\n    mapping(address => address) public ownerContract;\n    function addbuytoken(address contractAddress, string memory iconPool, string memory symPool, string memory namePool, uint decimal,uint balancePool, uint ratio) public{\n        require(balancePool>0);\n        require(!hasbuyListed[contractAddress]);\n        if(!hasbuyListed[contractAddress]) {\n            IERC20(contractAddress).transferFrom(msg.sender, address(this), balancePool);\n            listpoolbuytoken.push(Listpoolbuytoken(contractAddress, msg.sender, iconPool, symPool, namePool, decimal));\n            ratiotoken[contractAddress] = ratio;\n            balancetoken[contractAddress] = balancePool;\n            timecreate[contractAddress] = block.timestamp;\n            decimaltoken[contractAddress]= decimal;\n            nametoken[contractAddress]= namePool;\n            symboltoken[contractAddress]= symPool;\n            hasbuyListed[contractAddress]= true;\n            ownerContract[contractAddress] = msg.sender;\n            hasOwner[msg.sender]= true;\n        }\n    }\n \n    function buytoken(address contractAddress, uint amount) public {\n        require(balancetoken[contractAddress]  >= amount);\n        balancetoken[contractAddress] -=amount;\n        IERC20(contractAddress).transfer(msg.sender,amount);\n        USDT.transferFrom(msg.sender, ownerContract[contractAddress], amount * 10**6/ ratiotoken[contractAddress]);\n        hasUser[msg.sender] = true;\n    } \n\n    function getListpollbuytoken() public view returns(Listpoolbuytoken[] memory){\n        return listpoolbuytoken;\n    }\n\n}",
  "sourcePath": "/Users/quyphan/Desktop/smartcontract/UniStakes/src/contracts/BuyToken.sol",
  "compiler": {
    "name": "solc",
    "version": "0.5.16+commit.9c3226ce.Emscripten.clang"
  },
  "schemaVersion": "3.2.3",
  "updatedAt": "2020-11-04T07:19:30.384Z",
  "networkType": "ethereum",
  "devdoc": {
    "methods": {}
  },
  "userdoc": {
    "methods": {}
  }
}