{
  "contractName": "EthPool",
  "abi": [
    {
      "constant": true,
      "inputs": [],
      "name": "ATOZ",
      "outputs": [
        {
          "internalType": "contract IERC20",
          "name": "",
          "type": "address"
        }
      ],
      "payable": false,
      "stateMutability": "view",
      "type": "function"
    },
    {
      "constant": true,
      "inputs": [],
      "name": "USDT",
      "outputs": [
        {
          "internalType": "contract IERC20",
          "name": "",
          "type": "address"
        }
      ],
      "payable": false,
      "stateMutability": "view",
      "type": "function"
    },
    {
      "constant": true,
      "inputs": [],
      "name": "balancepool",
      "outputs": [
        {
          "internalType": "uint256",
          "name": "",
          "type": "uint256"
        }
      ],
      "payable": false,
      "stateMutability": "view",
      "type": "function"
    },
    {
      "constant": true,
      "inputs": [],
      "name": "hasContractEth",
      "outputs": [
        {
          "internalType": "bool",
          "name": "",
          "type": "bool"
        }
      ],
      "payable": false,
      "stateMutability": "view",
      "type": "function"
    },
    {
      "constant": true,
      "inputs": [],
      "name": "hasContractUsdt",
      "outputs": [
        {
          "internalType": "bool",
          "name": "",
          "type": "bool"
        }
      ],
      "payable": false,
      "stateMutability": "view",
      "type": "function"
    },
    {
      "constant": true,
      "inputs": [
        {
          "internalType": "address",
          "name": "",
          "type": "address"
        }
      ],
      "name": "hasEth",
      "outputs": [
        {
          "internalType": "bool",
          "name": "",
          "type": "bool"
        }
      ],
      "payable": false,
      "stateMutability": "view",
      "type": "function"
    },
    {
      "constant": true,
      "inputs": [
        {
          "internalType": "address",
          "name": "",
          "type": "address"
        }
      ],
      "name": "hasUsdt",
      "outputs": [
        {
          "internalType": "bool",
          "name": "",
          "type": "bool"
        }
      ],
      "payable": false,
      "stateMutability": "view",
      "type": "function"
    },
    {
      "constant": true,
      "inputs": [
        {
          "internalType": "address",
          "name": "",
          "type": "address"
        }
      ],
      "name": "hasUser",
      "outputs": [
        {
          "internalType": "bool",
          "name": "",
          "type": "bool"
        }
      ],
      "payable": false,
      "stateMutability": "view",
      "type": "function"
    },
    {
      "constant": true,
      "inputs": [],
      "name": "lastimeadd",
      "outputs": [
        {
          "internalType": "uint256",
          "name": "",
          "type": "uint256"
        }
      ],
      "payable": false,
      "stateMutability": "view",
      "type": "function"
    },
    {
      "constant": true,
      "inputs": [],
      "name": "ratioadd",
      "outputs": [
        {
          "internalType": "uint256",
          "name": "",
          "type": "uint256"
        }
      ],
      "payable": false,
      "stateMutability": "view",
      "type": "function"
    },
    {
      "constant": true,
      "inputs": [
        {
          "internalType": "uint256",
          "name": "",
          "type": "uint256"
        }
      ],
      "name": "stakeuser",
      "outputs": [
        {
          "internalType": "address",
          "name": "stakers",
          "type": "address"
        },
        {
          "internalType": "uint256",
          "name": "amount",
          "type": "uint256"
        },
        {
          "internalType": "uint256",
          "name": "timeCreate",
          "type": "uint256"
        },
        {
          "internalType": "string",
          "name": "status",
          "type": "string"
        },
        {
          "internalType": "uint256",
          "name": "choice",
          "type": "uint256"
        }
      ],
      "payable": false,
      "stateMutability": "view",
      "type": "function"
    },
    {
      "constant": true,
      "inputs": [],
      "name": "totalpoolEth",
      "outputs": [
        {
          "internalType": "uint256",
          "name": "",
          "type": "uint256"
        }
      ],
      "payable": false,
      "stateMutability": "view",
      "type": "function"
    },
    {
      "constant": true,
      "inputs": [],
      "name": "totalpoolUsdt",
      "outputs": [
        {
          "internalType": "uint256",
          "name": "",
          "type": "uint256"
        }
      ],
      "payable": false,
      "stateMutability": "view",
      "type": "function"
    },
    {
      "constant": true,
      "inputs": [
        {
          "internalType": "uint256",
          "name": "",
          "type": "uint256"
        }
      ],
      "name": "userstaking",
      "outputs": [
        {
          "internalType": "address",
          "name": "stakers",
          "type": "address"
        },
        {
          "internalType": "uint256",
          "name": "ratiotoken",
          "type": "uint256"
        },
        {
          "internalType": "uint256",
          "name": "totalstakeUser",
          "type": "uint256"
        },
        {
          "internalType": "uint256",
          "name": "totalpool",
          "type": "uint256"
        },
        {
          "internalType": "uint256",
          "name": "timestake",
          "type": "uint256"
        },
        {
          "internalType": "uint256",
          "name": "totalreward",
          "type": "uint256"
        },
        {
          "internalType": "uint256",
          "name": "choice",
          "type": "uint256"
        }
      ],
      "payable": false,
      "stateMutability": "view",
      "type": "function"
    },
    {
      "constant": false,
      "inputs": [
        {
          "internalType": "uint256",
          "name": "amount",
          "type": "uint256"
        },
        {
          "internalType": "uint256",
          "name": "choice",
          "type": "uint256"
        }
      ],
      "name": "stake",
      "outputs": [],
      "payable": true,
      "stateMutability": "payable",
      "type": "function"
    },
    {
      "constant": false,
      "inputs": [
        {
          "internalType": "uint256",
          "name": "choice",
          "type": "uint256"
        }
      ],
      "name": "unstake",
      "outputs": [],
      "payable": false,
      "stateMutability": "nonpayable",
      "type": "function"
    },
    {
      "constant": true,
      "inputs": [],
      "name": "getStakeuser",
      "outputs": [
        {
          "components": [
            {
              "internalType": "address",
              "name": "stakers",
              "type": "address"
            },
            {
              "internalType": "uint256",
              "name": "amount",
              "type": "uint256"
            },
            {
              "internalType": "uint256",
              "name": "timeCreate",
              "type": "uint256"
            },
            {
              "internalType": "string",
              "name": "status",
              "type": "string"
            },
            {
              "internalType": "uint256",
              "name": "choice",
              "type": "uint256"
            }
          ],
          "internalType": "struct EthPool.Stakeuser[]",
          "name": "",
          "type": "tuple[]"
        }
      ],
      "payable": false,
      "stateMutability": "view",
      "type": "function"
    },
    {
      "constant": true,
      "inputs": [],
      "name": "getUserstaking",
      "outputs": [
        {
          "components": [
            {
              "internalType": "address",
              "name": "stakers",
              "type": "address"
            },
            {
              "internalType": "uint256",
              "name": "ratiotoken",
              "type": "uint256"
            },
            {
              "internalType": "uint256",
              "name": "totalstakeUser",
              "type": "uint256"
            },
            {
              "internalType": "uint256",
              "name": "totalpool",
              "type": "uint256"
            },
            {
              "internalType": "uint256",
              "name": "timestake",
              "type": "uint256"
            },
            {
              "internalType": "uint256",
              "name": "totalreward",
              "type": "uint256"
            },
            {
              "internalType": "uint256",
              "name": "choice",
              "type": "uint256"
            }
          ],
          "internalType": "struct EthPool.Userstaking[]",
          "name": "",
          "type": "tuple[]"
        }
      ],
      "payable": false,
      "stateMutability": "view",
      "type": "function"
    }
  ],
  "bytecode": "0x6080604052691fc3842bd1f071c000006000556360015d896001557364c7181421e463eb18968779ae3fd0da8b22346f600260006101000a81548173ffffffffffffffffffffffffffffffffffffffff021916908373ffffffffffffffffffffffffffffffffffffffff16021790555073c9c12a2a4511611a5f68c044187ab0531a5fcbab600360006101000a81548173ffffffffffffffffffffffffffffffffffffffff021916908373ffffffffffffffffffffffffffffffffffffffff160217905550603c4260015403816100d257fe5b04600054816100dd57fe5b04600455600060085560006009553480156100f757600080fd5b506125c1806101076000396000f3fe6080604052600436106101095760003560e01c80639093c73c11610095578063bcf5ec3511610064578063bcf5ec3514610378578063c54e44eb146103a3578063ccea2065146103ce578063da91cc3c146103f9578063e80030311461042457610109565b80639093c73c146102ba578063a1507db7146102e5578063a6c4ec0e14610310578063bbfb930e1461034d57610109565b806346a11d01116100dc57806346a11d01146101e057806347f141441461020b57806353fb60b3146102365780635f527bf6146102735780637b0472f01461029e57610109565b80631d36f8551461010e5780632e17de781461014b57806330292b6914610174578063434b4f8c1461019f575b600080fd5b34801561011a57600080fd5b5061013560048036036101309190810190611d41565b610467565b6040516101429190612303565b60405180910390f35b34801561015757600080fd5b50610172600480360361016d9190810190611d93565b610487565b005b34801561018057600080fd5b50610189610ed7565b6040516101969190612399565b60405180910390f35b3480156101ab57600080fd5b506101c660048036036101c19190810190611d93565b610edd565b6040516101d79594939291906121f6565b60405180910390f35b3480156101ec57600080fd5b506101f5610fd8565b60405161020291906122bf565b60405180910390f35b34801561021757600080fd5b5061022061114d565b60405161022d9190612303565b60405180910390f35b34801561024257600080fd5b5061025d60048036036102589190810190611d41565b611160565b60405161026a9190612303565b60405180910390f35b34801561027f57600080fd5b50610288611180565b6040516102959190612399565b60405180910390f35b6102b860048036036102b39190810190611dbc565b611186565b005b3480156102c657600080fd5b506102cf611a6c565b6040516102dc919061231e565b60405180910390f35b3480156102f157600080fd5b506102fa611a92565b6040516103079190612399565b60405180910390f35b34801561031c57600080fd5b5061033760048036036103329190810190611d41565b611a98565b6040516103449190612303565b60405180910390f35b34801561035957600080fd5b50610362611ab8565b60405161036f9190612399565b60405180910390f35b34801561038457600080fd5b5061038d611abe565b60405161039a9190612303565b60405180910390f35b3480156103af57600080fd5b506103b8611ad1565b6040516103c5919061231e565b60405180910390f35b3480156103da57600080fd5b506103e3611af7565b6040516103f091906122e1565b60405180910390f35b34801561040557600080fd5b5061040e611be8565b60405161041b9190612399565b60405180910390f35b34801561043057600080fd5b5061044b60048036036104469190810190611d93565b611bee565b60405161045e9796959493929190612250565b60405180910390f35b600a6020528060005260406000206000915054906101000a900460ff1681565b600080905060008090506000809050600080905060008090506000809050600080600090505b6007805490508110156105eb573373ffffffffffffffffffffffffffffffffffffffff16600782815481106104de57fe5b906000526020600020906007020160000160009054906101000a900473ffffffffffffffffffffffffffffffffffffffff1673ffffffffffffffffffffffffffffffffffffffff161480156105505750886007828154811061053c57fe5b906000526020600020906007020160060154145b156105de576007818154811061056257fe5b90600052602060002090600702016002015495506007818154811061058357fe5b9060005260206000209060070201600501549450600781815481106105a457fe5b9060005260206000209060070201600401549350600781815481106105c557fe5b9060005260206000209060070201600101549250600196505b80806001019150506104ad565b50600085116105f957600080fd5b4260015411156108e557603c83420383028161061157fe5b048401965060008090505b6007805490508110156108df57886007828154811061063757fe5b90600052602060002090600702016006015414156108d257603c6007828154811061065e57fe5b90600052602060002090600702016004015442036007838154811061067f57fe5b906000526020600020906007020160010154028161069957fe5b04600782815481106106a757fe5b90600052602060002090600702016005016000828254019250508190555042600782815481106106d357fe5b90600052602060002090600702016004018190555085600782815481106106f657fe5b9060005260206000209060070201600301600082825403925050819055506007818154811061072157fe5b906000526020600020906007020160030154915060006007828154811061074457fe5b90600052602060002090600702016003015414156107855760006007828154811061076b57fe5b9060005260206000209060070201600101819055506107f2565b6007818154811061079257fe5b906000526020600020906007020160030154600782815481106107b157fe5b90600052602060002090600702016002015460045402816107ce57fe5b04600782815481106107dc57fe5b9060005260206000209060070201600101819055505b3373ffffffffffffffffffffffffffffffffffffffff166007828154811061081657fe5b906000526020600020906007020160000160009054906101000a900473ffffffffffffffffffffffffffffffffffffffff1673ffffffffffffffffffffffffffffffffffffffff1614156108d15760006007828154811061087357fe5b90600052602060002090600702016005018190555060006007828154811061089757fe5b9060005260206000209060070201600201819055506000600782815481106108bb57fe5b9060005260206000209060070201600101819055505b5b808060010191505061061c565b50610bc9565b603c83600154038302816108f557fe5b048401965060008090505b600780549050811015610bc757886007828154811061091b57fe5b9060005260206000209060070201600601541415610bba57603c6007828154811061094257fe5b906000526020600020906007020160040154600154036007838154811061096557fe5b906000526020600020906007020160010154028161097f57fe5b046007828154811061098d57fe5b906000526020600020906007020160050160008282540192505081905550600154600782815481106109bb57fe5b90600052602060002090600702016004018190555085600782815481106109de57fe5b90600052602060002090600702016003016000828254039250508190555060078181548110610a0957fe5b9060005260206000209060070201600301549150600060078281548110610a2c57fe5b9060005260206000209060070201600301541415610a6d57600060078281548110610a5357fe5b906000526020600020906007020160010181905550610ada565b60078181548110610a7a57fe5b90600052602060002090600702016003015460078281548110610a9957fe5b9060005260206000209060070201600201546004540281610ab657fe5b0460078281548110610ac457fe5b9060005260206000209060070201600101819055505b3373ffffffffffffffffffffffffffffffffffffffff1660078281548110610afe57fe5b906000526020600020906007020160000160009054906101000a900473ffffffffffffffffffffffffffffffffffffffff1673ffffffffffffffffffffffffffffffffffffffff161415610bb957600060078281548110610b5b57fe5b906000526020600020906007020160050181905550600060078281548110610b7f57fe5b906000526020600020906007020160020181905550600060078281548110610ba357fe5b9060005260206000209060070201600101819055505b5b8080600101915050610900565b505b6001881415610c2e573373ffffffffffffffffffffffffffffffffffffffff166108fc869081150290604051600060405180830381858888f19350505050158015610c18573d6000803e3d6000fd5b5084600860008282540392505081905550610cf9565b6002881415610cf857600260009054906101000a900473ffffffffffffffffffffffffffffffffffffffff1673ffffffffffffffffffffffffffffffffffffffff1663a9059cbb33876040518363ffffffff1660e01b8152600401610c949291906121cd565b602060405180830381600087803b158015610cae57600080fd5b505af1158015610cc2573d6000803e3d6000fd5b505050506040513d601f19601f82011682018060405250610ce69190810190611d6a565b50846009600082825403925050819055505b5b600360009054906101000a900473ffffffffffffffffffffffffffffffffffffffff1673ffffffffffffffffffffffffffffffffffffffff1663a9059cbb33896040518363ffffffff1660e01b8152600401610d569291906121cd565b602060405180830381600087803b158015610d7057600080fd5b505af1158015610d84573d6000803e3d6000fd5b505050506040513d601f19601f82011682018060405250610da89190810190611d6a565b5060066040518060a001604052803373ffffffffffffffffffffffffffffffffffffffff1681526020018981526020014281526020016040518060400160405280600881526020017f576974686472617700000000000000000000000000000000000000000000000081525081526020018a8152509080600181540180825580915050906001820390600052602060002090600502016000909192909190915060008201518160000160006101000a81548173ffffffffffffffffffffffffffffffffffffffff021916908373ffffffffffffffffffffffffffffffffffffffff16021790555060208201518160010155604082015181600201556060820151816003019080519060200190610ebf929190611c5d565b50608082015181600401555050505050505050505050565b60015481565b60068181548110610eea57fe5b90600052602060002090600502016000915090508060000160009054906101000a900473ffffffffffffffffffffffffffffffffffffffff1690806001015490806002015490806003018054600181600116156101000203166002900480601f016020809104026020016040519081016040528092919081815260200182805460018160011615610100020316600290048015610fc85780601f10610f9d57610100808354040283529160200191610fc8565b820191906000526020600020905b815481529060010190602001808311610fab57829003601f168201915b5050505050908060040154905085565b60606006805480602002602001604051908101604052809291908181526020016000905b8282101561114457838290600052602060002090600502016040518060a00160405290816000820160009054906101000a900473ffffffffffffffffffffffffffffffffffffffff1673ffffffffffffffffffffffffffffffffffffffff1673ffffffffffffffffffffffffffffffffffffffff1681526020016001820154815260200160028201548152602001600382018054600181600116156101000203166002900480601f0160208091040260200160405190810160405280929190818152602001828054600181600116156101000203166002900480156111225780601f106110f757610100808354040283529160200191611122565b820191906000526020600020905b81548152906001019060200180831161110557829003601f168201915b5050505050815260200160048201548152505081526020019060010190610ffc565b50505050905090565b600c60019054906101000a900460ff1681565b600b6020528060005260406000206000915054906101000a900460ff1681565b60045481565b60008090506000809050600080600086116111d6576040517f08c379a00000000000000000000000000000000000000000000000000000000081526004016111cd90612379565b60405180910390fd5b426001541161121a576040517f08c379a000000000000000000000000000000000000000000000000000000000815260040161121190612359565b60405180910390fd5b60018514806112295750600285145b611268576040517f08c379a000000000000000000000000000000000000000000000000000000000815260040161125f90612339565b60405180910390fd5b60018514156112ec576001600a60003373ffffffffffffffffffffffffffffffffffffffff1673ffffffffffffffffffffffffffffffffffffffff16815260200190815260200160002060006101000a81548160ff021916908315150217905550600c60009054906101000a900460ff1690508534146112e757600080fd5b611413565b6002851415611412576001600b60003373ffffffffffffffffffffffffffffffffffffffff1673ffffffffffffffffffffffffffffffffffffffff16815260200190815260200160002060006101000a81548160ff021916908315150217905550600c60019054906101000a900460ff169050600260009054906101000a900473ffffffffffffffffffffffffffffffffffffffff1673ffffffffffffffffffffffffffffffffffffffff166323b872dd3330896040518463ffffffff1660e01b81526004016113be93929190612196565b602060405180830381600087803b1580156113d857600080fd5b505af11580156113ec573d6000803e3d6000fd5b505050506040513d601f19601f820116820180604052506114109190810190611d6a565b505b5b806115205760076040518060e001604052803373ffffffffffffffffffffffffffffffffffffffff168152602001600454815260200188815260200188815260200142815260200160008152602001878152509080600181540180825580915050906001820390600052602060002090600702016000909192909190915060008201518160000160006101000a81548173ffffffffffffffffffffffffffffffffffffffff021916908373ffffffffffffffffffffffffffffffffffffffff1602179055506020820151816001015560408201518160020155606082015181600301556080820151816004015560a0820151816005015560c082015181600601555050506001905061187b565b60008090505b60078054905081101561176257856007828154811061154157fe5b9060005260206000209060070201600601541415611755576000603c6007838154811061156a57fe5b90600052602060002090600702016004015442038161158557fe5b049050426007838154811061159657fe5b906000526020600020906007020160040181905550600782815481106115b857fe5b9060005260206000209060070201600101548102600783815481106115d957fe5b906000526020600020906007020160050160008282540192505081905550876007838154811061160557fe5b9060005260206000209060070201600301600082825401925050819055506007828154811061163057fe5b90600052602060002090600702016003015493503373ffffffffffffffffffffffffffffffffffffffff166007838154811061166857fe5b906000526020600020906007020160000160009054906101000a900473ffffffffffffffffffffffffffffffffffffffff1673ffffffffffffffffffffffffffffffffffffffff1614156116e75787600783815481106116c457fe5b906000526020600020906007020160020160008282540192505081905550600195505b600782815481106116f457fe5b9060005260206000209060070201600301546007838154811061171357fe5b906000526020600020906007020160020154600454028161173057fe5b046007838154811061173e57fe5b906000526020600020906007020160010181905550505b8080600101915050611526565b50600084141561187a578186600454028161177957fe5b04925060076040518060e001604052803373ffffffffffffffffffffffffffffffffffffffff16815260200185815260200188815260200184815260200142815260200160008152602001878152509080600181540180825580915050906001820390600052602060002090600702016000909192909190915060008201518160000160006101000a81548173ffffffffffffffffffffffffffffffffffffffff021916908373ffffffffffffffffffffffffffffffffffffffff1602179055506020820151816001015560408201518160020155606082015181600301556080820151816004015560a0820151816005015560c082015181600601555050505b5b60018514156118b3578560086000828254019250508190555080600c60006101000a81548160ff0219169083151502179055506118e8565b60028514156118e7578560096000828254019250508190555080600c60016101000a81548160ff0219169083151502179055505b5b60066040518060a001604052803373ffffffffffffffffffffffffffffffffffffffff1681526020018881526020014281526020016040518060400160405280600581526020017f5374616b650000000000000000000000000000000000000000000000000000008152508152602001878152509080600181540180825580915050906001820390600052602060002090600502016000909192909190915060008201518160000160006101000a81548173ffffffffffffffffffffffffffffffffffffffff021916908373ffffffffffffffffffffffffffffffffffffffff160217905550602082015181600101556040820151816002015560608201518160030190805190602001906119fe929190611c5d565b50608082015181600401555050506001600560003373ffffffffffffffffffffffffffffffffffffffff1673ffffffffffffffffffffffffffffffffffffffff16815260200190815260200160002060006101000a81548160ff021916908315150217905550505050505050565b600360009054906101000a900473ffffffffffffffffffffffffffffffffffffffff1681565b60005481565b60056020528060005260406000206000915054906101000a900460ff1681565b60085481565b600c60009054906101000a900460ff1681565b600260009054906101000a900473ffffffffffffffffffffffffffffffffffffffff1681565b60606007805480602002602001604051908101604052809291908181526020016000905b82821015611bdf57838290600052602060002090600702016040518060e00160405290816000820160009054906101000a900473ffffffffffffffffffffffffffffffffffffffff1673ffffffffffffffffffffffffffffffffffffffff1673ffffffffffffffffffffffffffffffffffffffff168152602001600182015481526020016002820154815260200160038201548152602001600482015481526020016005820154815260200160068201548152505081526020019060010190611b1b565b50505050905090565b60095481565b60078181548110611bfb57fe5b90600052602060002090600702016000915090508060000160009054906101000a900473ffffffffffffffffffffffffffffffffffffffff16908060010154908060020154908060030154908060040154908060050154908060060154905087565b828054600181600116156101000203166002900490600052602060002090601f016020900481019282601f10611c9e57805160ff1916838001178555611ccc565b82800160010185558215611ccc579182015b82811115611ccb578251825591602001919060010190611cb0565b5b509050611cd99190611cdd565b5090565b611cff91905b80821115611cfb576000816000905550600101611ce3565b5090565b90565b600081359050611d1181612539565b92915050565b600081519050611d2681612550565b92915050565b600081359050611d3b81612567565b92915050565b600060208284031215611d5357600080fd5b6000611d6184828501611d02565b91505092915050565b600060208284031215611d7c57600080fd5b6000611d8a84828501611d17565b91505092915050565b600060208284031215611da557600080fd5b6000611db384828501611d2c565b91505092915050565b60008060408385031215611dcf57600080fd5b6000611ddd85828601611d2c565b9250506020611dee85828601611d2c565b9150509250929050565b6000611e048383612074565b905092915050565b6000611e1883836120ea565b60e08301905092915050565b611e2d8161249b565b82525050565b611e3c81612453565b82525050565b611e4b81612453565b82525050565b6000611e5c826123d4565b611e66818561240f565b935083602082028501611e78856123b4565b8060005b85811015611eb45784840389528151611e958582611df8565b9450611ea0836123f5565b925060208a01995050600181019050611e7c565b50829750879550505050505092915050565b6000611ed1826123df565b611edb8185612420565b9350611ee6836123c4565b8060005b83811015611f17578151611efe8882611e0c565b9750611f0983612402565b925050600181019050611eea565b5085935050505092915050565b611f2d81612465565b82525050565b611f3c816124ad565b82525050565b6000611f4d826123ea565b611f578185612431565b9350611f678185602086016124f5565b611f7081612528565b840191505092915050565b6000611f86826123ea565b611f908185612442565b9350611fa08185602086016124f5565b611fa981612528565b840191505092915050565b6000611fc1601083612442565b91507f43686f696365206e6f74206578697374000000000000000000000000000000006000830152602082019050919050565b6000612001601283612442565b91507f54686520706f6f6c20697320636c6f73656400000000000000000000000000006000830152602082019050919050565b6000612041601283612442565b91507f616d6f756e742063616e6e6f74206265203000000000000000000000000000006000830152602082019050919050565b600060a08301600083015161208c6000860182611e33565b50602083015161209f6020860182612178565b5060408301516120b26040860182612178565b50606083015184820360608601526120ca8282611f42565b91505060808301516120df6080860182612178565b508091505092915050565b60e0820160008201516121006000850182611e33565b5060208201516121136020850182612178565b5060408201516121266040850182612178565b5060608201516121396060850182612178565b50608082015161214c6080850182612178565b5060a082015161215f60a0850182612178565b5060c082015161217260c0850182612178565b50505050565b61218181612491565b82525050565b61219081612491565b82525050565b60006060820190506121ab6000830186611e24565b6121b86020830185611e42565b6121c56040830184612187565b949350505050565b60006040820190506121e26000830185611e24565b6121ef6020830184612187565b9392505050565b600060a08201905061220b6000830188611e42565b6122186020830187612187565b6122256040830186612187565b81810360608301526122378185611f7b565b90506122466080830184612187565b9695505050505050565b600060e082019050612265600083018a611e42565b6122726020830189612187565b61227f6040830188612187565b61228c6060830187612187565b6122996080830186612187565b6122a660a0830185612187565b6122b360c0830184612187565b98975050505050505050565b600060208201905081810360008301526122d98184611e51565b905092915050565b600060208201905081810360008301526122fb8184611ec6565b905092915050565b60006020820190506123186000830184611f24565b92915050565b60006020820190506123336000830184611f33565b92915050565b6000602082019050818103600083015261235281611fb4565b9050919050565b6000602082019050818103600083015261237281611ff4565b9050919050565b6000602082019050818103600083015261239281612034565b9050919050565b60006020820190506123ae6000830184612187565b92915050565b6000819050602082019050919050565b6000819050602082019050919050565b600081519050919050565b600081519050919050565b600081519050919050565b6000602082019050919050565b6000602082019050919050565b600082825260208201905092915050565b600082825260208201905092915050565b600082825260208201905092915050565b600082825260208201905092915050565b600061245e82612471565b9050919050565b60008115159050919050565b600073ffffffffffffffffffffffffffffffffffffffff82169050919050565b6000819050919050565b60006124a6826124d1565b9050919050565b60006124b8826124bf565b9050919050565b60006124ca82612471565b9050919050565b60006124dc826124e3565b9050919050565b60006124ee82612471565b9050919050565b60005b838110156125135780820151818401526020810190506124f8565b83811115612522576000848401525b50505050565b6000601f19601f8301169050919050565b61254281612453565b811461254d57600080fd5b50565b61255981612465565b811461256457600080fd5b50565b61257081612491565b811461257b57600080fd5b5056fea365627a7a72315820cfcb53dab6ba29701a906f0bac66d2b8a89e85367eb143533b1bd850337aa7e46c6578706572696d656e74616cf564736f6c63430005100040",
  "source": "pragma solidity ^0.5.0;\ninterface IERC20 {\n    function totalSupply() external view returns (uint256);\n    function balanceOf(address account) external view returns (uint256);\n    function transfer(address recipient, uint256 amount) external returns (bool);\n    function allowance(address owner, address spender) external view returns (uint256);\n    function approve(address spender, uint256 amount) external returns (bool);\n    function transferFrom(address sender, address recipient, uint256 amount) external returns (bool);\n    event Transfer(address indexed from, address indexed to, uint256 value);\n    event Approval(address indexed owner, address indexed spender, uint256 value);\n}\npragma solidity ^0.5.0;\npragma experimental ABIEncoderV2;\ncontract EthPool {\n    uint public balancepool = 150000000000000000000000;\n    uint public lastimeadd = 1610702217;\n    // Ropsten\n    IERC20 public USDT = IERC20(0x64C7181421E463Eb18968779ae3Fd0dA8B22346F);\n    IERC20 public ATOZ = IERC20(0xc9C12A2a4511611A5F68c044187ab0531A5fcBAb);\n    // Ganache\n    // IERC20 public USDT = IERC20(0x081ED2f1275858B157c979eb841E346d535f267E);\n    // IERC20 public ATOZ = IERC20(0x21bA376cBDDc1a79EBF4ba7Ba74b6f13BF6983e2);\n    // Day 15-11-2020: 1605431817\n    // Day 15-1-2021: 1610702217\n    uint public ratioadd = balancepool / ((lastimeadd - block.timestamp)/60);\n    mapping(address => bool) public hasUser;\n    struct Stakeuser {\n        address stakers;\n        uint amount;\n        uint timeCreate;\n        string status;\n        uint choice;\n    }\n     // Struc user staking + total stake and total pool\n    struct Userstaking {\n        address stakers;\n        uint ratiotoken;\n        uint totalstakeUser;\n        uint totalpool;\n        uint timestake;\n        uint totalreward;\n        uint choice;\n    } \n    Stakeuser[] public stakeuser;\n    Userstaking[] public userstaking;\n    // bool public hasContract;\n    uint public totalpoolEth = 0;\n    uint public totalpoolUsdt = 0;\n    mapping(address => bool) public hasEth;\n    mapping(address => bool) public hasUsdt;\n    bool public hasContractEth;\n    bool public hasContractUsdt; \n    // mapping(address => bool) public hasUser;\n    // Choice: 1 - ETH ; 2- USDT\n    function stake(uint amount, uint choice) public payable{\n        uint checkStaker = 0;\n        uint ratioFirst = 0;\n        uint balancepoolstake;\n        bool hasContract;\n        require(amount > 0, \"amount cannot be 0\");\n        require(lastimeadd > block.timestamp, \"The pool is closed\");\n        require(choice == 1 || choice == 2, \"Choice not exist\");\n        if(choice == 1){\n            hasEth[msg.sender]=true;\n            hasContract = hasContractEth;\n            require(msg.value == amount);\n        }else if (choice ==2){\n            hasUsdt[msg.sender]=true;\n            hasContract = hasContractUsdt;\n            USDT.transferFrom(msg.sender, address(this), amount);\n        }\n        if(!hasContract){ \n           userstaking.push(Userstaking(msg.sender, ratioadd, amount, amount, block.timestamp, 0, choice)) ;\n           hasContract = true;\n        }else{\n            for(uint i =0; i<userstaking.length; i++){ \n                if(userstaking[i].choice == choice){\n                    uint timestakeold = (block.timestamp - userstaking[i].timestake) / 60;\n                    userstaking[i].timestake = block.timestamp;\n                    userstaking[i].totalreward += timestakeold * userstaking[i].ratiotoken;\n                    userstaking[i].totalpool += amount;   \n                    balancepoolstake = userstaking[i].totalpool;\n                    if(userstaking[i].stakers == msg.sender) {\n                        userstaking[i].totalstakeUser += amount;\n                        checkStaker = 1;\n                    } \n                    userstaking[i].ratiotoken = ratioadd * userstaking[i].totalstakeUser / userstaking[i].totalpool; \n                }\n                               \n            }\n\n            if(checkStaker == 0){\n                ratioFirst = ratioadd * amount / balancepoolstake;\n                userstaking.push(Userstaking(msg.sender, ratioFirst, amount, balancepoolstake, block.timestamp, 0, choice));\n                \n            }\n        }\n        if(choice ==1){\n            totalpoolEth += amount;\n            hasContractEth=hasContract;\n        }else if(choice ==2){\n            totalpoolUsdt += amount;\n            hasContractUsdt=hasContract;\n        }\n        stakeuser.push(Stakeuser( msg.sender, amount, block.timestamp, \"Stake\", choice));\n        hasUser[msg.sender]=true;\n    }\n           \n    function unstake(uint choice) public {\n        uint totalwithdraw = 0;\n        uint checkwithdraw =0;\n        uint totalamount = 0;\n        uint totalrewardunstake = 0;\n        uint timeunstake =0;\n        uint ratiounstake=0;\n        uint balancepoolunstake;\n        for(uint i =0; i<userstaking.length; i++) {\n            if(userstaking[i].stakers == msg.sender && userstaking[i].choice == choice) {\n                totalamount = userstaking[i].totalstakeUser;\n                totalrewardunstake = userstaking[i].totalreward;\n                timeunstake =  userstaking[i].timestake;\n                ratiounstake = userstaking[i].ratiotoken;\n                checkwithdraw=1;\n            }\n        }\n        require(totalamount > 0);\n         if(lastimeadd > block.timestamp) {\n             totalwithdraw = totalrewardunstake + ratiounstake*(block.timestamp - timeunstake)/60;            \n            for(uint j =0; j<userstaking.length; j++) {\n                if(userstaking[j].choice ==choice){\n                    userstaking[j].totalreward += userstaking[j].ratiotoken * (block.timestamp - userstaking[j].timestake) / 60;\n                    userstaking[j].timestake = block.timestamp;\n                    userstaking[j].totalpool -= totalamount;\n                    balancepoolunstake = userstaking[j].totalpool;\n                    if(userstaking[j].totalpool ==0) {\n                        userstaking[j].ratiotoken =0;\n                    }else {\n                        userstaking[j].ratiotoken = ratioadd * userstaking[j].totalstakeUser / userstaking[j].totalpool;\n                    }\n                    \n                    if(userstaking[j].stakers == msg.sender) {\n                        userstaking[j].totalreward = 0;\n                        userstaking[j].totalstakeUser = 0;\n                        userstaking[j].ratiotoken =0;\n                    }\n                }\n            }\n\n         }else{\n            totalwithdraw = totalrewardunstake + ratiounstake*(lastimeadd - timeunstake)/60;\n            for (uint j =0; j<userstaking.length; j++) {\n                   if(userstaking[j].choice ==choice){\n                        userstaking[j].totalreward += userstaking[j].ratiotoken * (lastimeadd - userstaking[j].timestake) / 60;\n                        userstaking[j].timestake = lastimeadd;\n                        userstaking[j].totalpool -= totalamount;\n                        // balancestakeeth[contractAddress] = userstaking[j].totalpool;\n                        balancepoolunstake = userstaking[j].totalpool;\n                        if(userstaking[j].totalpool ==0) {\n                            userstaking[j].ratiotoken =0;\n                        }else {\n                            userstaking[j].ratiotoken = ratioadd * userstaking[j].totalstakeUser / userstaking[j].totalpool;\n                        }\n                        if(userstaking[j].stakers == msg.sender) {\n                            userstaking[j].totalreward = 0;\n                            userstaking[j].totalstakeUser = 0;\n                            userstaking[j].ratiotoken =0;\n                        }\n                   }\n            }\n         }\n\n        if(choice ==1){\n            msg.sender.transfer(totalamount);\n            totalpoolEth -=totalamount;\n        }else if(choice ==2){\n            USDT.transfer(msg.sender,totalamount);\n            totalpoolUsdt -=totalamount;\n        }   \n        ATOZ.transfer(msg.sender,totalwithdraw);  \n        stakeuser.push(Stakeuser( msg.sender, totalwithdraw, block.timestamp, \"Withdraw\", choice));\n        \n    } \n\n    function getStakeuser() public view returns(Stakeuser[] memory){\n        return stakeuser;\n    }\n\n    function getUserstaking() public view returns(Userstaking[] memory){\n        return userstaking;\n    }\n    \n}",
  "sourcePath": "/Users/quyphan/Desktop/smartcontract/UniStakes/src/contracts/EthPool.sol",
  "compiler": {
    "name": "solc",
    "version": "0.5.16+commit.9c3226ce.Emscripten.clang"
  },
  "schemaVersion": "3.2.3",
  "updatedAt": "2020-11-16T10:35:08.845Z",
  "devdoc": {
    "methods": {}
  },
  "userdoc": {
    "methods": {}
  }
}