{
  "contractName": "StakeToken",
  "abi": [
    {
      "constant": true,
      "inputs": [],
      "name": "DAI",
      "outputs": [
        {
          "internalType": "contract IERC20",
          "name": "",
          "type": "address"
        }
      ],
      "payable": false,
      "stateMutability": "view",
      "type": "function"
    },
    {
      "constant": true,
      "inputs": [],
      "name": "USDT",
      "outputs": [
        {
          "internalType": "contract IERC20",
          "name": "",
          "type": "address"
        }
      ],
      "payable": false,
      "stateMutability": "view",
      "type": "function"
    },
    {
      "constant": true,
      "inputs": [
        {
          "internalType": "address",
          "name": "",
          "type": "address"
        }
      ],
      "name": "balancestakedai",
      "outputs": [
        {
          "internalType": "uint256",
          "name": "",
          "type": "uint256"
        }
      ],
      "payable": false,
      "stateMutability": "view",
      "type": "function"
    },
    {
      "constant": true,
      "inputs": [
        {
          "internalType": "address",
          "name": "",
          "type": "address"
        }
      ],
      "name": "balancestakeeth",
      "outputs": [
        {
          "internalType": "uint256",
          "name": "",
          "type": "uint256"
        }
      ],
      "payable": false,
      "stateMutability": "view",
      "type": "function"
    },
    {
      "constant": true,
      "inputs": [
        {
          "internalType": "address",
          "name": "",
          "type": "address"
        }
      ],
      "name": "balancestaketoken",
      "outputs": [
        {
          "internalType": "uint256",
          "name": "",
          "type": "uint256"
        }
      ],
      "payable": false,
      "stateMutability": "view",
      "type": "function"
    },
    {
      "constant": true,
      "inputs": [
        {
          "internalType": "address",
          "name": "",
          "type": "address"
        }
      ],
      "name": "balancestakeusdt",
      "outputs": [
        {
          "internalType": "uint256",
          "name": "",
          "type": "uint256"
        }
      ],
      "payable": false,
      "stateMutability": "view",
      "type": "function"
    },
    {
      "constant": true,
      "inputs": [
        {
          "internalType": "address",
          "name": "",
          "type": "address"
        }
      ],
      "name": "hasContractdai",
      "outputs": [
        {
          "internalType": "bool",
          "name": "",
          "type": "bool"
        }
      ],
      "payable": false,
      "stateMutability": "view",
      "type": "function"
    },
    {
      "constant": true,
      "inputs": [
        {
          "internalType": "address",
          "name": "",
          "type": "address"
        }
      ],
      "name": "hasContracteth",
      "outputs": [
        {
          "internalType": "bool",
          "name": "",
          "type": "bool"
        }
      ],
      "payable": false,
      "stateMutability": "view",
      "type": "function"
    },
    {
      "constant": true,
      "inputs": [
        {
          "internalType": "address",
          "name": "",
          "type": "address"
        }
      ],
      "name": "hasContracttoken",
      "outputs": [
        {
          "internalType": "bool",
          "name": "",
          "type": "bool"
        }
      ],
      "payable": false,
      "stateMutability": "view",
      "type": "function"
    },
    {
      "constant": true,
      "inputs": [
        {
          "internalType": "address",
          "name": "",
          "type": "address"
        }
      ],
      "name": "hasContractusdt",
      "outputs": [
        {
          "internalType": "bool",
          "name": "",
          "type": "bool"
        }
      ],
      "payable": false,
      "stateMutability": "view",
      "type": "function"
    },
    {
      "constant": true,
      "inputs": [
        {
          "internalType": "address",
          "name": "",
          "type": "address"
        }
      ],
      "name": "hasUser",
      "outputs": [
        {
          "internalType": "bool",
          "name": "",
          "type": "bool"
        }
      ],
      "payable": false,
      "stateMutability": "view",
      "type": "function"
    },
    {
      "constant": true,
      "inputs": [
        {
          "internalType": "address",
          "name": "",
          "type": "address"
        }
      ],
      "name": "lengthstakeUser",
      "outputs": [
        {
          "internalType": "uint256",
          "name": "",
          "type": "uint256"
        }
      ],
      "payable": false,
      "stateMutability": "view",
      "type": "function"
    },
    {
      "constant": true,
      "inputs": [
        {
          "internalType": "uint256",
          "name": "",
          "type": "uint256"
        }
      ],
      "name": "stakeuser",
      "outputs": [
        {
          "internalType": "address",
          "name": "contractaddress",
          "type": "address"
        },
        {
          "internalType": "address",
          "name": "stakers",
          "type": "address"
        },
        {
          "internalType": "uint256",
          "name": "amount",
          "type": "uint256"
        },
        {
          "internalType": "uint256",
          "name": "timeCreate",
          "type": "uint256"
        },
        {
          "internalType": "string",
          "name": "status",
          "type": "string"
        },
        {
          "internalType": "string",
          "name": "symbol",
          "type": "string"
        },
        {
          "internalType": "uint256",
          "name": "decimal",
          "type": "uint256"
        },
        {
          "internalType": "string",
          "name": "namepool",
          "type": "string"
        },
        {
          "internalType": "uint256",
          "name": "token",
          "type": "uint256"
        }
      ],
      "payable": false,
      "stateMutability": "view",
      "type": "function"
    },
    {
      "constant": true,
      "inputs": [
        {
          "internalType": "address",
          "name": "",
          "type": "address"
        }
      ],
      "name": "totalstaker",
      "outputs": [
        {
          "internalType": "uint256",
          "name": "",
          "type": "uint256"
        }
      ],
      "payable": false,
      "stateMutability": "view",
      "type": "function"
    },
    {
      "constant": true,
      "inputs": [
        {
          "internalType": "uint256",
          "name": "",
          "type": "uint256"
        }
      ],
      "name": "userstaking",
      "outputs": [
        {
          "internalType": "address",
          "name": "contractaddress",
          "type": "address"
        },
        {
          "internalType": "address",
          "name": "stakers",
          "type": "address"
        },
        {
          "internalType": "uint256",
          "name": "ratiotoken",
          "type": "uint256"
        },
        {
          "internalType": "uint256",
          "name": "totalstakeUser",
          "type": "uint256"
        },
        {
          "internalType": "uint256",
          "name": "totalpool",
          "type": "uint256"
        },
        {
          "internalType": "uint256",
          "name": "timestake",
          "type": "uint256"
        },
        {
          "internalType": "uint256",
          "name": "totalreward",
          "type": "uint256"
        },
        {
          "internalType": "uint256",
          "name": "token",
          "type": "uint256"
        }
      ],
      "payable": false,
      "stateMutability": "view",
      "type": "function"
    },
    {
      "constant": false,
      "inputs": [
        {
          "internalType": "address",
          "name": "addressAddpool",
          "type": "address"
        },
        {
          "internalType": "address",
          "name": "contractAddress",
          "type": "address"
        },
        {
          "internalType": "uint256",
          "name": "amount",
          "type": "uint256"
        },
        {
          "internalType": "uint256",
          "name": "choice",
          "type": "uint256"
        }
      ],
      "name": "stake",
      "outputs": [],
      "payable": true,
      "stateMutability": "payable",
      "type": "function"
    },
    {
      "constant": false,
      "inputs": [
        {
          "internalType": "address",
          "name": "addressAddpool",
          "type": "address"
        },
        {
          "internalType": "address",
          "name": "contractAddress",
          "type": "address"
        },
        {
          "internalType": "uint256",
          "name": "choice",
          "type": "uint256"
        }
      ],
      "name": "unstake",
      "outputs": [],
      "payable": false,
      "stateMutability": "nonpayable",
      "type": "function"
    },
    {
      "constant": true,
      "inputs": [],
      "name": "getStakeuser",
      "outputs": [
        {
          "components": [
            {
              "internalType": "address",
              "name": "contractaddress",
              "type": "address"
            },
            {
              "internalType": "address",
              "name": "stakers",
              "type": "address"
            },
            {
              "internalType": "uint256",
              "name": "amount",
              "type": "uint256"
            },
            {
              "internalType": "uint256",
              "name": "timeCreate",
              "type": "uint256"
            },
            {
              "internalType": "string",
              "name": "status",
              "type": "string"
            },
            {
              "internalType": "string",
              "name": "symbol",
              "type": "string"
            },
            {
              "internalType": "uint256",
              "name": "decimal",
              "type": "uint256"
            },
            {
              "internalType": "string",
              "name": "namepool",
              "type": "string"
            },
            {
              "internalType": "uint256",
              "name": "token",
              "type": "uint256"
            }
          ],
          "internalType": "struct StakeToken.Stakeuser[]",
          "name": "",
          "type": "tuple[]"
        }
      ],
      "payable": false,
      "stateMutability": "view",
      "type": "function"
    },
    {
      "constant": true,
      "inputs": [],
      "name": "getUserstaking",
      "outputs": [
        {
          "components": [
            {
              "internalType": "address",
              "name": "contractaddress",
              "type": "address"
            },
            {
              "internalType": "address",
              "name": "stakers",
              "type": "address"
            },
            {
              "internalType": "uint256",
              "name": "ratiotoken",
              "type": "uint256"
            },
            {
              "internalType": "uint256",
              "name": "totalstakeUser",
              "type": "uint256"
            },
            {
              "internalType": "uint256",
              "name": "totalpool",
              "type": "uint256"
            },
            {
              "internalType": "uint256",
              "name": "timestake",
              "type": "uint256"
            },
            {
              "internalType": "uint256",
              "name": "totalreward",
              "type": "uint256"
            },
            {
              "internalType": "uint256",
              "name": "token",
              "type": "uint256"
            }
          ],
          "internalType": "struct StakeToken.Userstaking[]",
          "name": "",
          "type": "tuple[]"
        }
      ],
      "payable": false,
      "stateMutability": "view",
      "type": "function"
    },
    {
      "constant": true,
      "inputs": [
        {
          "internalType": "address",
          "name": "_address",
          "type": "address"
        }
      ],
      "name": "getTotalstaker",
      "outputs": [
        {
          "internalType": "uint256",
          "name": "",
          "type": "uint256"
        }
      ],
      "payable": false,
      "stateMutability": "view",
      "type": "function"
    }
  ],
  "bytecode": "0x60806040527364c7181421e463eb18968779ae3fd0da8b22346f6000806101000a81548173ffffffffffffffffffffffffffffffffffffffff021916908373ffffffffffffffffffffffffffffffffffffffff160217905550738224cdcf7791cf1de534d08a4300cc1f1370b925600160006101000a81548173ffffffffffffffffffffffffffffffffffffffff021916908373ffffffffffffffffffffffffffffffffffffffff1602179055503480156100b957600080fd5b506147ab806100c96000396000f3fe60806040526004361061011f5760003560e01c8063a6c4ec0e116100a0578063e0bab4c411610064578063e0bab4c414610475578063e76e7fac146104a0578063e8003031146104dd578063fde5db8e14610521578063fdeaab6d1461055e5761011f565b8063a6c4ec0e14610368578063a792b158146103a5578063c54e44eb146103e2578063ccea20651461040d578063ded0571c146104385761011f565b80635dd821ff116100e75780635dd821ff1461024b57806360829f8a146102885780637583ddc0146102b157806375d6c7da146102ee5780638c6351261461032b5761011f565b806305dbf84b146101245780633ddc3ba114610161578063434aae8a1461019e578063434b4f8c146101db57806346a11d0114610220575b600080fd5b34801561013057600080fd5b5061014b60048036036101469190810190613cd7565b61057a565b6040516101589190614494565b60405180910390f35b34801561016d57600080fd5b5061018860048036036101839190810190613cd7565b61059a565b6040516101959190614494565b60405180910390f35b3480156101aa57600080fd5b506101c560048036036101c09190810190613cd7565b6105ba565b6040516101d2919061452a565b60405180910390f35b3480156101e757600080fd5b5061020260048036036101fd9190810190613e1c565b6105d2565b60405161021799989796959493929190614330565b60405180910390f35b34801561022c57600080fd5b50610235610835565b6040516102429190614450565b60405180910390f35b34801561025757600080fd5b50610272600480360361026d9190810190613cd7565b610b4f565b60405161027f919061452a565b60405180910390f35b34801561029457600080fd5b506102af60048036036102aa9190810190613d00565b610b67565b005b3480156102bd57600080fd5b506102d860048036036102d39190810190613cd7565b6120e1565b6040516102e5919061452a565b60405180910390f35b3480156102fa57600080fd5b5061031560048036036103109190810190613cd7565b6120f9565b604051610322919061452a565b60405180910390f35b34801561033757600080fd5b50610352600480360361034d9190810190613cd7565b612111565b60405161035f9190614494565b60405180910390f35b34801561037457600080fd5b5061038f600480360361038a9190810190613cd7565b612131565b60405161039c9190614494565b60405180910390f35b3480156103b157600080fd5b506103cc60048036036103c79190810190613cd7565b612151565b6040516103d9919061452a565b60405180910390f35b3480156103ee57600080fd5b506103f7612169565b60405161040491906144af565b60405180910390f35b34801561041957600080fd5b5061042261218e565b60405161042f9190614472565b60405180910390f35b34801561044457600080fd5b5061045f600480360361045a9190810190613cd7565b6122d6565b60405161046c919061452a565b60405180910390f35b34801561048157600080fd5b5061048a61231f565b60405161049791906144af565b60405180910390f35b3480156104ac57600080fd5b506104c760048036036104c29190810190613cd7565b612345565b6040516104d4919061452a565b60405180910390f35b3480156104e957600080fd5b5061050460048036036104ff9190810190613e1c565b61235d565b6040516105189897969594939291906143d2565b60405180910390f35b34801561052d57600080fd5b5061054860048036036105439190810190613cd7565b6123f2565b6040516105559190614494565b60405180910390f35b61057860048036036105739190810190613d4f565b612412565b005b60076020528060005260406000206000915054906101000a900460ff1681565b60066020528060005260406000206000915054906101000a900460ff1681565b600d6020528060005260406000206000915090505481565b600281815481106105df57fe5b90600052602060002090600902016000915090508060000160009054906101000a900473ffffffffffffffffffffffffffffffffffffffff16908060010160009054906101000a900473ffffffffffffffffffffffffffffffffffffffff1690806002015490806003015490806004018054600181600116156101000203166002900480601f0160208091040260200160405190810160405280929190818152602001828054600181600116156101000203166002900480156106e35780601f106106b8576101008083540402835291602001916106e3565b820191906000526020600020905b8154815290600101906020018083116106c657829003601f168201915b505050505090806005018054600181600116156101000203166002900480601f0160208091040260200160405190810160405280929190818152602001828054600181600116156101000203166002900480156107815780601f1061075657610100808354040283529160200191610781565b820191906000526020600020905b81548152906001019060200180831161076457829003601f168201915b505050505090806006015490806007018054600181600116156101000203166002900480601f0160208091040260200160405190810160405280929190818152602001828054600181600116156101000203166002900480156108255780601f106107fa57610100808354040283529160200191610825565b820191906000526020600020905b81548152906001019060200180831161080857829003601f168201915b5050505050908060080154905089565b60606002805480602002602001604051908101604052809291908181526020016000905b82821015610b465783829060005260206000209060090201604051806101200160405290816000820160009054906101000a900473ffffffffffffffffffffffffffffffffffffffff1673ffffffffffffffffffffffffffffffffffffffff1673ffffffffffffffffffffffffffffffffffffffff1681526020016001820160009054906101000a900473ffffffffffffffffffffffffffffffffffffffff1673ffffffffffffffffffffffffffffffffffffffff1673ffffffffffffffffffffffffffffffffffffffff1681526020016002820154815260200160038201548152602001600482018054600181600116156101000203166002900480601f0160208091040260200160405190810160405280929190818152602001828054600181600116156101000203166002900480156109d65780601f106109ab576101008083540402835291602001916109d6565b820191906000526020600020905b8154815290600101906020018083116109b957829003601f168201915b50505050508152602001600582018054600181600116156101000203166002900480601f016020809104026020016040519081016040528092919081815260200182805460018160011615610100020316600290048015610a785780601f10610a4d57610100808354040283529160200191610a78565b820191906000526020600020905b815481529060010190602001808311610a5b57829003601f168201915b5050505050815260200160068201548152602001600782018054600181600116156101000203166002900480601f016020809104026020016040519081016040528092919081815260200182805460018160011615610100020316600290048015610b245780601f10610af957610100808354040283529160200191610b24565b820191906000526020600020905b815481529060010190602001808311610b0757829003601f168201915b5050505050815260200160088201548152505081526020019060010190610859565b50505050905090565b600a6020528060005260406000206000915090505481565b60008390508073ffffffffffffffffffffffffffffffffffffffff1663def07fba846040518263ffffffff1660e01b8152600401610ba5919061427e565b60206040518083038186803b158015610bbd57600080fd5b505afa158015610bd1573d6000803e3d6000fd5b505050506040513d601f19601f82011682018060405250610bf59190810190613e45565b600f819055508073ffffffffffffffffffffffffffffffffffffffff16631a4b5e8b846040518263ffffffff1660e01b8152600401610c34919061427e565b60206040518083038186803b158015610c4c57600080fd5b505afa158015610c60573d6000803e3d6000fd5b505050506040513d601f19601f82011682018060405250610c849190810190613db2565b601060006101000a81548160ff0219169083151502179055508073ffffffffffffffffffffffffffffffffffffffff1663fae6a5c7846040518263ffffffff1660e01b8152600401610cd6919061427e565b60206040518083038186803b158015610cee57600080fd5b505afa158015610d02573d6000803e3d6000fd5b505050506040513d601f19601f82011682018060405250610d269190810190613db2565b601060016101000a81548160ff0219169083151502179055508073ffffffffffffffffffffffffffffffffffffffff16631ddf74fc846040518263ffffffff1660e01b8152600401610d78919061427e565b60206040518083038186803b158015610d9057600080fd5b505afa158015610da4573d6000803e3d6000fd5b505050506040513d601f19601f82011682018060405250610dc89190810190613db2565b601060026101000a81548160ff0219169083151502179055508073ffffffffffffffffffffffffffffffffffffffff1663a400f5e7846040518263ffffffff1660e01b8152600401610e1a919061427e565b60206040518083038186803b158015610e3257600080fd5b505afa158015610e46573d6000803e3d6000fd5b505050506040513d601f19601f82011682018060405250610e6a9190810190613db2565b601060036101000a81548160ff0219169083151502179055508073ffffffffffffffffffffffffffffffffffffffff1663c9b2e522846040518263ffffffff1660e01b8152600401610ebc919061427e565b60006040518083038186803b158015610ed457600080fd5b505afa158015610ee8573d6000803e3d6000fd5b505050506040513d6000823e3d601f19601f82011682018060405250610f119190810190613ddb565b60119080519060200190610f26929190613b0a565b508073ffffffffffffffffffffffffffffffffffffffff1663966da2b8846040518263ffffffff1660e01b8152600401610f60919061427e565b60206040518083038186803b158015610f7857600080fd5b505afa158015610f8c573d6000803e3d6000fd5b505050506040513d601f19601f82011682018060405250610fb09190810190613e45565b6012819055508073ffffffffffffffffffffffffffffffffffffffff16635fd4b08a846040518263ffffffff1660e01b8152600401610fef919061427e565b60006040518083038186803b15801561100757600080fd5b505afa15801561101b573d6000803e3d6000fd5b505050506040513d6000823e3d601f19601f820116820180604052506110449190810190613ddb565b60139080519060200190611059929190613b0a565b508073ffffffffffffffffffffffffffffffffffffffff1663754b2707846040518263ffffffff1660e01b8152600401611093919061427e565b60206040518083038186803b1580156110ab57600080fd5b505afa1580156110bf573d6000803e3d6000fd5b505050506040513d601f19601f820116820180604052506110e39190810190613e45565b601481905550600080905060008090506000809050600080905060008090506000809050600080600090505b6003805490508110156112c2578a73ffffffffffffffffffffffffffffffffffffffff166003828154811061114057fe5b906000526020600020906008020160000160009054906101000a900473ffffffffffffffffffffffffffffffffffffffff1673ffffffffffffffffffffffffffffffffffffffff161480156111fe57503373ffffffffffffffffffffffffffffffffffffffff16600382815481106111b457fe5b906000526020600020906008020160010160009054906101000a900473ffffffffffffffffffffffffffffffffffffffff1673ffffffffffffffffffffffffffffffffffffffff16145b80156112275750896003828154811061121357fe5b906000526020600020906008020160070154145b156112b5576003818154811061123957fe5b90600052602060002090600802016003015495506003818154811061125a57fe5b90600052602060002090600802016006015494506003818154811061127b57fe5b90600052602060002090600802016005015493506003818154811061129c57fe5b9060005260206000209060080201600201549250600196505b808060010191505061110f565b50600085116112d057600080fd5b42600f54111561163157603c8342038302816112e857fe5b048401965060008090505b60038054905081101561162b578a73ffffffffffffffffffffffffffffffffffffffff166003828154811061132457fe5b906000526020600020906008020160000160009054906101000a900473ffffffffffffffffffffffffffffffffffffffff1673ffffffffffffffffffffffffffffffffffffffff161480156113965750896003828154811061138257fe5b906000526020600020906008020160070154145b1561161e57603c600382815481106113aa57fe5b9060005260206000209060080201600501544203600383815481106113cb57fe5b90600052602060002090600802016002015402816113e557fe5b04600382815481106113f357fe5b906000526020600020906008020160060160008282540192505081905550426003828154811061141f57fe5b906000526020600020906008020160050181905550856003828154811061144257fe5b9060005260206000209060080201600401600082825403925050819055506003818154811061146d57fe5b906000526020600020906008020160040154915060006003828154811061149057fe5b90600052602060002090600802016004015414156114d1576000600382815481106114b757fe5b90600052602060002090600802016002018190555061153e565b600381815481106114de57fe5b906000526020600020906008020160040154600382815481106114fd57fe5b906000526020600020906008020160030154601454028161151a57fe5b046003828154811061152857fe5b9060005260206000209060080201600201819055505b3373ffffffffffffffffffffffffffffffffffffffff166003828154811061156257fe5b906000526020600020906008020160010160009054906101000a900473ffffffffffffffffffffffffffffffffffffffff1673ffffffffffffffffffffffffffffffffffffffff16141561161d576000600382815481106115bf57fe5b9060005260206000209060080201600601819055506000600382815481106115e357fe5b90600052602060002090600802016003018190555060006003828154811061160757fe5b9060005260206000209060080201600201819055505b5b80806001019150506112f3565b5061198a565b603c83600f540383028161164157fe5b048401965060008090505b600380549050811015611988578a73ffffffffffffffffffffffffffffffffffffffff166003828154811061167d57fe5b906000526020600020906008020160000160009054906101000a900473ffffffffffffffffffffffffffffffffffffffff1673ffffffffffffffffffffffffffffffffffffffff161480156116ef575089600382815481106116db57fe5b906000526020600020906008020160070154145b1561197b57603c6003828154811061170357fe5b906000526020600020906008020160050154600f54036003838154811061172657fe5b906000526020600020906008020160020154028161174057fe5b046003828154811061174e57fe5b906000526020600020906008020160060160008282540192505081905550600f546003828154811061177c57fe5b906000526020600020906008020160050181905550856003828154811061179f57fe5b906000526020600020906008020160040160008282540392505081905550600381815481106117ca57fe5b90600052602060002090600802016004015491506000600382815481106117ed57fe5b906000526020600020906008020160040154141561182e5760006003828154811061181457fe5b90600052602060002090600802016002018190555061189b565b6003818154811061183b57fe5b9060005260206000209060080201600401546003828154811061185a57fe5b906000526020600020906008020160030154601454028161187757fe5b046003828154811061188557fe5b9060005260206000209060080201600201819055505b3373ffffffffffffffffffffffffffffffffffffffff16600382815481106118bf57fe5b906000526020600020906008020160010160009054906101000a900473ffffffffffffffffffffffffffffffffffffffff1673ffffffffffffffffffffffffffffffffffffffff16141561197a5760006003828154811061191c57fe5b90600052602060002090600802016006018190555060006003828154811061194057fe5b90600052602060002090600802016003018190555060006003828154811061196457fe5b9060005260206000209060080201600201819055505b5b808060010191505061164c565b505b6001891415611a3c57601060019054906101000a900460ff166119ac57600080fd5b80600860008c73ffffffffffffffffffffffffffffffffffffffff1673ffffffffffffffffffffffffffffffffffffffff168152602001908152602001600020819055503373ffffffffffffffffffffffffffffffffffffffff166108fc869081150290604051600060405180830381858888f19350505050158015611a36573d6000803e3d6000fd5b50611d50565b6002891415611b5657601060029054906101000a900460ff16611a5e57600080fd5b80600960008c73ffffffffffffffffffffffffffffffffffffffff1673ffffffffffffffffffffffffffffffffffffffff168152602001908152602001600020819055506000809054906101000a900473ffffffffffffffffffffffffffffffffffffffff1673ffffffffffffffffffffffffffffffffffffffff1663a9059cbb33876040518363ffffffff1660e01b8152600401611afe9291906142d0565b602060405180830381600087803b158015611b1857600080fd5b505af1158015611b2c573d6000803e3d6000fd5b505050506040513d601f19601f82011682018060405250611b509190810190613db2565b50611d4f565b6003891415611c7157601060039054906101000a900460ff16611b7857600080fd5b80600a60008c73ffffffffffffffffffffffffffffffffffffffff1673ffffffffffffffffffffffffffffffffffffffff16815260200190815260200160002081905550600160009054906101000a900473ffffffffffffffffffffffffffffffffffffffff1673ffffffffffffffffffffffffffffffffffffffff1663a9059cbb33876040518363ffffffff1660e01b8152600401611c199291906142d0565b602060405180830381600087803b158015611c3357600080fd5b505af1158015611c47573d6000803e3d6000fd5b505050506040513d601f19601f82011682018060405250611c6b9190810190613db2565b50611d4e565b6000891415611d4d5780600b60008c73ffffffffffffffffffffffffffffffffffffffff1673ffffffffffffffffffffffffffffffffffffffff168152602001908152602001600020819055508973ffffffffffffffffffffffffffffffffffffffff1663a9059cbb33876040518363ffffffff1660e01b8152600401611cf99291906142d0565b602060405180830381600087803b158015611d1357600080fd5b505af1158015611d27573d6000803e3d6000fd5b505050506040513d601f19601f82011682018060405250611d4b9190810190613db2565b505b5b5b5b8773ffffffffffffffffffffffffffffffffffffffff16631f99eae08b338a6040518463ffffffff1660e01b8152600401611d8d939291906142f9565b600060405180830381600087803b158015611da757600080fd5b505af1158015611dbb573d6000803e3d6000fd5b5050505060026040518061012001604052808c73ffffffffffffffffffffffffffffffffffffffff1681526020013373ffffffffffffffffffffffffffffffffffffffff1681526020018981526020014281526020016040518060400160405280600881526020017f5769746864726177000000000000000000000000000000000000000000000000815250815260200160118054600181600116156101000203166002900480601f016020809104026020016040519081016040528092919081815260200182805460018160011615610100020316600290048015611ee25780601f10611eb757610100808354040283529160200191611ee2565b820191906000526020600020905b815481529060010190602001808311611ec557829003601f168201915b50505050508152602001601254815260200160138054600181600116156101000203166002900480601f016020809104026020016040519081016040528092919081815260200182805460018160011615610100020316600290048015611f8a5780601f10611f5f57610100808354040283529160200191611f8a565b820191906000526020600020905b815481529060010190602001808311611f6d57829003601f168201915b505050505081526020018b8152509080600181540180825580915050906001820390600052602060002090600902016000909192909190915060008201518160000160006101000a81548173ffffffffffffffffffffffffffffffffffffffff021916908373ffffffffffffffffffffffffffffffffffffffff16021790555060208201518160010160006101000a81548173ffffffffffffffffffffffffffffffffffffffff021916908373ffffffffffffffffffffffffffffffffffffffff16021790555060408201518160020155606082015181600301556080820151816004019080519060200190612081929190613b8a565b5060a082015181600501908051906020019061209e929190613b8a565b5060c0820151816006015560e08201518160070190805190602001906120c5929190613b8a565b5061010082015181600801555050505050505050505050505050565b60096020528060005260406000206000915090505481565b60086020528060005260406000206000915090505481565b60046020528060005260406000206000915054906101000a900460ff1681565b600e6020528060005260406000206000915054906101000a900460ff1681565b600b6020528060005260406000206000915090505481565b6000809054906101000a900473ffffffffffffffffffffffffffffffffffffffff1681565b60606003805480602002602001604051908101604052809291908181526020016000905b828210156122cd5783829060005260206000209060080201604051806101000160405290816000820160009054906101000a900473ffffffffffffffffffffffffffffffffffffffff1673ffffffffffffffffffffffffffffffffffffffff1673ffffffffffffffffffffffffffffffffffffffff1681526020016001820160009054906101000a900473ffffffffffffffffffffffffffffffffffffffff1673ffffffffffffffffffffffffffffffffffffffff1673ffffffffffffffffffffffffffffffffffffffff1681526020016002820154815260200160038201548152602001600482015481526020016005820154815260200160068201548152602001600782015481525050815260200190600101906121b2565b50505050905090565b6000600d60008373ffffffffffffffffffffffffffffffffffffffff1673ffffffffffffffffffffffffffffffffffffffff168152602001908152602001600020549050919050565b600160009054906101000a900473ffffffffffffffffffffffffffffffffffffffff1681565b600c6020528060005260406000206000915090505481565b6003818154811061236a57fe5b90600052602060002090600802016000915090508060000160009054906101000a900473ffffffffffffffffffffffffffffffffffffffff16908060010160009054906101000a900473ffffffffffffffffffffffffffffffffffffffff16908060020154908060030154908060040154908060050154908060060154908060070154905088565b60056020528060005260406000206000915054906101000a900460ff1681565b60008490508073ffffffffffffffffffffffffffffffffffffffff1663def07fba856040518263ffffffff1660e01b8152600401612450919061427e565b60206040518083038186803b15801561246857600080fd5b505afa15801561247c573d6000803e3d6000fd5b505050506040513d601f19601f820116820180604052506124a09190810190613e45565b600f819055508073ffffffffffffffffffffffffffffffffffffffff16631a4b5e8b856040518263ffffffff1660e01b81526004016124df919061427e565b60206040518083038186803b1580156124f757600080fd5b505afa15801561250b573d6000803e3d6000fd5b505050506040513d601f19601f8201168201806040525061252f9190810190613db2565b601060006101000a81548160ff0219169083151502179055508073ffffffffffffffffffffffffffffffffffffffff1663fae6a5c7856040518263ffffffff1660e01b8152600401612581919061427e565b60206040518083038186803b15801561259957600080fd5b505afa1580156125ad573d6000803e3d6000fd5b505050506040513d601f19601f820116820180604052506125d19190810190613db2565b601060016101000a81548160ff0219169083151502179055508073ffffffffffffffffffffffffffffffffffffffff16631ddf74fc856040518263ffffffff1660e01b8152600401612623919061427e565b60206040518083038186803b15801561263b57600080fd5b505afa15801561264f573d6000803e3d6000fd5b505050506040513d601f19601f820116820180604052506126739190810190613db2565b601060026101000a81548160ff0219169083151502179055508073ffffffffffffffffffffffffffffffffffffffff1663a400f5e7856040518263ffffffff1660e01b81526004016126c5919061427e565b60206040518083038186803b1580156126dd57600080fd5b505afa1580156126f1573d6000803e3d6000fd5b505050506040513d601f19601f820116820180604052506127159190810190613db2565b601060036101000a81548160ff0219169083151502179055508073ffffffffffffffffffffffffffffffffffffffff1663c9b2e522856040518263ffffffff1660e01b8152600401612767919061427e565b60006040518083038186803b15801561277f57600080fd5b505afa158015612793573d6000803e3d6000fd5b505050506040513d6000823e3d601f19601f820116820180604052506127bc9190810190613ddb565b601190805190602001906127d1929190613b0a565b508073ffffffffffffffffffffffffffffffffffffffff1663966da2b8856040518263ffffffff1660e01b815260040161280b919061427e565b60206040518083038186803b15801561282357600080fd5b505afa158015612837573d6000803e3d6000fd5b505050506040513d601f19601f8201168201806040525061285b9190810190613e45565b6012819055508073ffffffffffffffffffffffffffffffffffffffff16635fd4b08a856040518263ffffffff1660e01b815260040161289a919061427e565b60006040518083038186803b1580156128b257600080fd5b505afa1580156128c6573d6000803e3d6000fd5b505050506040513d6000823e3d601f19601f820116820180604052506128ef9190810190613ddb565b60139080519060200190612904929190613b0a565b508073ffffffffffffffffffffffffffffffffffffffff1663754b2707856040518263ffffffff1660e01b815260040161293e919061427e565b60206040518083038186803b15801561295657600080fd5b505afa15801561296a573d6000803e3d6000fd5b505050506040513d601f19601f8201168201806040525061298e9190810190613e45565b601481905550600080600085116129da576040517f08c379a00000000000000000000000000000000000000000000000000000000081526004016129d19061450a565b60405180910390fd5b42600f5411612a1e576040517f08c379a0000000000000000000000000000000000000000000000000000000008152600401612a15906144ea565b60405180910390fd5b6000841480612a2d5750600184145b80612a385750600284145b80612a435750600384145b612a82576040517f08c379a0000000000000000000000000000000000000000000000000000000008152600401612a79906144ca565b60405180910390fd5b6000841415612b8857601060009054906101000a900460ff16612aa457600080fd5b600760008773ffffffffffffffffffffffffffffffffffffffff1673ffffffffffffffffffffffffffffffffffffffff16815260200190815260200160002060009054906101000a900460ff1691508573ffffffffffffffffffffffffffffffffffffffff166323b872dd3330886040518463ffffffff1660e01b8152600401612b3093929190614299565b602060405180830381600087803b158015612b4a57600080fd5b505af1158015612b5e573d6000803e3d6000fd5b505050506040513d601f19601f82011682018060405250612b829190810190613db2565b50612e58565b6001841415612c0a57601060019054906101000a900460ff16612baa57600080fd5b600460008773ffffffffffffffffffffffffffffffffffffffff1673ffffffffffffffffffffffffffffffffffffffff16815260200190815260200160002060009054906101000a900460ff169150843414612c0557600080fd5b612e57565b6002841415612d3157601060029054906101000a900460ff16612c2c57600080fd5b600660008773ffffffffffffffffffffffffffffffffffffffff1673ffffffffffffffffffffffffffffffffffffffff16815260200190815260200160002060009054906101000a900460ff1691506000809054906101000a900473ffffffffffffffffffffffffffffffffffffffff1673ffffffffffffffffffffffffffffffffffffffff166323b872dd3330886040518463ffffffff1660e01b8152600401612cd993929190614299565b602060405180830381600087803b158015612cf357600080fd5b505af1158015612d07573d6000803e3d6000fd5b505050506040513d601f19601f82011682018060405250612d2b9190810190613db2565b50612e56565b6003841415612e5557601060039054906101000a900460ff16612d5357600080fd5b600560008773ffffffffffffffffffffffffffffffffffffffff1673ffffffffffffffffffffffffffffffffffffffff16815260200190815260200160002060009054906101000a900460ff169150600160009054906101000a900473ffffffffffffffffffffffffffffffffffffffff1673ffffffffffffffffffffffffffffffffffffffff166323b872dd3330886040518463ffffffff1660e01b8152600401612e0193929190614299565b602060405180830381600087803b158015612e1b57600080fd5b505af1158015612e2f573d6000803e3d6000fd5b505050506040513d601f19601f82011682018060405250612e539190810190613db2565b505b5b5b5b60026040518061012001604052808873ffffffffffffffffffffffffffffffffffffffff1681526020013373ffffffffffffffffffffffffffffffffffffffff1681526020018781526020014281526020016040518060400160405280600581526020017f5374616b65000000000000000000000000000000000000000000000000000000815250815260200160118054600181600116156101000203166002900480601f016020809104026020016040519081016040528092919081815260200182805460018160011615610100020316600290048015612f7b5780601f10612f5057610100808354040283529160200191612f7b565b820191906000526020600020905b815481529060010190602001808311612f5e57829003601f168201915b50505050508152602001601254815260200160138054600181600116156101000203166002900480601f0160208091040260200160405190810160405280929190818152602001828054600181600116156101000203166002900480156130235780601f10612ff857610100808354040283529160200191613023565b820191906000526020600020905b81548152906001019060200180831161300657829003601f168201915b50505050508152602001868152509080600181540180825580915050906001820390600052602060002090600902016000909192909190915060008201518160000160006101000a81548173ffffffffffffffffffffffffffffffffffffffff021916908373ffffffffffffffffffffffffffffffffffffffff16021790555060208201518160010160006101000a81548173ffffffffffffffffffffffffffffffffffffffff021916908373ffffffffffffffffffffffffffffffffffffffff1602179055506040820151816002015560608201518160030155608082015181600401908051906020019061311a929190613b8a565b5060a0820151816005019080519060200190613137929190613b8a565b5060c0820151816006015560e082015181600701908051906020019061315e929190613b8a565b50610100820151816008015550505060008090506000809050836133395760036040518061010001604052808a73ffffffffffffffffffffffffffffffffffffffff1681526020013373ffffffffffffffffffffffffffffffffffffffff168152602001601454815260200189815260200189815260200142815260200160008152602001888152509080600181540180825580915050906001820390600052602060002090600802016000909192909190915060008201518160000160006101000a81548173ffffffffffffffffffffffffffffffffffffffff021916908373ffffffffffffffffffffffffffffffffffffffff16021790555060208201518160010160006101000a81548173ffffffffffffffffffffffffffffffffffffffff021916908373ffffffffffffffffffffffffffffffffffffffff16021790555060408201518160020155606082015181600301556080820151816004015560a0820151816005015560c0820151816006015560e08201518160070155505050869250600193506001600d60008a73ffffffffffffffffffffffffffffffffffffffff1673ffffffffffffffffffffffffffffffffffffffff168152602001908152602001600020600082825401925050819055506137bb565b60008090505b6003805490508110156135f0578873ffffffffffffffffffffffffffffffffffffffff166003828154811061337057fe5b906000526020600020906008020160000160009054906101000a900473ffffffffffffffffffffffffffffffffffffffff1673ffffffffffffffffffffffffffffffffffffffff161480156133e2575086600382815481106133ce57fe5b906000526020600020906008020160070154145b156135e3576000603c600383815481106133f857fe5b90600052602060002090600802016005015442038161341357fe5b049050426003838154811061342457fe5b9060005260206000209060080201600501819055506003828154811061344657fe5b90600052602060002090600802016002015481026003838154811061346757fe5b906000526020600020906008020160060160008282540192505081905550886003838154811061349357fe5b906000526020600020906008020160040160008282540192505081905550600382815481106134be57fe5b90600052602060002090600802016004015494503373ffffffffffffffffffffffffffffffffffffffff16600383815481106134f657fe5b906000526020600020906008020160010160009054906101000a900473ffffffffffffffffffffffffffffffffffffffff1673ffffffffffffffffffffffffffffffffffffffff16141561357557886003838154811061355257fe5b906000526020600020906008020160030160008282540192505081905550600193505b6003828154811061358257fe5b906000526020600020906008020160040154600383815481106135a157fe5b90600052602060002090600802016003015460145402816135be57fe5b04600383815481106135cc57fe5b906000526020600020906008020160020181905550505b808060010191505061333f565b5060008214156137ba578287601454028161360757fe5b04905060036040518061010001604052808a73ffffffffffffffffffffffffffffffffffffffff1681526020013373ffffffffffffffffffffffffffffffffffffffff16815260200183815260200189815260200185815260200142815260200160008152602001888152509080600181540180825580915050906001820390600052602060002090600802016000909192909190915060008201518160000160006101000a81548173ffffffffffffffffffffffffffffffffffffffff021916908373ffffffffffffffffffffffffffffffffffffffff16021790555060208201518160010160006101000a81548173ffffffffffffffffffffffffffffffffffffffff021916908373ffffffffffffffffffffffffffffffffffffffff16021790555060408201518160020155606082015181600301556080820151816004015560a0820151816005015560c0820151816006015560e082015181600701555050506001600d60008a73ffffffffffffffffffffffffffffffffffffffff1673ffffffffffffffffffffffffffffffffffffffff168152602001908152602001600020600082825401925050819055505b5b60008614156138645782600b60008a73ffffffffffffffffffffffffffffffffffffffff1673ffffffffffffffffffffffffffffffffffffffff1681526020019081526020016000208190555083600760008a73ffffffffffffffffffffffffffffffffffffffff1673ffffffffffffffffffffffffffffffffffffffff16815260200190815260200160002060006101000a81548160ff021916908315150217905550613a5e565b600186141561390d5782600860008a73ffffffffffffffffffffffffffffffffffffffff1673ffffffffffffffffffffffffffffffffffffffff1681526020019081526020016000208190555083600460008a73ffffffffffffffffffffffffffffffffffffffff1673ffffffffffffffffffffffffffffffffffffffff16815260200190815260200160002060006101000a81548160ff021916908315150217905550613a5d565b60028614156139b65782600960008a73ffffffffffffffffffffffffffffffffffffffff1673ffffffffffffffffffffffffffffffffffffffff1681526020019081526020016000208190555083600660008a73ffffffffffffffffffffffffffffffffffffffff1673ffffffffffffffffffffffffffffffffffffffff16815260200190815260200160002060006101000a81548160ff021916908315150217905550613a5c565b6003861415613a5b5782600a60008a73ffffffffffffffffffffffffffffffffffffffff1673ffffffffffffffffffffffffffffffffffffffff1681526020019081526020016000208190555083600560008a73ffffffffffffffffffffffffffffffffffffffff1673ffffffffffffffffffffffffffffffffffffffff16815260200190815260200160002060006101000a81548160ff0219169083151502179055505b5b5b5b600380549050600c60003073ffffffffffffffffffffffffffffffffffffffff1673ffffffffffffffffffffffffffffffffffffffff168152602001908152602001600020819055506001600e60003373ffffffffffffffffffffffffffffffffffffffff1673ffffffffffffffffffffffffffffffffffffffff16815260200190815260200160002060006101000a81548160ff021916908315150217905550505050505050505050565b828054600181600116156101000203166002900490600052602060002090601f016020900481019282601f10613b4b57805160ff1916838001178555613b79565b82800160010185558215613b79579182015b82811115613b78578251825591602001919060010190613b5d565b5b509050613b869190613c0a565b5090565b828054600181600116156101000203166002900490600052602060002090601f016020900481019282601f10613bcb57805160ff1916838001178555613bf9565b82800160010185558215613bf9579182015b82811115613bf8578251825591602001919060010190613bdd565b5b509050613c069190613c0a565b5090565b613c2c91905b80821115613c28576000816000905550600101613c10565b5090565b90565b600081359050613c3e81614723565b92915050565b600081519050613c538161473a565b92915050565b600082601f830112613c6a57600080fd5b8151613c7d613c7882614572565b614545565b91508082526020830160208301858383011115613c9957600080fd5b613ca48382846146df565b50505092915050565b600081359050613cbc81614751565b92915050565b600081519050613cd181614751565b92915050565b600060208284031215613ce957600080fd5b6000613cf784828501613c2f565b91505092915050565b600080600060608486031215613d1557600080fd5b6000613d2386828701613c2f565b9350506020613d3486828701613c2f565b9250506040613d4586828701613cad565b9150509250925092565b60008060008060808587031215613d6557600080fd5b6000613d7387828801613c2f565b9450506020613d8487828801613c2f565b9350506040613d9587828801613cad565b9250506060613da687828801613cad565b91505092959194509250565b600060208284031215613dc457600080fd5b6000613dd284828501613c44565b91505092915050565b600060208284031215613ded57600080fd5b600082015167ffffffffffffffff811115613e0757600080fd5b613e1384828501613c59565b91505092915050565b600060208284031215613e2e57600080fd5b6000613e3c84828501613cad565b91505092915050565b600060208284031215613e5757600080fd5b6000613e6584828501613cc2565b91505092915050565b6000613e7a83836140eb565b905092915050565b6000613e8e83836141be565b6101008301905092915050565b613ea481614685565b82525050565b613eb38161463d565b82525050565b613ec28161463d565b82525050565b6000613ed3826145be565b613edd81856145f9565b935083602082028501613eef8561459e565b8060005b85811015613f2b5784840389528151613f0c8582613e6e565b9450613f17836145df565b925060208a01995050600181019050613ef3565b50829750879550505050505092915050565b6000613f48826145c9565b613f52818561460a565b9350613f5d836145ae565b8060005b83811015613f8e578151613f758882613e82565b9750613f80836145ec565b925050600181019050613f61565b5085935050505092915050565b613fa48161464f565b82525050565b613fb381614697565b82525050565b6000613fc4826145d4565b613fce818561461b565b9350613fde8185602086016146df565b613fe781614712565b840191505092915050565b6000613ffd826145d4565b614007818561462c565b93506140178185602086016146df565b61402081614712565b840191505092915050565b600061403860108361462c565b91507f43686f696365206e6f74206578697374000000000000000000000000000000006000830152602082019050919050565b600061407860128361462c565b91507f54686520706f6f6c20697320636c6f73656400000000000000000000000000006000830152602082019050919050565b60006140b860128361462c565b91507f616d6f756e742063616e6e6f74206265203000000000000000000000000000006000830152602082019050919050565b6000610120830160008301516141046000860182613eaa565b5060208301516141176020860182613eaa565b50604083015161412a6040860182614260565b50606083015161413d6060860182614260565b50608083015184820360808601526141558282613fb9565b91505060a083015184820360a086015261416f8282613fb9565b91505060c083015161418460c0860182614260565b5060e083015184820360e086015261419c8282613fb9565b9150506101008301516141b3610100860182614260565b508091505092915050565b610100820160008201516141d56000850182613eaa565b5060208201516141e86020850182613eaa565b5060408201516141fb6040850182614260565b50606082015161420e6060850182614260565b5060808201516142216080850182614260565b5060a082015161423460a0850182614260565b5060c082015161424760c0850182614260565b5060e082015161425a60e0850182614260565b50505050565b6142698161467b565b82525050565b6142788161467b565b82525050565b60006020820190506142936000830184613eb9565b92915050565b60006060820190506142ae6000830186613e9b565b6142bb6020830185613eb9565b6142c8604083018461426f565b949350505050565b60006040820190506142e56000830185613e9b565b6142f2602083018461426f565b9392505050565b600060608201905061430e6000830186613eb9565b61431b6020830185613e9b565b614328604083018461426f565b949350505050565b600061012082019050614346600083018c613eb9565b614353602083018b613eb9565b614360604083018a61426f565b61436d606083018961426f565b818103608083015261437f8188613ff2565b905081810360a08301526143938187613ff2565b90506143a260c083018661426f565b81810360e08301526143b48185613ff2565b90506143c461010083018461426f565b9a9950505050505050505050565b6000610100820190506143e8600083018b613eb9565b6143f5602083018a613eb9565b614402604083018961426f565b61440f606083018861426f565b61441c608083018761426f565b61442960a083018661426f565b61443660c083018561426f565b61444360e083018461426f565b9998505050505050505050565b6000602082019050818103600083015261446a8184613ec8565b905092915050565b6000602082019050818103600083015261448c8184613f3d565b905092915050565b60006020820190506144a96000830184613f9b565b92915050565b60006020820190506144c46000830184613faa565b92915050565b600060208201905081810360008301526144e38161402b565b9050919050565b600060208201905081810360008301526145038161406b565b9050919050565b60006020820190508181036000830152614523816140ab565b9050919050565b600060208201905061453f600083018461426f565b92915050565b6000604051905081810181811067ffffffffffffffff8211171561456857600080fd5b8060405250919050565b600067ffffffffffffffff82111561458957600080fd5b601f19601f8301169050602081019050919050565b6000819050602082019050919050565b6000819050602082019050919050565b600081519050919050565b600081519050919050565b600081519050919050565b6000602082019050919050565b6000602082019050919050565b600082825260208201905092915050565b600082825260208201905092915050565b600082825260208201905092915050565b600082825260208201905092915050565b60006146488261465b565b9050919050565b60008115159050919050565b600073ffffffffffffffffffffffffffffffffffffffff82169050919050565b6000819050919050565b6000614690826146bb565b9050919050565b60006146a2826146a9565b9050919050565b60006146b48261465b565b9050919050565b60006146c6826146cd565b9050919050565b60006146d88261465b565b9050919050565b60005b838110156146fd5780820151818401526020810190506146e2565b8381111561470c576000848401525b50505050565b6000601f19601f8301169050919050565b61472c8161463d565b811461473757600080fd5b50565b6147438161464f565b811461474e57600080fd5b50565b61475a8161467b565b811461476557600080fd5b5056fea365627a7a72315820d9a7c6ebae0603a58d895b4c619987e298c14e80fd5fa04f191a2a57211621926c6578706572696d656e74616cf564736f6c63430005100040",
  "source": "pragma solidity ^0.5.0;\npragma experimental ABIEncoderV2;\nimport \"./AddPoolNew.sol\";\ncontract StakeToken {\n    // Ganache \n    // IERC20 public USDT = IERC20(0x081ED2f1275858B157c979eb841E346d535f267E);\n    // IERC20 public DAI = IERC20(0xAa75edf7f8e03E2C8CC15bC64CD6EfdCfB6D2717);\n    //Ropsten\n    IERC20 public USDT = IERC20(0x64C7181421E463Eb18968779ae3Fd0dA8B22346F);\n    IERC20 public DAI = IERC20(0x8224CdCF7791cF1de534d08A4300CC1f1370b925);\n    // Token:  1-ETH ; 2-USDT ; 3- DAI\n    struct Stakeuser {\n        address contractaddress;\n        address stakers;\n        uint amount;\n        uint timeCreate;\n        string status;\n        string symbol;\n        uint decimal;\n        string namepool;\n        uint token;\n    }\n     // Struc user staking + total stake and total pool\n    struct Userstaking {\n        address contractaddress;\n        address stakers;\n        uint ratiotoken;\n        uint totalstakeUser;\n        uint totalpool;\n        uint timestake;\n        uint totalreward;\n        uint token;\n    }\n    Stakeuser[] public stakeuser;\n    Userstaking[] public userstaking;\n    // Infomation Stake\n    mapping(address => bool) public hasContracteth;\n    mapping(address => bool) public hasContractdai;\n    mapping(address => bool) public hasContractusdt;\n    mapping(address => bool) public hasContracttoken;\n    mapping(address => uint) public balancestakeeth;\n    mapping(address => uint) public balancestakeusdt;\n    mapping(address => uint) public balancestakedai;\n    mapping(address => uint) public balancestaketoken;\n    mapping(address => uint) public lengthstakeUser; \n    mapping(address => uint) public totalstaker;\n     mapping(address => bool) public hasUser;\n    // Variable\n    uint lastimeadd;\n    bool hasTokentokenadd;\n    bool hasTokenethadd;\n    bool hasTokenusdtadd; \n    bool hasTokendaiadd;\n    string symboladd;\n    uint decimalpooladd;\n    string namepooladd;\n    uint ratioadd;\n    // uint balancepoolstake;\n    // SSSSSSSSSSTTTTTTTTTTAAAAAAAAAARRRRRRRRRRTTTTTTTTTT EEEEEEEEEETTTTTTTTTTHHHHHHHHHH\n    function stake(address addressAddpool, address contractAddress, uint amount, uint choice) public payable{\n        AddPoolNew addpool= AddPoolNew(addressAddpool);\n        lastimeadd = addpool.getLasttime(contractAddress);\n        hasTokentokenadd = addpool.getHastoken(contractAddress);\n        hasTokenethadd = addpool.getHaseth(contractAddress);\n        hasTokenusdtadd = addpool.getHasusdt(contractAddress);\n        hasTokendaiadd = addpool.getHasdai(contractAddress);\n        symboladd = addpool.getSymbol(contractAddress);\n        decimalpooladd = addpool.getDecimal(contractAddress);\n        namepooladd = addpool.getName(contractAddress);\n        ratioadd = addpool.getRatio(contractAddress);\n        bool hasContract;\n        uint balancepoolstake;\n         require(amount > 0, \"amount cannot be 0\");\n         require(lastimeadd > block.timestamp, \"The pool is closed\");\n         require(choice == 0 || choice == 1 || choice == 2 || choice == 3, \"Choice not exist\");\n         if(choice == 0){\n            //  TOKEN\n            require(hasTokentokenadd);\n            hasContract = hasContracttoken[contractAddress];\n            // Transfer TOKEN\n            IERC20(contractAddress).transferFrom(msg.sender, address(this), amount);\n         }else if(choice == 1){\n            //  ETH\n            require(hasTokenethadd);\n            hasContract = hasContracteth[contractAddress];\n            // Transfer ETH \n            require(msg.value == amount);\n\n         }else if(choice == 2){\n            //  USDT\n            require(hasTokenusdtadd);\n            hasContract = hasContractusdt[contractAddress];\n            // TRansfer USDT\n            USDT.transferFrom(msg.sender, address(this), amount);\n         }else if(choice == 3) {\n            //  DAI\n            require(hasTokendaiadd);\n            hasContract = hasContractdai[contractAddress];\n            // Transfer DAI\n            DAI.transferFrom(msg.sender, address(this), amount);\n         }   \n         stakeuser.push(Stakeuser(contractAddress, msg.sender, amount, block.timestamp, \"Stake\", symboladd, decimalpooladd, namepooladd, choice)); \n         uint checkStaker = 0;\n         uint ratioFirst = 0;\n        // Check add Contract\n        if(!hasContract){\n            userstaking.push(Userstaking(contractAddress, msg.sender, ratioadd , amount, amount,block.timestamp,0, choice));\n            balancepoolstake= amount;\n            hasContract = true;\n            totalstaker[contractAddress] +=1;\n        }else{\n            //Check Address in Contract\n            for(uint i =0; i<userstaking.length; i++){\n                if((userstaking[i].contractaddress == contractAddress) && (userstaking[i].token == choice)) {\n                    uint timestakeold = (block.timestamp - userstaking[i].timestake) / 60;\n                    userstaking[i].timestake = block.timestamp;\n                    userstaking[i].totalreward += timestakeold * userstaking[i].ratiotoken;\n                    userstaking[i].totalpool += amount;  \n                    balancepoolstake = userstaking[i].totalpool;\n                    if(userstaking[i].stakers == msg.sender) {\n                        userstaking[i].totalstakeUser += amount;\n                        checkStaker = 1;\n                    }\n                    userstaking[i].ratiotoken = ratioadd * userstaking[i].totalstakeUser / userstaking[i].totalpool;\n                }\n            }\n\n            if(checkStaker == 0){\n                ratioFirst = ratioadd * amount / balancepoolstake;\n                userstaking.push(Userstaking(contractAddress, msg.sender, ratioFirst, amount, balancepoolstake, block.timestamp, 0, choice));\n                totalstaker[contractAddress] +=1;\n            }\n        }\n        if(choice == 0){\n            balancestaketoken[contractAddress] = balancepoolstake;\n            hasContracttoken[contractAddress]= hasContract;\n        }else if(choice == 1){\n            balancestakeeth[contractAddress] = balancepoolstake;\n            hasContracteth[contractAddress]= hasContract;\n        }else if(choice == 2){\n            balancestakeusdt[contractAddress] = balancepoolstake;\n            hasContractusdt[contractAddress]= hasContract;\n        }else if(choice == 3){\n            balancestakedai[contractAddress] = balancepoolstake;\n            hasContractdai[contractAddress]= hasContract;\n        }\n        lengthstakeUser[address(this)]= userstaking.length;    \n        hasUser[msg.sender]=true;   \n    }\n    function unstake(address addressAddpool, address contractAddress, uint choice) public {\n        AddPoolNew addpool= AddPoolNew(addressAddpool);\n        lastimeadd = addpool.getLasttime(contractAddress);\n        hasTokentokenadd = addpool.getHastoken(contractAddress);\n        hasTokenethadd = addpool.getHaseth(contractAddress);\n        hasTokenusdtadd = addpool.getHasusdt(contractAddress);\n        hasTokendaiadd = addpool.getHasdai(contractAddress);\n        symboladd = addpool.getSymbol(contractAddress);\n        decimalpooladd = addpool.getDecimal(contractAddress);\n        namepooladd = addpool.getName(contractAddress);\n        ratioadd = addpool.getRatio(contractAddress);\n        uint totalwithdraw = 0;\n        uint checkwithdraw =0;\n        uint totalamount = 0;\n        uint totalrewardunstake = 0;\n        uint timeunstake =0;\n        uint ratiounstake=0;\n        uint balancepoolunstake;\n        for(uint i =0; i<userstaking.length; i++) {\n            if(userstaking[i].contractaddress == contractAddress && userstaking[i].stakers == msg.sender && userstaking[i].token == choice) {\n                totalamount = userstaking[i].totalstakeUser;\n                totalrewardunstake = userstaking[i].totalreward;\n                timeunstake =  userstaking[i].timestake;\n                ratiounstake = userstaking[i].ratiotoken;\n                checkwithdraw=1;\n            }\n        }\n        require(totalamount > 0);\n         if(lastimeadd > block.timestamp) {\n             totalwithdraw = totalrewardunstake + ratiounstake*(block.timestamp - timeunstake)/60;\n            \n            for(uint j =0; j<userstaking.length; j++) {\n                if(userstaking[j].contractaddress == contractAddress && userstaking[j].token == choice) {\n                    userstaking[j].totalreward += userstaking[j].ratiotoken * (block.timestamp - userstaking[j].timestake) / 60;\n                    userstaking[j].timestake = block.timestamp;\n                    userstaking[j].totalpool -= totalamount;\n                    balancepoolunstake = userstaking[j].totalpool;\n                    // balancestakeeth[contractAddress] = userstaking[j].totalpool;\n                    if(userstaking[j].totalpool ==0) {\n                        userstaking[j].ratiotoken =0;\n                    }else {\n                        userstaking[j].ratiotoken = ratioadd * userstaking[j].totalstakeUser / userstaking[j].totalpool;\n                    }\n                    \n                    if(userstaking[j].stakers == msg.sender) {\n                        userstaking[j].totalreward = 0;\n                        userstaking[j].totalstakeUser = 0;\n                        userstaking[j].ratiotoken =0;\n                    }\n                }\n            }\n\n         }else{\n            totalwithdraw = totalrewardunstake + ratiounstake*(lastimeadd - timeunstake)/60;\n            for (uint j =0; j<userstaking.length; j++) {\n                    if(userstaking[j].contractaddress == contractAddress && userstaking[j].token == choice) {\n                        userstaking[j].totalreward += userstaking[j].ratiotoken * (lastimeadd - userstaking[j].timestake) / 60;\n                        userstaking[j].timestake = lastimeadd;\n                        userstaking[j].totalpool -= totalamount;\n                        // balancestakeeth[contractAddress] = userstaking[j].totalpool;\n                        balancepoolunstake = userstaking[j].totalpool;\n                        if(userstaking[j].totalpool ==0) {\n                            userstaking[j].ratiotoken =0;\n                        }else {\n                            userstaking[j].ratiotoken = ratioadd * userstaking[j].totalstakeUser / userstaking[j].totalpool;\n                        }\n\n                        if(userstaking[j].stakers == msg.sender) {\n                        userstaking[j].totalreward = 0;\n                        userstaking[j].totalstakeUser = 0;\n                        userstaking[j].ratiotoken =0;\n                        }\n\n                    }\n            }\n\n\n         }\n\n        if(choice ==1){\n            require(hasTokenethadd);\n            balancestakeeth[contractAddress] = balancepoolunstake;\n            msg.sender.transfer(totalamount);\n        }else if(choice == 2){\n            require(hasTokenusdtadd);\n            balancestakeusdt[contractAddress] = balancepoolunstake;\n            USDT.transfer(msg.sender,totalamount);\n\n        }else if(choice == 3){\n            require(hasTokendaiadd);\n            balancestakedai[contractAddress] = balancepoolunstake;\n            DAI.transfer(msg.sender,totalamount);\n        }else if(choice == 0){\n            balancestaketoken[contractAddress] = balancepoolunstake;\n            IERC20(contractAddress).transfer(msg.sender,totalamount);\n        } \n            // IERC20(contractAddress).transfer(msg.sender,totalwithdraw); \n            addpool.transfertoStake( contractAddress, msg.sender, totalwithdraw);          \n            stakeuser.push(Stakeuser(contractAddress, msg.sender, totalwithdraw, block.timestamp, \"Withdraw\", symboladd, decimalpooladd, namepooladd, choice));\n            // totalstaker[contractAddress] -=1;    \n    } \n    function getStakeuser() public view returns(Stakeuser[] memory){\n        return stakeuser;\n    }\n    function getUserstaking() public view returns(Userstaking[] memory){\n        return userstaking;\n    }\n    function getTotalstaker(address _address) external view returns(uint) {return totalstaker[_address];}\n}",
  "sourcePath": "/Users/quyphan/Desktop/smartcontract/UniStakes/src/contracts/StakeToken.sol",
  "compiler": {
    "name": "solc",
    "version": "0.5.16+commit.9c3226ce.Emscripten.clang"
  },
  "schemaVersion": "3.2.3",
  "updatedAt": "2020-11-24T07:58:24.735Z",
  "networkType": "ethereum",
  "devdoc": {
    "methods": {}
  },
  "userdoc": {
    "methods": {}
  }
}