{
  "contractName": "StakePool",
  "abi": [
    {
      "constant": true,
      "inputs": [],
      "name": "DAI",
      "outputs": [
        {
          "internalType": "contract IERC20",
          "name": "",
          "type": "address"
        }
      ],
      "payable": false,
      "stateMutability": "view",
      "type": "function"
    },
    {
      "constant": true,
      "inputs": [],
      "name": "USDT",
      "outputs": [
        {
          "internalType": "contract IERC20",
          "name": "",
          "type": "address"
        }
      ],
      "payable": false,
      "stateMutability": "view",
      "type": "function"
    },
    {
      "constant": true,
      "inputs": [
        {
          "internalType": "address",
          "name": "",
          "type": "address"
        }
      ],
      "name": "balance",
      "outputs": [
        {
          "internalType": "uint256",
          "name": "",
          "type": "uint256"
        }
      ],
      "payable": false,
      "stateMutability": "view",
      "type": "function"
    },
    {
      "constant": true,
      "inputs": [
        {
          "internalType": "address",
          "name": "",
          "type": "address"
        }
      ],
      "name": "balancestakedai",
      "outputs": [
        {
          "internalType": "uint256",
          "name": "",
          "type": "uint256"
        }
      ],
      "payable": false,
      "stateMutability": "view",
      "type": "function"
    },
    {
      "constant": true,
      "inputs": [
        {
          "internalType": "address",
          "name": "",
          "type": "address"
        }
      ],
      "name": "balancestakeeth",
      "outputs": [
        {
          "internalType": "uint256",
          "name": "",
          "type": "uint256"
        }
      ],
      "payable": false,
      "stateMutability": "view",
      "type": "function"
    },
    {
      "constant": true,
      "inputs": [
        {
          "internalType": "address",
          "name": "",
          "type": "address"
        }
      ],
      "name": "balancestaketoken",
      "outputs": [
        {
          "internalType": "uint256",
          "name": "",
          "type": "uint256"
        }
      ],
      "payable": false,
      "stateMutability": "view",
      "type": "function"
    },
    {
      "constant": true,
      "inputs": [
        {
          "internalType": "address",
          "name": "",
          "type": "address"
        }
      ],
      "name": "balancestakeusdt",
      "outputs": [
        {
          "internalType": "uint256",
          "name": "",
          "type": "uint256"
        }
      ],
      "payable": false,
      "stateMutability": "view",
      "type": "function"
    },
    {
      "constant": true,
      "inputs": [
        {
          "internalType": "address",
          "name": "",
          "type": "address"
        }
      ],
      "name": "decimalpool",
      "outputs": [
        {
          "internalType": "uint256",
          "name": "",
          "type": "uint256"
        }
      ],
      "payable": false,
      "stateMutability": "view",
      "type": "function"
    },
    {
      "constant": true,
      "inputs": [
        {
          "internalType": "uint256",
          "name": "",
          "type": "uint256"
        }
      ],
      "name": "detailinfopool",
      "outputs": [
        {
          "internalType": "address",
          "name": "contractaddress",
          "type": "address"
        },
        {
          "internalType": "bool",
          "name": "hasTokeneth",
          "type": "bool"
        },
        {
          "internalType": "bool",
          "name": "hasTokenusdt",
          "type": "bool"
        },
        {
          "internalType": "bool",
          "name": "hasTokendai",
          "type": "bool"
        },
        {
          "internalType": "bool",
          "name": "hasTokentoken",
          "type": "bool"
        },
        {
          "internalType": "uint256",
          "name": "balance",
          "type": "uint256"
        },
        {
          "internalType": "uint256",
          "name": "ratio",
          "type": "uint256"
        },
        {
          "internalType": "uint256",
          "name": "lastime",
          "type": "uint256"
        }
      ],
      "payable": false,
      "stateMutability": "view",
      "type": "function"
    },
    {
      "constant": true,
      "inputs": [
        {
          "internalType": "address",
          "name": "",
          "type": "address"
        }
      ],
      "name": "hasContractdai",
      "outputs": [
        {
          "internalType": "bool",
          "name": "",
          "type": "bool"
        }
      ],
      "payable": false,
      "stateMutability": "view",
      "type": "function"
    },
    {
      "constant": true,
      "inputs": [
        {
          "internalType": "address",
          "name": "",
          "type": "address"
        }
      ],
      "name": "hasContracteth",
      "outputs": [
        {
          "internalType": "bool",
          "name": "",
          "type": "bool"
        }
      ],
      "payable": false,
      "stateMutability": "view",
      "type": "function"
    },
    {
      "constant": true,
      "inputs": [
        {
          "internalType": "address",
          "name": "",
          "type": "address"
        }
      ],
      "name": "hasContracttoken",
      "outputs": [
        {
          "internalType": "bool",
          "name": "",
          "type": "bool"
        }
      ],
      "payable": false,
      "stateMutability": "view",
      "type": "function"
    },
    {
      "constant": true,
      "inputs": [
        {
          "internalType": "address",
          "name": "",
          "type": "address"
        }
      ],
      "name": "hasContractusdt",
      "outputs": [
        {
          "internalType": "bool",
          "name": "",
          "type": "bool"
        }
      ],
      "payable": false,
      "stateMutability": "view",
      "type": "function"
    },
    {
      "constant": true,
      "inputs": [
        {
          "internalType": "address",
          "name": "",
          "type": "address"
        }
      ],
      "name": "hasListed",
      "outputs": [
        {
          "internalType": "bool",
          "name": "",
          "type": "bool"
        }
      ],
      "payable": false,
      "stateMutability": "view",
      "type": "function"
    },
    {
      "constant": true,
      "inputs": [
        {
          "internalType": "address",
          "name": "",
          "type": "address"
        }
      ],
      "name": "hasTokendai",
      "outputs": [
        {
          "internalType": "bool",
          "name": "",
          "type": "bool"
        }
      ],
      "payable": false,
      "stateMutability": "view",
      "type": "function"
    },
    {
      "constant": true,
      "inputs": [
        {
          "internalType": "address",
          "name": "",
          "type": "address"
        }
      ],
      "name": "hasTokeneth",
      "outputs": [
        {
          "internalType": "bool",
          "name": "",
          "type": "bool"
        }
      ],
      "payable": false,
      "stateMutability": "view",
      "type": "function"
    },
    {
      "constant": true,
      "inputs": [
        {
          "internalType": "address",
          "name": "",
          "type": "address"
        }
      ],
      "name": "hasTokentoken",
      "outputs": [
        {
          "internalType": "bool",
          "name": "",
          "type": "bool"
        }
      ],
      "payable": false,
      "stateMutability": "view",
      "type": "function"
    },
    {
      "constant": true,
      "inputs": [
        {
          "internalType": "address",
          "name": "",
          "type": "address"
        }
      ],
      "name": "hasTokenusdt",
      "outputs": [
        {
          "internalType": "bool",
          "name": "",
          "type": "bool"
        }
      ],
      "payable": false,
      "stateMutability": "view",
      "type": "function"
    },
    {
      "constant": true,
      "inputs": [
        {
          "internalType": "address",
          "name": "",
          "type": "address"
        }
      ],
      "name": "lasttime",
      "outputs": [
        {
          "internalType": "uint256",
          "name": "",
          "type": "uint256"
        }
      ],
      "payable": false,
      "stateMutability": "view",
      "type": "function"
    },
    {
      "constant": true,
      "inputs": [],
      "name": "lengthstake",
      "outputs": [
        {
          "internalType": "uint256",
          "name": "",
          "type": "uint256"
        }
      ],
      "payable": false,
      "stateMutability": "view",
      "type": "function"
    },
    {
      "constant": true,
      "inputs": [
        {
          "internalType": "address",
          "name": "",
          "type": "address"
        }
      ],
      "name": "lengthstakeUser",
      "outputs": [
        {
          "internalType": "uint256",
          "name": "",
          "type": "uint256"
        }
      ],
      "payable": false,
      "stateMutability": "view",
      "type": "function"
    },
    {
      "constant": true,
      "inputs": [],
      "name": "lengthstaketoken",
      "outputs": [
        {
          "internalType": "uint256",
          "name": "",
          "type": "uint256"
        }
      ],
      "payable": false,
      "stateMutability": "view",
      "type": "function"
    },
    {
      "constant": true,
      "inputs": [
        {
          "internalType": "uint256",
          "name": "",
          "type": "uint256"
        }
      ],
      "name": "listtoken",
      "outputs": [
        {
          "internalType": "address",
          "name": "contractaddress",
          "type": "address"
        },
        {
          "internalType": "address",
          "name": "ownerCreate",
          "type": "address"
        },
        {
          "internalType": "string",
          "name": "iconPool",
          "type": "string"
        },
        {
          "internalType": "string",
          "name": "symPool",
          "type": "string"
        },
        {
          "internalType": "string",
          "name": "namePool",
          "type": "string"
        },
        {
          "internalType": "uint256",
          "name": "decimal",
          "type": "uint256"
        }
      ],
      "payable": false,
      "stateMutability": "view",
      "type": "function"
    },
    {
      "constant": true,
      "inputs": [
        {
          "internalType": "address",
          "name": "",
          "type": "address"
        }
      ],
      "name": "namepool",
      "outputs": [
        {
          "internalType": "string",
          "name": "",
          "type": "string"
        }
      ],
      "payable": false,
      "stateMutability": "view",
      "type": "function"
    },
    {
      "constant": true,
      "inputs": [
        {
          "internalType": "address",
          "name": "",
          "type": "address"
        }
      ],
      "name": "ownerContractpool",
      "outputs": [
        {
          "internalType": "address",
          "name": "",
          "type": "address"
        }
      ],
      "payable": false,
      "stateMutability": "view",
      "type": "function"
    },
    {
      "constant": true,
      "inputs": [
        {
          "internalType": "address",
          "name": "",
          "type": "address"
        }
      ],
      "name": "ratio",
      "outputs": [
        {
          "internalType": "uint256",
          "name": "",
          "type": "uint256"
        }
      ],
      "payable": false,
      "stateMutability": "view",
      "type": "function"
    },
    {
      "constant": true,
      "inputs": [
        {
          "internalType": "uint256",
          "name": "",
          "type": "uint256"
        }
      ],
      "name": "stakeuser",
      "outputs": [
        {
          "internalType": "address",
          "name": "contractaddress",
          "type": "address"
        },
        {
          "internalType": "address",
          "name": "stakers",
          "type": "address"
        },
        {
          "internalType": "uint256",
          "name": "amount",
          "type": "uint256"
        },
        {
          "internalType": "uint256",
          "name": "timeCreate",
          "type": "uint256"
        },
        {
          "internalType": "string",
          "name": "status",
          "type": "string"
        },
        {
          "internalType": "string",
          "name": "symbol",
          "type": "string"
        },
        {
          "internalType": "uint256",
          "name": "decimal",
          "type": "uint256"
        },
        {
          "internalType": "string",
          "name": "namepool",
          "type": "string"
        },
        {
          "internalType": "uint256",
          "name": "token",
          "type": "uint256"
        }
      ],
      "payable": false,
      "stateMutability": "view",
      "type": "function"
    },
    {
      "constant": true,
      "inputs": [
        {
          "internalType": "address",
          "name": "",
          "type": "address"
        }
      ],
      "name": "statusdepostit",
      "outputs": [
        {
          "internalType": "uint256",
          "name": "",
          "type": "uint256"
        }
      ],
      "payable": false,
      "stateMutability": "view",
      "type": "function"
    },
    {
      "constant": true,
      "inputs": [
        {
          "internalType": "address",
          "name": "",
          "type": "address"
        }
      ],
      "name": "symbol",
      "outputs": [
        {
          "internalType": "string",
          "name": "",
          "type": "string"
        }
      ],
      "payable": false,
      "stateMutability": "view",
      "type": "function"
    },
    {
      "constant": true,
      "inputs": [
        {
          "internalType": "address",
          "name": "",
          "type": "address"
        }
      ],
      "name": "totalstaker",
      "outputs": [
        {
          "internalType": "uint256",
          "name": "",
          "type": "uint256"
        }
      ],
      "payable": false,
      "stateMutability": "view",
      "type": "function"
    },
    {
      "constant": true,
      "inputs": [
        {
          "internalType": "uint256",
          "name": "",
          "type": "uint256"
        }
      ],
      "name": "userstaking",
      "outputs": [
        {
          "internalType": "address",
          "name": "contractaddress",
          "type": "address"
        },
        {
          "internalType": "address",
          "name": "stakers",
          "type": "address"
        },
        {
          "internalType": "uint256",
          "name": "ratiotoken",
          "type": "uint256"
        },
        {
          "internalType": "uint256",
          "name": "totalstakeUser",
          "type": "uint256"
        },
        {
          "internalType": "uint256",
          "name": "totalpool",
          "type": "uint256"
        },
        {
          "internalType": "uint256",
          "name": "timestake",
          "type": "uint256"
        },
        {
          "internalType": "uint256",
          "name": "totalreward",
          "type": "uint256"
        },
        {
          "internalType": "uint256",
          "name": "token",
          "type": "uint256"
        }
      ],
      "payable": false,
      "stateMutability": "view",
      "type": "function"
    },
    {
      "constant": false,
      "inputs": [
        {
          "internalType": "address",
          "name": "contractaddress",
          "type": "address"
        },
        {
          "internalType": "string",
          "name": "iconPool",
          "type": "string"
        },
        {
          "internalType": "string",
          "name": "namePool",
          "type": "string"
        },
        {
          "internalType": "string",
          "name": "symPool",
          "type": "string"
        },
        {
          "internalType": "uint256",
          "name": "decimal",
          "type": "uint256"
        },
        {
          "internalType": "uint256",
          "name": "timePool",
          "type": "uint256"
        },
        {
          "internalType": "uint256",
          "name": "balancePool",
          "type": "uint256"
        },
        {
          "internalType": "uint256",
          "name": "status",
          "type": "uint256"
        }
      ],
      "name": "addpool",
      "outputs": [],
      "payable": false,
      "stateMutability": "nonpayable",
      "type": "function"
    },
    {
      "constant": true,
      "inputs": [],
      "name": "getDetalsinfopool",
      "outputs": [
        {
          "components": [
            {
              "internalType": "address",
              "name": "contractaddress",
              "type": "address"
            },
            {
              "internalType": "bool",
              "name": "hasTokeneth",
              "type": "bool"
            },
            {
              "internalType": "bool",
              "name": "hasTokenusdt",
              "type": "bool"
            },
            {
              "internalType": "bool",
              "name": "hasTokendai",
              "type": "bool"
            },
            {
              "internalType": "bool",
              "name": "hasTokentoken",
              "type": "bool"
            },
            {
              "internalType": "uint256",
              "name": "balance",
              "type": "uint256"
            },
            {
              "internalType": "uint256",
              "name": "ratio",
              "type": "uint256"
            },
            {
              "internalType": "uint256",
              "name": "lastime",
              "type": "uint256"
            }
          ],
          "internalType": "struct StakePool.Detailinfopool[]",
          "name": "",
          "type": "tuple[]"
        }
      ],
      "payable": false,
      "stateMutability": "view",
      "type": "function"
    },
    {
      "constant": false,
      "inputs": [
        {
          "internalType": "address",
          "name": "contractAddress",
          "type": "address"
        },
        {
          "internalType": "uint256",
          "name": "amount",
          "type": "uint256"
        },
        {
          "internalType": "uint256",
          "name": "choice",
          "type": "uint256"
        }
      ],
      "name": "stake",
      "outputs": [],
      "payable": true,
      "stateMutability": "payable",
      "type": "function"
    },
    {
      "constant": false,
      "inputs": [
        {
          "internalType": "address",
          "name": "contractAddress",
          "type": "address"
        },
        {
          "internalType": "uint256",
          "name": "choice",
          "type": "uint256"
        }
      ],
      "name": "unstake",
      "outputs": [],
      "payable": false,
      "stateMutability": "nonpayable",
      "type": "function"
    }
  ],
  "bytecode": "0x608060405273081ed2f1275858b157c979eb841e346d535f267e6000806101000a81548173ffffffffffffffffffffffffffffffffffffffff021916908373ffffffffffffffffffffffffffffffffffffffff16021790555073aa75edf7f8e03e2c8cc15bc64cd6efdcfb6d2717600160006101000a81548173ffffffffffffffffffffffffffffffffffffffff021916908373ffffffffffffffffffffffffffffffffffffffff160217905550600060025560006003553480156100c357600080fd5b5061615780620000d46000396000f3fe6080604052600436106102045760003560e01c80638c63512611610118578063cbe7a3ae116100a0578063e6a1cb211161006f578063e6a1cb21146108b2578063e76e7fac146108ef578063e80030311461092c578063fde5db8e14610970578063ff04b18a146109ad57610204565b8063cbe7a3ae146107d0578063e08e29a61461080d578063e0bab4c41461084a578063e3d670d71461087557610204565b8063a8fc4e8e116100e7578063a8fc4e8e146106e2578063b92bb00e1461070d578063c2a672e014610738578063c54e44eb14610761578063c97b25471461078c57610204565b80638c635126146105ee578063a16282f91461062b578063a792b15814610668578063a86e3576146106a557610204565b80633ddc3ba11161019b5780634e00559b1161016a5780634e00559b146104bd57806358fa766f146104fa5780635dd821ff146105375780637583ddc01461057457806375d6c7da146105b157610204565b80633ddc3ba1146103c1578063434aae8a146103fe578063434b4f8c1461043b57806343b8976b1461048057610204565b80630c51b88f116101d75780630c51b88f146102e95780630ffb0983146103055780633790b249146103425780633abc13411461038457610204565b8063033018aa1461020957806305dbf84b14610232578063080fc3d91461026f5780630b40495b146102ac575b600080fd5b34801561021557600080fd5b50610230600480360361022b9190810190615721565b6109d8565b005b34801561023e57600080fd5b50610259600480360361025491908101906156f8565b6124d2565b6040516102669190615e59565b60405180910390f35b34801561027b57600080fd5b50610296600480360361029191908101906156f8565b6124f2565b6040516102a39190615e59565b60405180910390f35b3480156102b857600080fd5b506102d360048036036102ce91908101906156f8565b612512565b6040516102e09190615f11565b60405180910390f35b61030360048036036102fe9190810190615857565b61252a565b005b34801561031157600080fd5b5061032c600480360361032791908101906156f8565b613886565b6040516103399190615e59565b60405180910390f35b34801561034e57600080fd5b50610369600480360361036491908101906158cf565b6138a6565b60405161037b96959493929190615c23565b60405180910390f35b34801561039057600080fd5b506103ab60048036036103a691908101906156f8565b613af7565b6040516103b89190615e59565b60405180910390f35b3480156103cd57600080fd5b506103e860048036036103e391908101906156f8565b613b17565b6040516103f59190615e59565b60405180910390f35b34801561040a57600080fd5b50610425600480360361042091908101906156f8565b613b37565b6040516104329190615f11565b60405180910390f35b34801561044757600080fd5b50610462600480360361045d91908101906158cf565b613b4f565b60405161047799989796959493929190615c99565b60405180910390f35b34801561048c57600080fd5b506104a760048036036104a291908101906156f8565b613db2565b6040516104b49190615f11565b60405180910390f35b3480156104c957600080fd5b506104e460048036036104df91908101906156f8565b613dca565b6040516104f19190615ba8565b60405180910390f35b34801561050657600080fd5b50610521600480360361051c91908101906156f8565b613dfd565b60405161052e9190615f11565b60405180910390f35b34801561054357600080fd5b5061055e600480360361055991908101906156f8565b613e15565b60405161056b9190615f11565b60405180910390f35b34801561058057600080fd5b5061059b600480360361059691908101906156f8565b613e2d565b6040516105a89190615f11565b60405180910390f35b3480156105bd57600080fd5b506105d860048036036105d391908101906156f8565b613e45565b6040516105e59190615f11565b60405180910390f35b3480156105fa57600080fd5b50610615600480360361061091908101906156f8565b613e5d565b6040516106229190615e59565b60405180910390f35b34801561063757600080fd5b50610652600480360361064d91908101906156f8565b613e7d565b60405161065f9190615f11565b60405180910390f35b34801561067457600080fd5b5061068f600480360361068a91908101906156f8565b613e95565b60405161069c9190615f11565b60405180910390f35b3480156106b157600080fd5b506106cc60048036036106c791908101906156f8565b613ead565b6040516106d99190615e8f565b60405180910390f35b3480156106ee57600080fd5b506106f7613f5d565b6040516107049190615f11565b60405180910390f35b34801561071957600080fd5b50610722613f63565b60405161072f9190615e37565b60405180910390f35b34801561074457600080fd5b5061075f600480360361075a919081019061581b565b6140a3565b005b34801561076d57600080fd5b506107766152f1565b6040516107839190615e74565b60405180910390f35b34801561079857600080fd5b506107b360048036036107ae91908101906158cf565b615316565b6040516107c7989796959493929190615db9565b60405180910390f35b3480156107dc57600080fd5b506107f760048036036107f291908101906156f8565b6153bf565b6040516108049190615e59565b60405180910390f35b34801561081957600080fd5b50610834600480360361082f91908101906156f8565b6153df565b6040516108419190615e8f565b60405180910390f35b34801561085657600080fd5b5061085f61548f565b60405161086c9190615e74565b60405180910390f35b34801561088157600080fd5b5061089c600480360361089791908101906156f8565b6154b5565b6040516108a99190615f11565b60405180910390f35b3480156108be57600080fd5b506108d960048036036108d491908101906156f8565b6154cd565b6040516108e69190615e59565b60405180910390f35b3480156108fb57600080fd5b50610916600480360361091191908101906156f8565b6154ed565b6040516109239190615f11565b60405180910390f35b34801561093857600080fd5b50610953600480360361094e91908101906158cf565b615505565b604051610967989796959493929190615d3b565b60405180910390f35b34801561097c57600080fd5b50610997600480360361099291908101906156f8565b61559a565b6040516109a49190615e59565b60405180910390f35b3480156109b957600080fd5b506109c26155ba565b6040516109cf9190615f11565b60405180910390f35b600082116109e557600080fd5b42601060008a73ffffffffffffffffffffffffffffffffffffffff1673ffffffffffffffffffffffffffffffffffffffff1681526020019081526020016000205410610a66576040517f08c379a0000000000000000000000000000000000000000000000000000000008152600401610a5d90615ed1565b60405180910390fd5b600860008973ffffffffffffffffffffffffffffffffffffffff1673ffffffffffffffffffffffffffffffffffffffff16815260200190815260200160002060009054906101000a900460ff161580610afd575042601060008a73ffffffffffffffffffffffffffffffffffffffff1673ffffffffffffffffffffffffffffffffffffffff16815260200190815260200160002054105b156124c8576000600960008a73ffffffffffffffffffffffffffffffffffffffff1673ffffffffffffffffffffffffffffffffffffffff16815260200190815260200160002060006101000a81548160ff0219169083151502179055506000600b60008a73ffffffffffffffffffffffffffffffffffffffff1673ffffffffffffffffffffffffffffffffffffffff16815260200190815260200160002060006101000a81548160ff0219169083151502179055506000600a60008a73ffffffffffffffffffffffffffffffffffffffff1673ffffffffffffffffffffffffffffffffffffffff16815260200190815260200160002060006101000a81548160ff0219169083151502179055506000601e60008a73ffffffffffffffffffffffffffffffffffffffff1673ffffffffffffffffffffffffffffffffffffffff168152602001908152602001600020819055508773ffffffffffffffffffffffffffffffffffffffff166323b872dd3330856040518463ffffffff1660e01b8152600401610c8c93929190615bc3565b602060405180830381600087803b158015610ca657600080fd5b505af1158015610cba573d6000803e3d6000fd5b505050506040513d601f19601f82011682018060405250610cde91908101906158a6565b5080601160008a73ffffffffffffffffffffffffffffffffffffffff1673ffffffffffffffffffffffffffffffffffffffff16815260200190815260200160002081905550610e1083024201601060008a73ffffffffffffffffffffffffffffffffffffffff1673ffffffffffffffffffffffffffffffffffffffff168152602001908152602001600020819055506001600c60008a73ffffffffffffffffffffffffffffffffffffffff1673ffffffffffffffffffffffffffffffffffffffff16815260200190815260200160002060006101000a81548160ff0219169083151502179055506000811415610f6f5781600f60008a73ffffffffffffffffffffffffffffffffffffffff1673ffffffffffffffffffffffffffffffffffffffff16815260200190815260200160002081905550603c83028281610e1e57fe5b04600d60008a73ffffffffffffffffffffffffffffffffffffffff1673ffffffffffffffffffffffffffffffffffffffff168152602001908152602001600020819055506000600960008a73ffffffffffffffffffffffffffffffffffffffff1673ffffffffffffffffffffffffffffffffffffffff16815260200190815260200160002060006101000a81548160ff0219169083151502179055506000600b60008a73ffffffffffffffffffffffffffffffffffffffff1673ffffffffffffffffffffffffffffffffffffffff16815260200190815260200160002060006101000a81548160ff0219169083151502179055506000600a60008a73ffffffffffffffffffffffffffffffffffffffff1673ffffffffffffffffffffffffffffffffffffffff16815260200190815260200160002060006101000a81548160ff021916908315150217905550611b73565b60018114156111265760028281610f8257fe5b04600f60008a73ffffffffffffffffffffffffffffffffffffffff1673ffffffffffffffffffffffffffffffffffffffff16815260200190815260200160002081905550603c83600202028281610fd557fe5b04600d60008a73ffffffffffffffffffffffffffffffffffffffff1673ffffffffffffffffffffffffffffffffffffffff168152602001908152602001600020819055506001600960008a73ffffffffffffffffffffffffffffffffffffffff1673ffffffffffffffffffffffffffffffffffffffff16815260200190815260200160002060006101000a81548160ff0219169083151502179055506000600b60008a73ffffffffffffffffffffffffffffffffffffffff1673ffffffffffffffffffffffffffffffffffffffff16815260200190815260200160002060006101000a81548160ff0219169083151502179055506000600a60008a73ffffffffffffffffffffffffffffffffffffffff1673ffffffffffffffffffffffffffffffffffffffff16815260200190815260200160002060006101000a81548160ff021916908315150217905550611b72565b60028114156112dd576003828161113957fe5b04600f60008a73ffffffffffffffffffffffffffffffffffffffff1673ffffffffffffffffffffffffffffffffffffffff16815260200190815260200160002081905550603c8360030202828161118c57fe5b04600d60008a73ffffffffffffffffffffffffffffffffffffffff1673ffffffffffffffffffffffffffffffffffffffff168152602001908152602001600020819055506001600960008a73ffffffffffffffffffffffffffffffffffffffff1673ffffffffffffffffffffffffffffffffffffffff16815260200190815260200160002060006101000a81548160ff0219169083151502179055506001600a60008a73ffffffffffffffffffffffffffffffffffffffff1673ffffffffffffffffffffffffffffffffffffffff16815260200190815260200160002060006101000a81548160ff0219169083151502179055506000600b60008a73ffffffffffffffffffffffffffffffffffffffff1673ffffffffffffffffffffffffffffffffffffffff16815260200190815260200160002060006101000a81548160ff021916908315150217905550611b71565b600381141561149457600382816112f057fe5b04600f60008a73ffffffffffffffffffffffffffffffffffffffff1673ffffffffffffffffffffffffffffffffffffffff16815260200190815260200160002081905550603c8360030202828161134357fe5b04600d60008a73ffffffffffffffffffffffffffffffffffffffff1673ffffffffffffffffffffffffffffffffffffffff168152602001908152602001600020819055506001600960008a73ffffffffffffffffffffffffffffffffffffffff1673ffffffffffffffffffffffffffffffffffffffff16815260200190815260200160002060006101000a81548160ff0219169083151502179055506001600b60008a73ffffffffffffffffffffffffffffffffffffffff1673ffffffffffffffffffffffffffffffffffffffff16815260200190815260200160002060006101000a81548160ff0219169083151502179055506000600a60008a73ffffffffffffffffffffffffffffffffffffffff1673ffffffffffffffffffffffffffffffffffffffff16815260200190815260200160002060006101000a81548160ff021916908315150217905550611b70565b600481141561164b57600382816114a757fe5b04600f60008a73ffffffffffffffffffffffffffffffffffffffff1673ffffffffffffffffffffffffffffffffffffffff16815260200190815260200160002081905550603c836003020282816114fa57fe5b04600d60008a73ffffffffffffffffffffffffffffffffffffffff1673ffffffffffffffffffffffffffffffffffffffff168152602001908152602001600020819055506001600b60008a73ffffffffffffffffffffffffffffffffffffffff1673ffffffffffffffffffffffffffffffffffffffff16815260200190815260200160002060006101000a81548160ff0219169083151502179055506001600a60008a73ffffffffffffffffffffffffffffffffffffffff1673ffffffffffffffffffffffffffffffffffffffff16815260200190815260200160002060006101000a81548160ff0219169083151502179055506000600960008a73ffffffffffffffffffffffffffffffffffffffff1673ffffffffffffffffffffffffffffffffffffffff16815260200190815260200160002060006101000a81548160ff021916908315150217905550611b6f565b6005811415611802576002828161165e57fe5b04600f60008a73ffffffffffffffffffffffffffffffffffffffff1673ffffffffffffffffffffffffffffffffffffffff16815260200190815260200160002081905550603c836002020282816116b157fe5b04600d60008a73ffffffffffffffffffffffffffffffffffffffff1673ffffffffffffffffffffffffffffffffffffffff168152602001908152602001600020819055506001600a60008a73ffffffffffffffffffffffffffffffffffffffff1673ffffffffffffffffffffffffffffffffffffffff16815260200190815260200160002060006101000a81548160ff0219169083151502179055506000600960008a73ffffffffffffffffffffffffffffffffffffffff1673ffffffffffffffffffffffffffffffffffffffff16815260200190815260200160002060006101000a81548160ff0219169083151502179055506000600b60008a73ffffffffffffffffffffffffffffffffffffffff1673ffffffffffffffffffffffffffffffffffffffff16815260200190815260200160002060006101000a81548160ff021916908315150217905550611b6e565b60068114156119b9576002828161181557fe5b04600f60008a73ffffffffffffffffffffffffffffffffffffffff1673ffffffffffffffffffffffffffffffffffffffff16815260200190815260200160002081905550603c8360020202828161186857fe5b04600d60008a73ffffffffffffffffffffffffffffffffffffffff1673ffffffffffffffffffffffffffffffffffffffff168152602001908152602001600020819055506001600b60008a73ffffffffffffffffffffffffffffffffffffffff1673ffffffffffffffffffffffffffffffffffffffff16815260200190815260200160002060006101000a81548160ff0219169083151502179055506000600960008a73ffffffffffffffffffffffffffffffffffffffff1673ffffffffffffffffffffffffffffffffffffffff16815260200190815260200160002060006101000a81548160ff0219169083151502179055506000600a60008a73ffffffffffffffffffffffffffffffffffffffff1673ffffffffffffffffffffffffffffffffffffffff16815260200190815260200160002060006101000a81548160ff021916908315150217905550611b6d565b6007811415611b6c57600482816119cc57fe5b04600f60008a73ffffffffffffffffffffffffffffffffffffffff1673ffffffffffffffffffffffffffffffffffffffff16815260200190815260200160002081905550603c83600402028281611a1f57fe5b04600d60008a73ffffffffffffffffffffffffffffffffffffffff1673ffffffffffffffffffffffffffffffffffffffff168152602001908152602001600020819055506001600960008a73ffffffffffffffffffffffffffffffffffffffff1673ffffffffffffffffffffffffffffffffffffffff16815260200190815260200160002060006101000a81548160ff0219169083151502179055506001600a60008a73ffffffffffffffffffffffffffffffffffffffff1673ffffffffffffffffffffffffffffffffffffffff16815260200190815260200160002060006101000a81548160ff0219169083151502179055506001600b60008a73ffffffffffffffffffffffffffffffffffffffff1673ffffffffffffffffffffffffffffffffffffffff16815260200190815260200160002060006101000a81548160ff0219169083151502179055505b5b5b5b5b5b5b5b600860008973ffffffffffffffffffffffffffffffffffffffff1673ffffffffffffffffffffffffffffffffffffffff16815260200190815260200160002060009054906101000a900460ff166120f35760046040518060c001604052808a73ffffffffffffffffffffffffffffffffffffffff1681526020013373ffffffffffffffffffffffffffffffffffffffff168152602001898152602001878152602001888152602001868152509080600181540180825580915050906001820390600052602060002090600602016000909192909190915060008201518160000160006101000a81548173ffffffffffffffffffffffffffffffffffffffff021916908373ffffffffffffffffffffffffffffffffffffffff16021790555060208201518160010160006101000a81548173ffffffffffffffffffffffffffffffffffffffff021916908373ffffffffffffffffffffffffffffffffffffffff1602179055506040820151816002019080519060200190611cf49291906155c0565b506060820151816003019080519060200190611d119291906155c0565b506080820151816004019080519060200190611d2e9291906155c0565b5060a0820151816005015550505060056040518061010001604052808a73ffffffffffffffffffffffffffffffffffffffff168152602001600960008c73ffffffffffffffffffffffffffffffffffffffff1673ffffffffffffffffffffffffffffffffffffffff16815260200190815260200160002060009054906101000a900460ff1615158152602001600a60008c73ffffffffffffffffffffffffffffffffffffffff1673ffffffffffffffffffffffffffffffffffffffff16815260200190815260200160002060009054906101000a900460ff1615158152602001600b60008c73ffffffffffffffffffffffffffffffffffffffff1673ffffffffffffffffffffffffffffffffffffffff16815260200190815260200160002060009054906101000a900460ff1615158152602001600c60008c73ffffffffffffffffffffffffffffffffffffffff1673ffffffffffffffffffffffffffffffffffffffff16815260200190815260200160002060009054906101000a900460ff1615158152602001600f60008c73ffffffffffffffffffffffffffffffffffffffff1673ffffffffffffffffffffffffffffffffffffffff168152602001908152602001600020548152602001600d60008c73ffffffffffffffffffffffffffffffffffffffff1673ffffffffffffffffffffffffffffffffffffffff168152602001908152602001600020548152602001601060008c73ffffffffffffffffffffffffffffffffffffffff1673ffffffffffffffffffffffffffffffffffffffff168152602001908152602001600020548152509080600181540180825580915050906001820390600052602060002090600402016000909192909190915060008201518160000160006101000a81548173ffffffffffffffffffffffffffffffffffffffff021916908373ffffffffffffffffffffffffffffffffffffffff16021790555060208201518160000160146101000a81548160ff02191690831515021790555060408201518160000160156101000a81548160ff02191690831515021790555060608201518160000160166101000a81548160ff02191690831515021790555060808201518160000160176101000a81548160ff02191690831515021790555060a0820151816001015560c0820151816002015560e082015181600301555050506001600860008a73ffffffffffffffffffffffffffffffffffffffff1673ffffffffffffffffffffffffffffffffffffffff16815260200190815260200160002060006101000a81548160ff0219169083151502179055506124b6565b60008090505b6005805490508110156124b4578873ffffffffffffffffffffffffffffffffffffffff166005828154811061212a57fe5b906000526020600020906004020160000160009054906101000a900473ffffffffffffffffffffffffffffffffffffffff1673ffffffffffffffffffffffffffffffffffffffff1614156124a757600960008a73ffffffffffffffffffffffffffffffffffffffff1673ffffffffffffffffffffffffffffffffffffffff16815260200190815260200160002060009054906101000a900460ff16600582815481106121d257fe5b906000526020600020906004020160000160146101000a81548160ff021916908315150217905550600a60008a73ffffffffffffffffffffffffffffffffffffffff1673ffffffffffffffffffffffffffffffffffffffff16815260200190815260200160002060009054906101000a900460ff166005828154811061225457fe5b906000526020600020906004020160000160156101000a81548160ff021916908315150217905550600b60008a73ffffffffffffffffffffffffffffffffffffffff1673ffffffffffffffffffffffffffffffffffffffff16815260200190815260200160002060009054906101000a900460ff16600582815481106122d657fe5b906000526020600020906004020160000160166101000a81548160ff021916908315150217905550600c60008a73ffffffffffffffffffffffffffffffffffffffff1673ffffffffffffffffffffffffffffffffffffffff16815260200190815260200160002060009054906101000a900460ff166005828154811061235857fe5b906000526020600020906004020160000160176101000a81548160ff021916908315150217905550600f60008a73ffffffffffffffffffffffffffffffffffffffff1673ffffffffffffffffffffffffffffffffffffffff16815260200190815260200160002054600582815481106123cd57fe5b906000526020600020906004020160010181905550600d60008a73ffffffffffffffffffffffffffffffffffffffff1673ffffffffffffffffffffffffffffffffffffffff168152602001908152602001600020546005828154811061242f57fe5b906000526020600020906004020160020181905550601060008a73ffffffffffffffffffffffffffffffffffffffff1673ffffffffffffffffffffffffffffffffffffffff168152602001908152602001600020546005828154811061249157fe5b9060005260206000209060040201600301819055505b80806001019150506120f9565b505b60016002600082825401925050819055505b5050505050505050565b60186020528060005260406000206000915054906101000a900460ff1681565b60086020528060005260406000206000915054906101000a900460ff1681565b600d6020528060005260406000206000915090505481565b60008060008411612570576040517f08c379a000000000000000000000000000000000000000000000000000000000815260040161256790615ef1565b60405180910390fd5b42601060008773ffffffffffffffffffffffffffffffffffffffff1673ffffffffffffffffffffffffffffffffffffffff16815260200190815260200160002054116125f1576040517f08c379a00000000000000000000000000000000000000000000000000000000081526004016125e890615eb1565b60405180910390fd5b600083141561273457600c60008673ffffffffffffffffffffffffffffffffffffffff1673ffffffffffffffffffffffffffffffffffffffff16815260200190815260200160002060009054906101000a900460ff1661265057600080fd5b601860008673ffffffffffffffffffffffffffffffffffffffff1673ffffffffffffffffffffffffffffffffffffffff16815260200190815260200160002060009054906101000a900460ff1691508473ffffffffffffffffffffffffffffffffffffffff166323b872dd3330876040518463ffffffff1660e01b81526004016126dc93929190615bc3565b602060405180830381600087803b1580156126f657600080fd5b505af115801561270a573d6000803e3d6000fd5b505050506040513d601f19601f8201168201806040525061272e91908101906158a6565b50612aaf565b60018314156127e757600960008673ffffffffffffffffffffffffffffffffffffffff1673ffffffffffffffffffffffffffffffffffffffff16815260200190815260200160002060009054906101000a900460ff1661279357600080fd5b601560008673ffffffffffffffffffffffffffffffffffffffff1673ffffffffffffffffffffffffffffffffffffffff16815260200190815260200160002060009054906101000a900460ff169150612aae565b600283141561294b57600a60008673ffffffffffffffffffffffffffffffffffffffff1673ffffffffffffffffffffffffffffffffffffffff16815260200190815260200160002060009054906101000a900460ff1661284657600080fd5b601760008673ffffffffffffffffffffffffffffffffffffffff1673ffffffffffffffffffffffffffffffffffffffff16815260200190815260200160002060009054906101000a900460ff1691506000809054906101000a900473ffffffffffffffffffffffffffffffffffffffff1673ffffffffffffffffffffffffffffffffffffffff166323b872dd3330876040518463ffffffff1660e01b81526004016128f393929190615bc3565b602060405180830381600087803b15801561290d57600080fd5b505af1158015612921573d6000803e3d6000fd5b505050506040513d601f19601f8201168201806040525061294591908101906158a6565b50612aad565b6003831415612aac57600b60008673ffffffffffffffffffffffffffffffffffffffff1673ffffffffffffffffffffffffffffffffffffffff16815260200190815260200160002060009054906101000a900460ff166129aa57600080fd5b601660008673ffffffffffffffffffffffffffffffffffffffff1673ffffffffffffffffffffffffffffffffffffffff16815260200190815260200160002060009054906101000a900460ff169150600160009054906101000a900473ffffffffffffffffffffffffffffffffffffffff1673ffffffffffffffffffffffffffffffffffffffff166323b872dd3330876040518463ffffffff1660e01b8152600401612a5893929190615bc3565b602060405180830381600087803b158015612a7257600080fd5b505af1158015612a86573d6000803e3d6000fd5b505050506040513d601f19601f82011682018060405250612aaa91908101906158a6565b505b5b5b5b60066040518061012001604052808773ffffffffffffffffffffffffffffffffffffffff1681526020013373ffffffffffffffffffffffffffffffffffffffff1681526020018681526020014281526020016040518060400160405280600581526020017f5374616b650000000000000000000000000000000000000000000000000000008152508152602001601260008973ffffffffffffffffffffffffffffffffffffffff1673ffffffffffffffffffffffffffffffffffffffff1681526020019081526020016000208054600181600116156101000203166002900480601f016020809104026020016040519081016040528092919081815260200182805460018160011615610100020316600290048015612c0f5780601f10612be457610100808354040283529160200191612c0f565b820191906000526020600020905b815481529060010190602001808311612bf257829003601f168201915b50505050508152602001601360008973ffffffffffffffffffffffffffffffffffffffff1673ffffffffffffffffffffffffffffffffffffffff168152602001908152602001600020548152602001601460008973ffffffffffffffffffffffffffffffffffffffff1673ffffffffffffffffffffffffffffffffffffffff1681526020019081526020016000208054600181600116156101000203166002900480601f016020809104026020016040519081016040528092919081815260200182805460018160011615610100020316600290048015612d315780601f10612d0657610100808354040283529160200191612d31565b820191906000526020600020905b815481529060010190602001808311612d1457829003601f168201915b50505050508152602001858152509080600181540180825580915050906001820390600052602060002090600902016000909192909190915060008201518160000160006101000a81548173ffffffffffffffffffffffffffffffffffffffff021916908373ffffffffffffffffffffffffffffffffffffffff16021790555060208201518160010160006101000a81548173ffffffffffffffffffffffffffffffffffffffff021916908373ffffffffffffffffffffffffffffffffffffffff16021790555060408201518160020155606082015181600301556080820151816004019080519060200190612e289291906155c0565b5060a0820151816005019080519060200190612e459291906155c0565b5060c0820151816006015560e0820151816007019080519060200190612e6c9291906155c0565b506101008201518160080155505050600160036000828254019250508190555060008090506000809050836130955760076040518061010001604052808973ffffffffffffffffffffffffffffffffffffffff1681526020013373ffffffffffffffffffffffffffffffffffffffff168152602001600d60008b73ffffffffffffffffffffffffffffffffffffffff1673ffffffffffffffffffffffffffffffffffffffff16815260200190815260200160002054815260200188815260200188815260200142815260200160008152602001878152509080600181540180825580915050906001820390600052602060002090600802016000909192909190915060008201518160000160006101000a81548173ffffffffffffffffffffffffffffffffffffffff021916908373ffffffffffffffffffffffffffffffffffffffff16021790555060208201518160010160006101000a81548173ffffffffffffffffffffffffffffffffffffffff021916908373ffffffffffffffffffffffffffffffffffffffff16021790555060408201518160020155606082015181600301556080820151816004015560a0820151816005015560c0820151816006015560e08201518160070155505050859250600193506001601e60008973ffffffffffffffffffffffffffffffffffffffff1673ffffffffffffffffffffffffffffffffffffffff16815260200190815260200160002060008282540192505081905550613591565b60008090505b600780549050811015613389578773ffffffffffffffffffffffffffffffffffffffff16600782815481106130cc57fe5b906000526020600020906008020160000160009054906101000a900473ffffffffffffffffffffffffffffffffffffffff1673ffffffffffffffffffffffffffffffffffffffff1614801561313e5750856007828154811061312a57fe5b906000526020600020906008020160070154145b1561337c576000603c6007838154811061315457fe5b90600052602060002090600802016005015442038161316f57fe5b049050426007838154811061318057fe5b906000526020600020906008020160050181905550600782815481106131a257fe5b9060005260206000209060080201600201548102600783815481106131c357fe5b90600052602060002090600802016006016000828254019250508190555087600783815481106131ef57fe5b9060005260206000209060080201600401600082825401925050819055506007828154811061321a57fe5b90600052602060002090600802016004015494503373ffffffffffffffffffffffffffffffffffffffff166007838154811061325257fe5b906000526020600020906008020160010160009054906101000a900473ffffffffffffffffffffffffffffffffffffffff1673ffffffffffffffffffffffffffffffffffffffff1614156132d15787600783815481106132ae57fe5b906000526020600020906008020160030160008282540192505081905550600193505b600782815481106132de57fe5b906000526020600020906008020160040154600783815481106132fd57fe5b906000526020600020906008020160030154600d60008c73ffffffffffffffffffffffffffffffffffffffff1673ffffffffffffffffffffffffffffffffffffffff16815260200190815260200160002054028161335757fe5b046007838154811061336557fe5b906000526020600020906008020160020181905550505b808060010191505061309b565b506000821415613590578286600d60008a73ffffffffffffffffffffffffffffffffffffffff1673ffffffffffffffffffffffffffffffffffffffff1681526020019081526020016000205402816133dd57fe5b04905060076040518061010001604052808973ffffffffffffffffffffffffffffffffffffffff1681526020013373ffffffffffffffffffffffffffffffffffffffff16815260200183815260200188815260200185815260200142815260200160008152602001878152509080600181540180825580915050906001820390600052602060002090600802016000909192909190915060008201518160000160006101000a81548173ffffffffffffffffffffffffffffffffffffffff021916908373ffffffffffffffffffffffffffffffffffffffff16021790555060208201518160010160006101000a81548173ffffffffffffffffffffffffffffffffffffffff021916908373ffffffffffffffffffffffffffffffffffffffff16021790555060408201518160020155606082015181600301556080820151816004015560a0820151816005015560c0820151816006015560e082015181600701555050506001601e60008973ffffffffffffffffffffffffffffffffffffffff1673ffffffffffffffffffffffffffffffffffffffff168152602001908152602001600020600082825401925050819055505b5b600085141561363a5782601c60008973ffffffffffffffffffffffffffffffffffffffff1673ffffffffffffffffffffffffffffffffffffffff1681526020019081526020016000208190555083601860008973ffffffffffffffffffffffffffffffffffffffff1673ffffffffffffffffffffffffffffffffffffffff16815260200190815260200160002060006101000a81548160ff021916908315150217905550613834565b60018514156136e35782601960008973ffffffffffffffffffffffffffffffffffffffff1673ffffffffffffffffffffffffffffffffffffffff1681526020019081526020016000208190555083601560008973ffffffffffffffffffffffffffffffffffffffff1673ffffffffffffffffffffffffffffffffffffffff16815260200190815260200160002060006101000a81548160ff021916908315150217905550613833565b600285141561378c5782601a60008973ffffffffffffffffffffffffffffffffffffffff1673ffffffffffffffffffffffffffffffffffffffff1681526020019081526020016000208190555083601760008973ffffffffffffffffffffffffffffffffffffffff1673ffffffffffffffffffffffffffffffffffffffff16815260200190815260200160002060006101000a81548160ff021916908315150217905550613832565b60038514156138315782601b60008973ffffffffffffffffffffffffffffffffffffffff1673ffffffffffffffffffffffffffffffffffffffff1681526020019081526020016000208190555083601660008973ffffffffffffffffffffffffffffffffffffffff1673ffffffffffffffffffffffffffffffffffffffff16815260200190815260200160002060006101000a81548160ff0219169083151502179055505b5b5b5b600780549050601d60003073ffffffffffffffffffffffffffffffffffffffff1673ffffffffffffffffffffffffffffffffffffffff1681526020019081526020016000208190555050505050505050565b600b6020528060005260406000206000915054906101000a900460ff1681565b600481815481106138b357fe5b90600052602060002090600602016000915090508060000160009054906101000a900473ffffffffffffffffffffffffffffffffffffffff16908060010160009054906101000a900473ffffffffffffffffffffffffffffffffffffffff1690806002018054600181600116156101000203166002900480601f0160208091040260200160405190810160405280929190818152602001828054600181600116156101000203166002900480156139ab5780601f10613980576101008083540402835291602001916139ab565b820191906000526020600020905b81548152906001019060200180831161398e57829003601f168201915b505050505090806003018054600181600116156101000203166002900480601f016020809104026020016040519081016040528092919081815260200182805460018160011615610100020316600290048015613a495780601f10613a1e57610100808354040283529160200191613a49565b820191906000526020600020905b815481529060010190602001808311613a2c57829003601f168201915b505050505090806004018054600181600116156101000203166002900480601f016020809104026020016040519081016040528092919081815260200182805460018160011615610100020316600290048015613ae75780601f10613abc57610100808354040283529160200191613ae7565b820191906000526020600020905b815481529060010190602001808311613aca57829003601f168201915b5050505050908060050154905086565b600c6020528060005260406000206000915054906101000a900460ff1681565b60176020528060005260406000206000915054906101000a900460ff1681565b601e6020528060005260406000206000915090505481565b60068181548110613b5c57fe5b90600052602060002090600902016000915090508060000160009054906101000a900473ffffffffffffffffffffffffffffffffffffffff16908060010160009054906101000a900473ffffffffffffffffffffffffffffffffffffffff1690806002015490806003015490806004018054600181600116156101000203166002900480601f016020809104026020016040519081016040528092919081815260200182805460018160011615610100020316600290048015613c605780601f10613c3557610100808354040283529160200191613c60565b820191906000526020600020905b815481529060010190602001808311613c4357829003601f168201915b505050505090806005018054600181600116156101000203166002900480601f016020809104026020016040519081016040528092919081815260200182805460018160011615610100020316600290048015613cfe5780601f10613cd357610100808354040283529160200191613cfe565b820191906000526020600020905b815481529060010190602001808311613ce157829003601f168201915b505050505090806006015490806007018054600181600116156101000203166002900480601f016020809104026020016040519081016040528092919081815260200182805460018160011615610100020316600290048015613da25780601f10613d7757610100808354040283529160200191613da2565b820191906000526020600020905b815481529060010190602001808311613d8557829003601f168201915b5050505050908060080154905089565b60116020528060005260406000206000915090505481565b600e6020528060005260406000206000915054906101000a900473ffffffffffffffffffffffffffffffffffffffff1681565b60136020528060005260406000206000915090505481565b601b6020528060005260406000206000915090505481565b601a6020528060005260406000206000915090505481565b60196020528060005260406000206000915090505481565b60156020528060005260406000206000915054906101000a900460ff1681565b60106020528060005260406000206000915090505481565b601c6020528060005260406000206000915090505481565b60126020528060005260406000206000915090508054600181600116156101000203166002900480601f016020809104026020016040519081016040528092919081815260200182805460018160011615610100020316600290048015613f555780601f10613f2a57610100808354040283529160200191613f55565b820191906000526020600020905b815481529060010190602001808311613f3857829003601f168201915b505050505081565b60035481565b60606005805480602002602001604051908101604052809291908181526020016000905b8282101561409a5783829060005260206000209060040201604051806101000160405290816000820160009054906101000a900473ffffffffffffffffffffffffffffffffffffffff1673ffffffffffffffffffffffffffffffffffffffff1673ffffffffffffffffffffffffffffffffffffffff1681526020016000820160149054906101000a900460ff161515151581526020016000820160159054906101000a900460ff161515151581526020016000820160169054906101000a900460ff161515151581526020016000820160179054906101000a900460ff16151515158152602001600182015481526020016002820154815260200160038201548152505081526020019060010190613f87565b50505050905090565b600080905060008090506000809050600080905060008090506000809050600080600090505b60078054905081101561427c578973ffffffffffffffffffffffffffffffffffffffff16600782815481106140fa57fe5b906000526020600020906008020160000160009054906101000a900473ffffffffffffffffffffffffffffffffffffffff1673ffffffffffffffffffffffffffffffffffffffff161480156141b857503373ffffffffffffffffffffffffffffffffffffffff166007828154811061416e57fe5b906000526020600020906008020160010160009054906101000a900473ffffffffffffffffffffffffffffffffffffffff1673ffffffffffffffffffffffffffffffffffffffff16145b80156141e1575088600782815481106141cd57fe5b906000526020600020906008020160070154145b1561426f57600781815481106141f357fe5b90600052602060002090600802016003015495506007818154811061421457fe5b90600052602060002090600802016006015494506007818154811061423557fe5b90600052602060002090600802016005015493506007818154811061425657fe5b9060005260206000209060080201600201549250600196505b80806001019150506140c9565b506000851161428a57600080fd5b42601060008b73ffffffffffffffffffffffffffffffffffffffff1673ffffffffffffffffffffffffffffffffffffffff16815260200190815260200160002054111561466557603c8342038302816142df57fe5b048401965060008090505b60078054905081101561465f578973ffffffffffffffffffffffffffffffffffffffff166007828154811061431b57fe5b906000526020600020906008020160000160009054906101000a900473ffffffffffffffffffffffffffffffffffffffff1673ffffffffffffffffffffffffffffffffffffffff1614801561438d5750886007828154811061437957fe5b906000526020600020906008020160070154145b1561465257603c600782815481106143a157fe5b9060005260206000209060080201600501544203600783815481106143c257fe5b90600052602060002090600802016002015402816143dc57fe5b04600782815481106143ea57fe5b906000526020600020906008020160060160008282540192505081905550426007828154811061441657fe5b906000526020600020906008020160050181905550856007828154811061443957fe5b9060005260206000209060080201600401600082825403925050819055506007818154811061446457fe5b906000526020600020906008020160040154915060006007828154811061448757fe5b90600052602060002090600802016004015414156144c8576000600782815481106144ae57fe5b906000526020600020906008020160020181905550614572565b600781815481106144d557fe5b906000526020600020906008020160040154600782815481106144f457fe5b906000526020600020906008020160030154600d60008d73ffffffffffffffffffffffffffffffffffffffff1673ffffffffffffffffffffffffffffffffffffffff16815260200190815260200160002054028161454e57fe5b046007828154811061455c57fe5b9060005260206000209060080201600201819055505b3373ffffffffffffffffffffffffffffffffffffffff166007828154811061459657fe5b906000526020600020906008020160010160009054906101000a900473ffffffffffffffffffffffffffffffffffffffff1673ffffffffffffffffffffffffffffffffffffffff161415614651576000600782815481106145f357fe5b90600052602060002090600802016006018190555060006007828154811061461757fe5b90600052602060002090600802016003018190555060006007828154811061463b57fe5b9060005260206000209060080201600201819055505b5b80806001019150506142ea565b50614ab2565b603c83601060008c73ffffffffffffffffffffffffffffffffffffffff1673ffffffffffffffffffffffffffffffffffffffff16815260200190815260200160002054038302816146b257fe5b048401965060008090505b600780549050811015614ab0578973ffffffffffffffffffffffffffffffffffffffff16600782815481106146ee57fe5b906000526020600020906008020160000160009054906101000a900473ffffffffffffffffffffffffffffffffffffffff1673ffffffffffffffffffffffffffffffffffffffff161480156147605750886007828154811061474c57fe5b906000526020600020906008020160070154145b15614aa357603c6007828154811061477457fe5b906000526020600020906008020160050154601060008d73ffffffffffffffffffffffffffffffffffffffff1673ffffffffffffffffffffffffffffffffffffffff1681526020019081526020016000205403600783815481106147d457fe5b90600052602060002090600802016002015402816147ee57fe5b04600782815481106147fc57fe5b906000526020600020906008020160060160008282540192505081905550601060008b73ffffffffffffffffffffffffffffffffffffffff1673ffffffffffffffffffffffffffffffffffffffff168152602001908152602001600020546007828154811061486757fe5b906000526020600020906008020160050181905550856007828154811061488a57fe5b906000526020600020906008020160040160008282540392505081905550600781815481106148b557fe5b90600052602060002090600802016004015491506000600782815481106148d857fe5b9060005260206000209060080201600401541415614919576000600782815481106148ff57fe5b9060005260206000209060080201600201819055506149c3565b6007818154811061492657fe5b9060005260206000209060080201600401546007828154811061494557fe5b906000526020600020906008020160030154600d60008d73ffffffffffffffffffffffffffffffffffffffff1673ffffffffffffffffffffffffffffffffffffffff16815260200190815260200160002054028161499f57fe5b04600782815481106149ad57fe5b9060005260206000209060080201600201819055505b3373ffffffffffffffffffffffffffffffffffffffff16600782815481106149e757fe5b906000526020600020906008020160010160009054906101000a900473ffffffffffffffffffffffffffffffffffffffff1673ffffffffffffffffffffffffffffffffffffffff161415614aa257600060078281548110614a4457fe5b906000526020600020906008020160060181905550600060078281548110614a6857fe5b906000526020600020906008020160030181905550600060078281548110614a8c57fe5b9060005260206000209060080201600201819055505b5b80806001019150506146bd565b505b6001881415614b4b5780601960008b73ffffffffffffffffffffffffffffffffffffffff1673ffffffffffffffffffffffffffffffffffffffff168152602001908152602001600020819055503373ffffffffffffffffffffffffffffffffffffffff166108fc869081150290604051600060405180830381858888f19350505050158015614b45573d6000803e3d6000fd5b50614e2d565b6002881415614c4c5780601a60008b73ffffffffffffffffffffffffffffffffffffffff1673ffffffffffffffffffffffffffffffffffffffff168152602001908152602001600020819055506000809054906101000a900473ffffffffffffffffffffffffffffffffffffffff1673ffffffffffffffffffffffffffffffffffffffff1663a9059cbb33876040518363ffffffff1660e01b8152600401614bf4929190615bfa565b602060405180830381600087803b158015614c0e57600080fd5b505af1158015614c22573d6000803e3d6000fd5b505050506040513d601f19601f82011682018060405250614c4691908101906158a6565b50614e2c565b6003881415614d4e5780601b60008b73ffffffffffffffffffffffffffffffffffffffff1673ffffffffffffffffffffffffffffffffffffffff16815260200190815260200160002081905550600160009054906101000a900473ffffffffffffffffffffffffffffffffffffffff1673ffffffffffffffffffffffffffffffffffffffff1663a9059cbb33876040518363ffffffff1660e01b8152600401614cf6929190615bfa565b602060405180830381600087803b158015614d1057600080fd5b505af1158015614d24573d6000803e3d6000fd5b505050506040513d601f19601f82011682018060405250614d4891908101906158a6565b50614e2b565b6000881415614e2a5780601c60008b73ffffffffffffffffffffffffffffffffffffffff1673ffffffffffffffffffffffffffffffffffffffff168152602001908152602001600020819055508873ffffffffffffffffffffffffffffffffffffffff1663a9059cbb33876040518363ffffffff1660e01b8152600401614dd6929190615bfa565b602060405180830381600087803b158015614df057600080fd5b505af1158015614e04573d6000803e3d6000fd5b505050506040513d601f19601f82011682018060405250614e2891908101906158a6565b505b5b5b5b8873ffffffffffffffffffffffffffffffffffffffff1663a9059cbb33896040518363ffffffff1660e01b8152600401614e68929190615bfa565b602060405180830381600087803b158015614e8257600080fd5b505af1158015614e96573d6000803e3d6000fd5b505050506040513d601f19601f82011682018060405250614eba91908101906158a6565b5060066040518061012001604052808b73ffffffffffffffffffffffffffffffffffffffff1681526020013373ffffffffffffffffffffffffffffffffffffffff1681526020018981526020014281526020016040518060400160405280600881526020017f57697468647261770000000000000000000000000000000000000000000000008152508152602001601260008d73ffffffffffffffffffffffffffffffffffffffff1673ffffffffffffffffffffffffffffffffffffffff1681526020019081526020016000208054600181600116156101000203166002900480601f01602080910402602001604051908101604052809291908181526020018280546001816001161561010002031660029004801561501b5780601f10614ff05761010080835404028352916020019161501b565b820191906000526020600020905b815481529060010190602001808311614ffe57829003601f168201915b50505050508152602001601360008d73ffffffffffffffffffffffffffffffffffffffff1673ffffffffffffffffffffffffffffffffffffffff168152602001908152602001600020548152602001601460008d73ffffffffffffffffffffffffffffffffffffffff1673ffffffffffffffffffffffffffffffffffffffff1681526020019081526020016000208054600181600116156101000203166002900480601f01602080910402602001604051908101604052809291908181526020018280546001816001161561010002031660029004801561513d5780601f106151125761010080835404028352916020019161513d565b820191906000526020600020905b81548152906001019060200180831161512057829003601f168201915b505050505081526020018a8152509080600181540180825580915050906001820390600052602060002090600902016000909192909190915060008201518160000160006101000a81548173ffffffffffffffffffffffffffffffffffffffff021916908373ffffffffffffffffffffffffffffffffffffffff16021790555060208201518160010160006101000a81548173ffffffffffffffffffffffffffffffffffffffff021916908373ffffffffffffffffffffffffffffffffffffffff160217905550604082015181600201556060820151816003015560808201518160040190805190602001906152349291906155c0565b5060a08201518160050190805190602001906152519291906155c0565b5060c0820151816006015560e08201518160070190805190602001906152789291906155c0565b50610100820151816008015550505060016003600082825401925050819055506001601e60008b73ffffffffffffffffffffffffffffffffffffffff1673ffffffffffffffffffffffffffffffffffffffff16815260200190815260200160002060008282540392505081905550505050505050505050565b6000809054906101000a900473ffffffffffffffffffffffffffffffffffffffff1681565b6005818154811061532357fe5b90600052602060002090600402016000915090508060000160009054906101000a900473ffffffffffffffffffffffffffffffffffffffff16908060000160149054906101000a900460ff16908060000160159054906101000a900460ff16908060000160169054906101000a900460ff16908060000160179054906101000a900460ff16908060010154908060020154908060030154905088565b60096020528060005260406000206000915054906101000a900460ff1681565b60146020528060005260406000206000915090508054600181600116156101000203166002900480601f0160208091040260200160405190810160405280929190818152602001828054600181600116156101000203166002900480156154875780601f1061545c57610100808354040283529160200191615487565b820191906000526020600020905b81548152906001019060200180831161546a57829003601f168201915b505050505081565b600160009054906101000a900473ffffffffffffffffffffffffffffffffffffffff1681565b600f6020528060005260406000206000915090505481565b600a6020528060005260406000206000915054906101000a900460ff1681565b601d6020528060005260406000206000915090505481565b6007818154811061551257fe5b90600052602060002090600802016000915090508060000160009054906101000a900473ffffffffffffffffffffffffffffffffffffffff16908060010160009054906101000a900473ffffffffffffffffffffffffffffffffffffffff16908060020154908060030154908060040154908060050154908060060154908060070154905088565b60166020528060005260406000206000915054906101000a900460ff1681565b60025481565b828054600181600116156101000203166002900490600052602060002090601f016020900481019282601f1061560157805160ff191683800117855561562f565b8280016001018555821561562f579182015b8281111561562e578251825591602001919060010190615613565b5b50905061563c9190615640565b5090565b61566291905b8082111561565e576000816000905550600101615646565b5090565b90565b600081359050615674816160cf565b92915050565b600081519050615689816160e6565b92915050565b600082601f8301126156a057600080fd5b81356156b36156ae82615f59565b615f2c565b915080825260208301602083018583830111156156cf57600080fd5b6156da83828461607c565b50505092915050565b6000813590506156f2816160fd565b92915050565b60006020828403121561570a57600080fd5b600061571884828501615665565b91505092915050565b600080600080600080600080610100898b03121561573e57600080fd5b600061574c8b828c01615665565b985050602089013567ffffffffffffffff81111561576957600080fd5b6157758b828c0161568f565b975050604089013567ffffffffffffffff81111561579257600080fd5b61579e8b828c0161568f565b965050606089013567ffffffffffffffff8111156157bb57600080fd5b6157c78b828c0161568f565b95505060806157d88b828c016156e3565b94505060a06157e98b828c016156e3565b93505060c06157fa8b828c016156e3565b92505060e061580b8b828c016156e3565b9150509295985092959890939650565b6000806040838503121561582e57600080fd5b600061583c85828601615665565b925050602061584d858286016156e3565b9150509250929050565b60008060006060848603121561586c57600080fd5b600061587a86828701615665565b935050602061588b868287016156e3565b925050604061589c868287016156e3565b9150509250925092565b6000602082840312156158b857600080fd5b60006158c68482850161567a565b91505092915050565b6000602082840312156158e157600080fd5b60006158ef848285016156e3565b91505092915050565b60006159048383615ae8565b6101008301905092915050565b61591a81616022565b82525050565b61592981615fda565b82525050565b61593881615fda565b82525050565b600061594982615f95565b6159538185615fb8565b935061595e83615f85565b8060005b8381101561598f57815161597688826158f8565b975061598183615fab565b925050600181019050615962565b5085935050505092915050565b6159a581615fec565b82525050565b6159b481615fec565b82525050565b6159c381616034565b82525050565b60006159d482615fa0565b6159de8185615fc9565b93506159ee81856020860161608b565b6159f7816160be565b840191505092915050565b6000615a0f601283615fc9565b91507f54686520706f6f6c20697320636c6f73656400000000000000000000000000006000830152602082019050919050565b6000615a4f602483615fc9565b91507f41646420706f6f6c2066616c73652e20506f6f6c20616c72656164792065786960008301527f73746564000000000000000000000000000000000000000000000000000000006020830152604082019050919050565b6000615ab5601283615fc9565b91507f616d6f756e742063616e6e6f74206265203000000000000000000000000000006000830152602082019050919050565b61010082016000820151615aff6000850182615920565b506020820151615b12602085018261599c565b506040820151615b25604085018261599c565b506060820151615b38606085018261599c565b506080820151615b4b608085018261599c565b5060a0820151615b5e60a0850182615b8a565b5060c0820151615b7160c0850182615b8a565b5060e0820151615b8460e0850182615b8a565b50505050565b615b9381616018565b82525050565b615ba281616018565b82525050565b6000602082019050615bbd600083018461592f565b92915050565b6000606082019050615bd86000830186615911565b615be5602083018561592f565b615bf26040830184615b99565b949350505050565b6000604082019050615c0f6000830185615911565b615c1c6020830184615b99565b9392505050565b600060c082019050615c38600083018961592f565b615c45602083018861592f565b8181036040830152615c5781876159c9565b90508181036060830152615c6b81866159c9565b90508181036080830152615c7f81856159c9565b9050615c8e60a0830184615b99565b979650505050505050565b600061012082019050615caf600083018c61592f565b615cbc602083018b61592f565b615cc9604083018a615b99565b615cd66060830189615b99565b8181036080830152615ce881886159c9565b905081810360a0830152615cfc81876159c9565b9050615d0b60c0830186615b99565b81810360e0830152615d1d81856159c9565b9050615d2d610100830184615b99565b9a9950505050505050505050565b600061010082019050615d51600083018b61592f565b615d5e602083018a61592f565b615d6b6040830189615b99565b615d786060830188615b99565b615d856080830187615b99565b615d9260a0830186615b99565b615d9f60c0830185615b99565b615dac60e0830184615b99565b9998505050505050505050565b600061010082019050615dcf600083018b61592f565b615ddc602083018a6159ab565b615de960408301896159ab565b615df660608301886159ab565b615e0360808301876159ab565b615e1060a0830186615b99565b615e1d60c0830185615b99565b615e2a60e0830184615b99565b9998505050505050505050565b60006020820190508181036000830152615e51818461593e565b905092915050565b6000602082019050615e6e60008301846159ab565b92915050565b6000602082019050615e8960008301846159ba565b92915050565b60006020820190508181036000830152615ea981846159c9565b905092915050565b60006020820190508181036000830152615eca81615a02565b9050919050565b60006020820190508181036000830152615eea81615a42565b9050919050565b60006020820190508181036000830152615f0a81615aa8565b9050919050565b6000602082019050615f266000830184615b99565b92915050565b6000604051905081810181811067ffffffffffffffff82111715615f4f57600080fd5b8060405250919050565b600067ffffffffffffffff821115615f7057600080fd5b601f19601f8301169050602081019050919050565b6000819050602082019050919050565b600081519050919050565b600081519050919050565b6000602082019050919050565b600082825260208201905092915050565b600082825260208201905092915050565b6000615fe582615ff8565b9050919050565b60008115159050919050565b600073ffffffffffffffffffffffffffffffffffffffff82169050919050565b6000819050919050565b600061602d82616058565b9050919050565b600061603f82616046565b9050919050565b600061605182615ff8565b9050919050565b60006160638261606a565b9050919050565b600061607582615ff8565b9050919050565b82818337600083830152505050565b60005b838110156160a957808201518184015260208101905061608e565b838111156160b8576000848401525b50505050565b6000601f19601f8301169050919050565b6160d881615fda565b81146160e357600080fd5b50565b6160ef81615fec565b81146160fa57600080fd5b50565b61610681616018565b811461611157600080fd5b5056fea365627a7a723158204228b0743eea1070a4bc364f97448051374c673e2b7a716807c49b3f7aeeb4e76c6578706572696d656e74616cf564736f6c63430005100040",
  "source": "pragma solidity ^0.5.0;\n\ninterface IERC20 {\n    function totalSupply() external view returns (uint256);\n    function balanceOf(address account) external view returns (uint256);\n    function transfer(address recipient, uint256 amount) external returns (bool);\n    function allowance(address owner, address spender) external view returns (uint256);\n    function approve(address spender, uint256 amount) external returns (bool);\n    function transferFrom(address sender, address recipient, uint256 amount) external returns (bool);\n    event Transfer(address indexed from, address indexed to, uint256 value);\n    event Approval(address indexed owner, address indexed spender, uint256 value);\n}\n\npragma solidity ^0.5.0;\npragma experimental ABIEncoderV2;\ncontract StakePool {\n    // Ganache\n    IERC20 public USDT = IERC20(0x081ED2f1275858B157c979eb841E346d535f267E);\n    IERC20 public DAI = IERC20(0xAa75edf7f8e03E2C8CC15bC64CD6EfdCfB6D2717);\n    // Ropsten\n    // IERC20 public USDT = IERC20(0x64C7181421E463Eb18968779ae3Fd0dA8B22346F);\n    // IERC20 public DAI = IERC20(0x8224CdCF7791cF1de534d08A4300CC1f1370b925);\n    uint public lengthstaketoken = 0;\n    uint public lengthstake = 0;\n    \n\n    struct Listtoken {\n        address contractaddress;\n        address ownerCreate;\n        string iconPool;\n        string symPool;\n        string namePool;\n        uint decimal; \n    }\n\n     struct Detailinfopool{\n        address contractaddress;\n        bool hasTokeneth;\n        bool hasTokenusdt;\n        bool hasTokendai;\n        bool hasTokentoken;\n        uint balance;\n        uint ratio;\n        uint lastime;\n    }\n\n    // List push stake and unstake\n    // Token:  1-ETH ; 2-USDT ; 3- DAI\n    struct Stakeuser {\n        address contractaddress;\n        address stakers;\n        uint amount;\n        uint timeCreate;\n        string status;\n        string symbol;\n        uint decimal;\n        string namepool;\n        uint token;\n    }\n\n    // Struc user staking + total stake and total pool\n    struct Userstaking {\n        address contractaddress;\n        address stakers;\n        uint ratiotoken;\n        uint totalstakeUser;\n        uint totalpool;\n        uint timestake;\n        uint totalreward;\n        uint token;\n    }\n\n    Listtoken[] public listtoken;\n    Detailinfopool[] public detailinfopool;\n    Stakeuser[] public stakeuser;\n    Userstaking[] public userstaking;\n\n    // Infomation Contract Add\n    mapping(address => bool) public hasListed;\n    mapping(address => bool) public hasTokeneth;\n    mapping(address => bool) public hasTokenusdt;\n    mapping(address => bool) public hasTokendai;\n    mapping(address => bool) public hasTokentoken;\n    mapping(address => uint) public ratio;\n    mapping(address => address) public ownerContractpool;\n    mapping(address => uint) public balance;\n    mapping(address => uint) public lasttime;\n    mapping(address => uint) public statusdepostit;\n    mapping(address => string) public symbol;\n    mapping(address => uint) public decimalpool;\n    mapping(address => string) public namepool;\n\n    // Infomation Stake\n    mapping(address => bool) public hasContracteth;\n    mapping(address => bool) public hasContractdai;\n    mapping(address => bool) public hasContractusdt;\n    mapping(address => bool) public hasContracttoken;\n    mapping(address => uint) public balancestakeeth;\n    mapping(address => uint) public balancestakeusdt;\n    mapping(address => uint) public balancestakedai;\n    mapping(address => uint) public balancestaketoken;\n    mapping(address => uint) public lengthstakeUser; \n    mapping(address => uint) public totalstaker;\n\n    function addpool(address contractaddress, string memory iconPool, string memory namePool, string memory symPool,uint decimal, uint timePool, uint balancePool, uint status) public {\n        require(balancePool > 0);\n        require(lasttime[contractaddress] < block.timestamp, \"Add pool false. Pool already existed\");\n        if(!hasListed[contractaddress] || (lasttime[contractaddress] < block.timestamp)){\n            hasTokeneth[contractaddress] = false;\n            hasTokendai[contractaddress] = false;\n            hasTokenusdt[contractaddress] = false;\n            totalstaker[contractaddress] = 0;\n            IERC20(contractaddress).transferFrom(msg.sender, address(this), balancePool);       \n            statusdepostit[contractaddress] = status;\n            lasttime[contractaddress]= block.timestamp + timePool*3600;\n            hasTokentoken[contractaddress] = true;\n            if(status == 0){\n                // TOKEN\n                balance[contractaddress] = balancePool;\n                ratio[contractaddress] = balancePool/(timePool * 60);        \n                hasTokeneth[contractaddress] = false;\n                hasTokendai[contractaddress] = false;\n                hasTokenusdt[contractaddress] = false;\n            }else if(status == 1) {\n                // TOKEN ETH\n                balance[contractaddress] = balancePool / 2;\n                ratio[contractaddress] = balancePool/(2 * timePool * 60);         \n                hasTokeneth[contractaddress] = true;\n                hasTokendai[contractaddress] = false;\n                hasTokenusdt[contractaddress] = false;\n            }else if(status == 2){\n                //TOKEN ETH USDT\n                balance[contractaddress]  = balancePool / 3;\n                ratio[contractaddress]= balancePool/(3 * timePool * 60);\n                hasTokeneth[contractaddress] = true;\n                hasTokenusdt[contractaddress] = true;\n                hasTokendai[contractaddress] = false;\n            }else if(status == 3){\n                //TOKEN ETH DAI\n                balance[contractaddress] = balancePool / 3;\n                ratio[contractaddress]= balancePool/(3 * timePool * 60);\n                hasTokeneth[contractaddress] = true;\n                hasTokendai[contractaddress] = true;\n                hasTokenusdt[contractaddress] = false;\n            }else if(status == 4){\n                //TOKEN USDT DAI\n                balance[contractaddress] = balancePool / 3;\n                ratio[contractaddress]= balancePool/(3 * timePool * 60);\n                hasTokendai[contractaddress] = true;\n                hasTokenusdt[contractaddress] = true;\n                hasTokeneth[contractaddress] = false;\n            }else if(status == 5) {\n                //TOKEN USDT\n                balance[contractaddress] = balancePool / 2;\n                ratio[contractaddress] = balancePool/(2 * timePool * 60);\n                hasTokenusdt[contractaddress] = true;\n                hasTokeneth[contractaddress] = false;\n                hasTokendai[contractaddress] = false;\n            }else if(status == 6) {\n                //TOKEN DAI\n                balance[contractaddress] = balancePool / 2;\n                ratio[contractaddress] = balancePool/(2 * timePool * 60);\n                hasTokendai[contractaddress] = true;\n                hasTokeneth[contractaddress] = false;\n                hasTokenusdt[contractaddress] = false;\n            }else if(status == 7) {\n                //TOKEN ETH USDT DAI\n                balance[contractaddress]  = balancePool / 4;\n                ratio[contractaddress] = balancePool/(4 * timePool * 60);\n                hasTokeneth[contractaddress] = true;\n                hasTokenusdt[contractaddress] = true;\n                hasTokendai[contractaddress] = true;\n            }\n            if(!hasListed[contractaddress]){\n                listtoken.push(Listtoken(contractaddress, msg.sender , iconPool, symPool, namePool,  decimal));\n                detailinfopool.push(Detailinfopool(contractaddress, hasTokeneth[contractaddress], hasTokenusdt[contractaddress], hasTokendai[contractaddress], hasTokentoken[contractaddress], balance[contractaddress], ratio[contractaddress], lasttime[contractaddress]));\n                hasListed[contractaddress] = true;\n            }else {\n                for(uint i =0; i<detailinfopool.length; i++){\n                    if(detailinfopool[i].contractaddress == contractaddress){\n                        detailinfopool[i].hasTokeneth = hasTokeneth[contractaddress];\n                        detailinfopool[i].hasTokenusdt = hasTokenusdt[contractaddress];\n                        detailinfopool[i].hasTokendai = hasTokendai[contractaddress];\n                        detailinfopool[i].hasTokentoken = hasTokentoken[contractaddress];\n                        detailinfopool[i].balance = balance[contractaddress];\n                        detailinfopool[i].ratio = ratio[contractaddress];\n                        detailinfopool[i].lastime = lasttime[contractaddress];\n                    }\n                }\n            }                 \n            lengthstaketoken +=1;\n        }\n    }\n\n    function getDetalsinfopool() public view returns(Detailinfopool[] memory){\n        return detailinfopool;\n    }\n\n// SSSSSSSSSSTTTTTTTTTTAAAAAAAAAARRRRRRRRRRTTTTTTTTTT EEEEEEEEEETTTTTTTTTTHHHHHHHHHH\n    function stake(address contractAddress, uint amount, uint choice) public payable{\n        //  uint amount = msg.value;\n        bool hasContract;\n        uint balancepoolstake;\n         require(amount > 0, \"amount cannot be 0\");\n         require(lasttime[contractAddress] > block.timestamp, \"The pool is closed\");\n         if(choice == 0){\n            //  TOKEN\n            require(hasTokentoken[contractAddress]);\n            hasContract = hasContracttoken[contractAddress];\n            // Transfer TOKEN\n            IERC20(contractAddress).transferFrom(msg.sender, address(this), amount);\n         }else if(choice == 1){\n            //  ETH\n            require(hasTokeneth[contractAddress]);\n            hasContract = hasContracteth[contractAddress];\n            // Transfer ETH\n\n         }else if(choice == 2){\n            //  USDT\n            require(hasTokenusdt[contractAddress]);\n            hasContract = hasContractusdt[contractAddress];\n            // TRansfer USDT\n            USDT.transferFrom(msg.sender, address(this), amount);\n         }else if(choice == 3) {\n            //  DAI\n            require(hasTokendai[contractAddress]);\n            hasContract = hasContractdai[contractAddress];\n            // Transfer DAI\n            DAI.transferFrom(msg.sender, address(this), amount);\n         }   \n         stakeuser.push(Stakeuser(contractAddress, msg.sender, amount, block.timestamp, \"Stake\", symbol[contractAddress], decimalpool[contractAddress], namepool[contractAddress], choice)); \n         lengthstake +=1;\n         uint checkStaker = 0;\n         uint ratioFirst = 0;\n        // Check add Contract\n        if(!hasContract){\n            userstaking.push(Userstaking(contractAddress, msg.sender, ratio[contractAddress] , amount, amount,block.timestamp,0, choice));\n            balancepoolstake= amount;\n            hasContract = true;\n            totalstaker[contractAddress] +=1;\n        }else{\n            //Check Address in Contract\n            for(uint i =0; i<userstaking.length; i++){\n                if((userstaking[i].contractaddress == contractAddress) && (userstaking[i].token == choice)) {\n                    uint timestakeold = (block.timestamp - userstaking[i].timestake) / 60;\n                    userstaking[i].timestake = block.timestamp;\n                    userstaking[i].totalreward += timestakeold * userstaking[i].ratiotoken;\n                    userstaking[i].totalpool += amount;  \n                    balancepoolstake = userstaking[i].totalpool;\n                    if(userstaking[i].stakers == msg.sender) {\n                        userstaking[i].totalstakeUser += amount;\n                        checkStaker = 1;\n                    }\n                    userstaking[i].ratiotoken = ratio[contractAddress] * userstaking[i].totalstakeUser / userstaking[i].totalpool;\n                }\n            }\n\n            if(checkStaker == 0){\n                ratioFirst = ratio[contractAddress] * amount / balancepoolstake;\n                userstaking.push(Userstaking(contractAddress, msg.sender, ratioFirst, amount, balancepoolstake, block.timestamp, 0, choice));\n                totalstaker[contractAddress] +=1;\n            }\n        }\n        if(choice == 0){\n            balancestaketoken[contractAddress] = balancepoolstake;\n            hasContracttoken[contractAddress]= hasContract;\n        }else if(choice == 1){\n            balancestakeeth[contractAddress] = balancepoolstake;\n            hasContracteth[contractAddress]= hasContract;\n        }else if(choice == 2){\n            balancestakeusdt[contractAddress] = balancepoolstake;\n            hasContractusdt[contractAddress]= hasContract;\n        }else if(choice == 3){\n            balancestakedai[contractAddress] = balancepoolstake;\n            hasContractdai[contractAddress]= hasContract;\n        }\n        lengthstakeUser[address(this)]= userstaking.length;       \n    }\n\n    function unstake(address contractAddress, uint choice) public {\n        uint totalwithdraw = 0;\n        uint checkwithdraw =0;\n        uint totalamount = 0;\n        uint totalrewardunstake = 0;\n        uint timeunstake =0;\n        uint ratiounstake=0;\n        uint balancepoolstake;\n        for(uint i =0; i<userstaking.length; i++) {\n            if(userstaking[i].contractaddress == contractAddress && userstaking[i].stakers == msg.sender && userstaking[i].token == choice) {\n                totalamount = userstaking[i].totalstakeUser;\n                totalrewardunstake = userstaking[i].totalreward;\n                timeunstake =  userstaking[i].timestake;\n                ratiounstake = userstaking[i].ratiotoken;\n                checkwithdraw=1;\n            }\n        }\n        require(totalamount > 0);\n         if(lasttime[contractAddress] > block.timestamp) {\n             totalwithdraw = totalrewardunstake + ratiounstake*(block.timestamp - timeunstake)/60;            \n            for(uint j =0; j<userstaking.length; j++) {\n                if(userstaking[j].contractaddress == contractAddress && userstaking[j].token == choice) {\n                    userstaking[j].totalreward += userstaking[j].ratiotoken * (block.timestamp - userstaking[j].timestake) / 60;\n                    userstaking[j].timestake = block.timestamp;\n                    userstaking[j].totalpool -= totalamount;\n                    balancepoolstake = userstaking[j].totalpool;\n                    // balancestakeeth[contractAddress] = userstaking[j].totalpool;\n                    if(userstaking[j].totalpool ==0) {\n                        userstaking[j].ratiotoken =0;\n                    }else {\n                        userstaking[j].ratiotoken = ratio[contractAddress] * userstaking[j].totalstakeUser / userstaking[j].totalpool;\n                    }                   \n                    if(userstaking[j].stakers == msg.sender) {\n                        userstaking[j].totalreward = 0;\n                        userstaking[j].totalstakeUser = 0;\n                        userstaking[j].ratiotoken =0;\n                    }\n                }\n            }\n         }else{\n            totalwithdraw = totalrewardunstake + ratiounstake*(lasttime[contractAddress] - timeunstake)/60;\n            for (uint j =0; j<userstaking.length; j++) {\n                    if(userstaking[j].contractaddress == contractAddress && userstaking[j].token == choice) {\n                        userstaking[j].totalreward += userstaking[j].ratiotoken * (lasttime[contractAddress] - userstaking[j].timestake) / 60;\n                        userstaking[j].timestake = lasttime[contractAddress];\n                        userstaking[j].totalpool -= totalamount;\n                        // balancestakeeth[contractAddress] = userstaking[j].totalpool;\n                        balancepoolstake = userstaking[j].totalpool;\n                        if(userstaking[j].totalpool ==0) {\n                            userstaking[j].ratiotoken =0;\n                        }else {\n                            userstaking[j].ratiotoken = ratio[contractAddress] * userstaking[j].totalstakeUser / userstaking[j].totalpool;\n                        }\n\n                        if(userstaking[j].stakers == msg.sender) {\n                        userstaking[j].totalreward = 0;\n                        userstaking[j].totalstakeUser = 0;\n                        userstaking[j].ratiotoken =0;\n                        }\n                    }\n            }\n         }\n        if(choice ==1){\n            balancestakeeth[contractAddress] = balancepoolstake;\n            msg.sender.transfer(totalamount);\n        }else if(choice == 2){\n            balancestakeusdt[contractAddress] = balancepoolstake;\n            USDT.transfer(msg.sender,totalamount);\n\n        }else if(choice == 3){\n            balancestakedai[contractAddress] = balancepoolstake;\n            DAI.transfer(msg.sender,totalamount);\n        }else if(choice == 0){\n            balancestaketoken[contractAddress] = balancepoolstake;\n            IERC20(contractAddress).transfer(msg.sender,totalamount);\n        }\n            IERC20(contractAddress).transfer(msg.sender,totalwithdraw);           \n            stakeuser.push(Stakeuser(contractAddress, msg.sender, totalwithdraw, block.timestamp, \"Withdraw\", symbol[contractAddress], decimalpool[contractAddress], namepool[contractAddress], choice));\n            lengthstake +=1;\n            totalstaker[contractAddress] -=1;    \n    }    \n// EEEEEEEEEENNNNNNNNNNDDDDDDDDDD EEEEEEEEEETTTTTTTTTTHHHHHHHHHH\n}",
  "sourcePath": "/Users/quyphan/Desktop/smartcontract/UniStakes/src/contracts/StakePool.sol",
  "compiler": {
    "name": "solc",
    "version": "0.5.16+commit.9c3226ce.Emscripten.clang"
  },
  "schemaVersion": "3.2.3",
  "updatedAt": "2020-11-04T07:17:26.713Z",
  "devdoc": {
    "methods": {}
  },
  "userdoc": {
    "methods": {}
  }
}