{
  "contractName": "Vote",
  "abi": [
    {
      "constant": true,
      "inputs": [],
      "name": "ATOZ",
      "outputs": [
        {
          "internalType": "contract IERC20",
          "name": "",
          "type": "address"
        }
      ],
      "payable": false,
      "stateMutability": "view",
      "type": "function"
    },
    {
      "constant": true,
      "inputs": [
        {
          "internalType": "address",
          "name": "",
          "type": "address"
        }
      ],
      "name": "hasUser",
      "outputs": [
        {
          "internalType": "bool",
          "name": "",
          "type": "bool"
        }
      ],
      "payable": false,
      "stateMutability": "view",
      "type": "function"
    },
    {
      "constant": true,
      "inputs": [
        {
          "internalType": "address",
          "name": "",
          "type": "address"
        }
      ],
      "name": "hasVote",
      "outputs": [
        {
          "internalType": "bool",
          "name": "",
          "type": "bool"
        }
      ],
      "payable": false,
      "stateMutability": "view",
      "type": "function"
    },
    {
      "constant": true,
      "inputs": [
        {
          "internalType": "uint256",
          "name": "",
          "type": "uint256"
        }
      ],
      "name": "listvote",
      "outputs": [
        {
          "internalType": "address",
          "name": "contractaddress",
          "type": "address"
        },
        {
          "internalType": "uint256",
          "name": "numbervote",
          "type": "uint256"
        }
      ],
      "payable": false,
      "stateMutability": "view",
      "type": "function"
    },
    {
      "constant": true,
      "inputs": [
        {
          "internalType": "address",
          "name": "",
          "type": "address"
        }
      ],
      "name": "totalVote",
      "outputs": [
        {
          "internalType": "uint256",
          "name": "",
          "type": "uint256"
        }
      ],
      "payable": false,
      "stateMutability": "view",
      "type": "function"
    },
    {
      "constant": false,
      "inputs": [
        {
          "internalType": "address",
          "name": "contractaddress",
          "type": "address"
        }
      ],
      "name": "Voteting",
      "outputs": [],
      "payable": false,
      "stateMutability": "nonpayable",
      "type": "function"
    },
    {
      "constant": true,
      "inputs": [],
      "name": "getTotalvote",
      "outputs": [
        {
          "components": [
            {
              "internalType": "address",
              "name": "contractaddress",
              "type": "address"
            },
            {
              "internalType": "uint256",
              "name": "numbervote",
              "type": "uint256"
            }
          ],
          "internalType": "struct Vote.Listvote[]",
          "name": "",
          "type": "tuple[]"
        }
      ],
      "payable": false,
      "stateMutability": "view",
      "type": "function"
    }
  ],
  "bytecode": "0x608060405273c9c12a2a4511611a5f68c044187ab0531a5fcbab6000806101000a81548173ffffffffffffffffffffffffffffffffffffffff021916908373ffffffffffffffffffffffffffffffffffffffff16021790555034801561006457600080fd5b50610ad9806100746000396000f3fe608060405234801561001057600080fd5b506004361061007d5760003560e01c80634def56451161005b5780634def5645146101015780639093c73c14610131578063a6c4ec0e1461014f578063a8bce6041461017f5761007d565b80632243b09a146100825780632355265a146100b257806327c688dc146100e3575b600080fd5b61009c600480360361009791908101906106f9565b61019b565b6040516100a99190610913565b60405180910390f35b6100cc60048036036100c7919081019061074b565b6101bb565b6040516100da9291906108c8565b60405180910390f35b6100eb61020c565b6040516100f891906108f1565b60405180910390f35b61011b600480360361011691908101906106f9565b6102cb565b6040516101289190610949565b60405180910390f35b6101396102e3565b604051610146919061092e565b60405180910390f35b610169600480360361016491908101906106f9565b610308565b6040516101769190610913565b60405180910390f35b610199600480360361019491908101906106f9565b610328565b005b60036020528060005260406000206000915054906101000a900460ff1681565b600181815481106101c857fe5b90600052602060002090600202016000915090508060000160009054906101000a900473ffffffffffffffffffffffffffffffffffffffff16908060010154905082565b60606001805480602002602001604051908101604052809291908181526020016000905b828210156102c257838290600052602060002090600202016040518060400160405290816000820160009054906101000a900473ffffffffffffffffffffffffffffffffffffffff1673ffffffffffffffffffffffffffffffffffffffff1673ffffffffffffffffffffffffffffffffffffffff16815260200160018201548152505081526020019060010190610230565b50505050905090565b60046020528060005260406000206000915090505481565b6000809054906101000a900473ffffffffffffffffffffffffffffffffffffffff1681565b60026020528060005260406000206000915054906101000a900460ff1681565b600360008273ffffffffffffffffffffffffffffffffffffffff1673ffffffffffffffffffffffffffffffffffffffff16815260200190815260200160002060009054906101000a900460ff1661048357600160405180604001604052808373ffffffffffffffffffffffffffffffffffffffff16815260200160018152509080600181540180825580915050906001820390600052602060002090600202016000909192909190915060008201518160000160006101000a81548173ffffffffffffffffffffffffffffffffffffffff021916908373ffffffffffffffffffffffffffffffffffffffff160217905550602082015181600101555050506001600360008373ffffffffffffffffffffffffffffffffffffffff1673ffffffffffffffffffffffffffffffffffffffff16815260200190815260200160002060006101000a81548160ff021916908315150217905550610544565b60008090505b600180549050811015610542578173ffffffffffffffffffffffffffffffffffffffff16600182815481106104ba57fe5b906000526020600020906002020160000160009054906101000a900473ffffffffffffffffffffffffffffffffffffffff1673ffffffffffffffffffffffffffffffffffffffff16141561053557600180828154811061051657fe5b9060005260206000209060020201600101600082825401925050819055505b8080600101915050610489565b505b6001600460008373ffffffffffffffffffffffffffffffffffffffff1673ffffffffffffffffffffffffffffffffffffffff168152602001908152602001600020600082825401925050819055506001600260003373ffffffffffffffffffffffffffffffffffffffff1673ffffffffffffffffffffffffffffffffffffffff16815260200190815260200160002060006101000a81548160ff0219169083151502179055506000809054906101000a900473ffffffffffffffffffffffffffffffffffffffff1673ffffffffffffffffffffffffffffffffffffffff166323b872dd3373eba4e529ff0607f4c3f58fc8ba173a263ed70c1e678ac7230489e800006040518463ffffffff1660e01b815260040161066493929190610891565b602060405180830381600087803b15801561067e57600080fd5b505af1158015610692573d6000803e3d6000fd5b505050506040513d601f19601f820116820180604052506106b69190810190610722565b5050565b6000813590506106c981610a51565b92915050565b6000815190506106de81610a68565b92915050565b6000813590506106f381610a7f565b92915050565b60006020828403121561070b57600080fd5b6000610719848285016106ba565b91505092915050565b60006020828403121561073457600080fd5b6000610742848285016106cf565b91505092915050565b60006020828403121561075d57600080fd5b600061076b848285016106e4565b91505092915050565b60006107808383610844565b60408301905092915050565b610795816109e5565b82525050565b6107a48161099d565b82525050565b6107b38161099d565b82525050565b60006107c482610974565b6107ce818561098c565b93506107d983610964565b8060005b8381101561080a5781516107f18882610774565b97506107fc8361097f565b9250506001810190506107dd565b5085935050505092915050565b610820816109af565b82525050565b61082f816109f7565b82525050565b61083e81610a1b565b82525050565b60408201600082015161085a600085018261079b565b50602082015161086d6020850182610873565b50505050565b61087c816109db565b82525050565b61088b816109db565b82525050565b60006060820190506108a6600083018661078c565b6108b3602083018561078c565b6108c06040830184610835565b949350505050565b60006040820190506108dd60008301856107aa565b6108ea6020830184610882565b9392505050565b6000602082019050818103600083015261090b81846107b9565b905092915050565b60006020820190506109286000830184610817565b92915050565b60006020820190506109436000830184610826565b92915050565b600060208201905061095e6000830184610882565b92915050565b6000819050602082019050919050565b600081519050919050565b6000602082019050919050565b600082825260208201905092915050565b60006109a8826109bb565b9050919050565b60008115159050919050565b600073ffffffffffffffffffffffffffffffffffffffff82169050919050565b6000819050919050565b60006109f082610a2d565b9050919050565b6000610a0282610a09565b9050919050565b6000610a14826109bb565b9050919050565b6000610a26826109db565b9050919050565b6000610a3882610a3f565b9050919050565b6000610a4a826109bb565b9050919050565b610a5a8161099d565b8114610a6557600080fd5b50565b610a71816109af565b8114610a7c57600080fd5b50565b610a88816109db565b8114610a9357600080fd5b5056fea365627a7a723158203c8442d350c67f78daf5a0e1dca418956f5f985be1414153eb50424457d960c26c6578706572696d656e74616cf564736f6c63430005100040",
  "source": "pragma solidity ^0.5.0;\ninterface IERC20 {\n    function totalSupply() external view returns (uint256);\n    function balanceOf(address account) external view returns (uint256);\n    function transfer(address recipient, uint256 amount) external returns (bool);\n    function allowance(address owner, address spender) external view returns (uint256);\n    function approve(address spender, uint256 amount) external returns (bool);\n    function transferFrom(address sender, address recipient, uint256 amount) external returns (bool);\n    event Transfer(address indexed from, address indexed to, uint256 value);\n    event Approval(address indexed owner, address indexed spender, uint256 value);\n} \npragma solidity ^0.5.0;\npragma experimental ABIEncoderV2;\ncontract Vote {\n    struct Listvote{\n        address contractaddress;\n        uint numbervote;\n    }\n    // Ropsten\n    IERC20 public ATOZ = IERC20(0xc9C12A2a4511611A5F68c044187ab0531A5fcBAb);\n    // Ganache\n    // Wallet receive ATOZ: 0xEbA4E529Ff0607f4C3f58FC8BA173a263ED70C1E\n    // IERC20 public ATOZ = IERC20(0x21bA376cBDDc1a79EBF4ba7Ba74b6f13BF6983e2);\n\n    Listvote[] public listvote;\n    mapping(address => bool) public hasUser;\n    mapping(address => bool) public hasVote;\n    mapping(address => uint) public totalVote;   \n    function Voteting(address contractaddress) public{\n        if(!hasVote[contractaddress]){\n            listvote.push(Listvote(contractaddress , 1));\n            hasVote[contractaddress] = true;\n        }else{\n            for(uint i =0; i < listvote.length ; i++){\n                if(listvote[i].contractaddress == contractaddress){\n                    listvote[i].numbervote +=1;\n                }\n            }\n        }\n        totalVote[contractaddress] +=1;\n        hasUser[msg.sender] = true;\n        ATOZ.transferFrom(msg.sender, 0xEbA4E529Ff0607f4C3f58FC8BA173a263ED70C1E, 10000000000000000000);\n    }\n     function getTotalvote() public view returns(Listvote[] memory){\n        return listvote;\n    }\n}",
  "sourcePath": "/Users/quyphan/Desktop/smartcontract/UniStakes/src/contracts/Vote.sol",
  "compiler": {
    "name": "solc",
    "version": "0.5.16+commit.9c3226ce.Emscripten.clang"
  },
  "schemaVersion": "3.2.3",
  "updatedAt": "2020-11-04T07:30:57.710Z",
  "networkType": "ethereum",
  "devdoc": {
    "methods": {}
  },
  "userdoc": {
    "methods": {}
  }
}